{"contracts/GenLayerOracleAdapter.sol":{"GenLayerOracleAdapter":{"abi":[{"inputs":[{"internalType":"address","name":"_genLayerRelayer","type":"address"}],"stateMutability":"nonpayable","type":"constructor"},{"inputs":[{"internalType":"address","name":"owner","type":"address"}],"name":"OwnableInvalidOwner","type":"error"},{"inputs":[{"internalType":"address","name":"account","type":"address"}],"name":"OwnableUnauthorizedAccount","type":"error"},{"inputs":[],"name":"ReentrancyGuardReentrantCall","type":"error"},{"anonymous":false,"inputs":[{"indexed":false,"internalType":"uint256","name":"oldFee","type":"uint256"},{"indexed":false,"internalType":"uint256","name":"newFee","type":"uint256"}],"name":"FeeUpdated","type":"event"},{"anonymous":false,"inputs":[{"indexed":true,"internalType":"bytes32","name":"requestId","type":"bytes32"},{"indexed":true,"internalType":"uint256","name":"disputeId","type":"uint256"},{"indexed":false,"internalType":"string","name":"prompt","type":"string"}],"name":"OracleRequestCreated","type":"event"},{"anonymous":false,"inputs":[{"indexed":true,"internalType":"bytes32","name":"requestId","type":"bytes32"},{"indexed":true,"internalType":"uint256","name":"disputeId","type":"uint256"},{"indexed":false,"internalType":"string","name":"reason","type":"string"}],"name":"OracleRequestFailed","type":"event"},{"anonymous":false,"inputs":[{"indexed":true,"internalType":"bytes32","name":"requestId","type":"bytes32"},{"indexed":true,"internalType":"uint256","name":"disputeId","type":"uint256"},{"indexed":false,"internalType":"uint8","name":"resolution","type":"uint8"},{"indexed":false,"internalType":"uint8","name":"confidenceScore","type":"uint8"}],"name":"OracleRequestFulfilled","type":"event"},{"anonymous":false,"inputs":[{"indexed":true,"internalType":"address","name":"previousOwner","type":"address"},{"indexed":true,"internalType":"address","name":"newOwner","type":"address"}],"name":"OwnershipTransferred","type":"event"},{"anonymous":false,"inputs":[{"indexed":true,"internalType":"address","name":"oldRelayer","type":"address"},{"indexed":true,"internalType":"address","name":"newRelayer","type":"address"}],"name":"RelayerUpdated","type":"event"},{"inputs":[],"name":"REQUEST_TIMEOUT","outputs":[{"internalType":"uint256","name":"","type":"uint256"}],"stateMutability":"view","type":"function"},{"inputs":[],"name":"aiPromptTemplate","outputs":[{"internalType":"string","name":"","type":"string"}],"stateMutability":"view","type":"function"},{"inputs":[],"name":"disputeResolutionContract","outputs":[{"internalType":"address","name":"","type":"address"}],"stateMutability":"view","type":"function"},{"inputs":[{"internalType":"uint256","name":"","type":"uint256"}],"name":"disputeToRequest","outputs":[{"internalType":"bytes32","name":"","type":"bytes32"}],"stateMutability":"view","type":"function"},{"inputs":[{"internalType":"bytes32","name":"_requestId","type":"bytes32"},{"internalType":"string","name":"_reason","type":"string"}],"name":"failRequest","outputs":[],"stateMutability":"nonpayable","type":"function"},{"inputs":[{"internalType":"bytes32","name":"_requestId","type":"bytes32"},{"internalType":"uint8","name":"_resolution","type":"uint8"},{"internalType":"uint8","name":"_confidenceScore","type":"uint8"},{"internalType":"string","name":"_reasoningHash","type":"string"}],"name":"fulfillRequest","outputs":[],"stateMutability":"nonpayable","type":"function"},{"inputs":[],"name":"genLayerRelayer","outputs":[{"internalType":"address","name":"","type":"address"}],"stateMutability":"view","type":"function"},{"inputs":[{"internalType":"bytes32","name":"_requestId","type":"bytes32"}],"name":"getRequest","outputs":[{"components":[{"internalType":"uint256","name":"disputeId","type":"uint256"},{"internalType":"address","name":"disputeContract","type":"address"},{"internalType":"bytes32","name":"requestId","type":"bytes32"},{"internalType":"uint256","name":"timestamp","type":"uint256"},{"internalType":"enum GenLayerOracleAdapter.RequestStatus","name":"status","type":"uint8"},{"internalType":"string","name":"prompt","type":"string"}],"internalType":"struct GenLayerOracleAdapter.OracleRequest","name":"","type":"tuple"}],"stateMutability":"view","type":"function"},{"inputs":[{"internalType":"uint256","name":"_disputeId","type":"uint256"}],"name":"getRequestByDispute","outputs":[{"components":[{"internalType":"uint256","name":"disputeId","type":"uint256"},{"internalType":"address","name":"disputeContract","type":"address"},{"internalType":"bytes32","name":"requestId","type":"bytes32"},{"internalType":"uint256","name":"timestamp","type":"uint256"},{"internalType":"enum GenLayerOracleAdapter.RequestStatus","name":"status","type":"uint8"},{"internalType":"string","name":"prompt","type":"string"}],"internalType":"struct GenLayerOracleAdapter.OracleRequest","name":"","type":"tuple"}],"stateMutability":"view","type":"function"},{"inputs":[{"internalType":"bytes32","name":"_requestId","type":"bytes32"}],"name":"handleExpiredRequest","outputs":[],"stateMutability":"nonpayable","type":"function"},{"inputs":[{"internalType":"bytes32","name":"_requestId","type":"bytes32"}],"name":"isRequestPending","outputs":[{"internalType":"bool","name":"","type":"bool"}],"stateMutability":"view","type":"function"},{"inputs":[],"name":"oracleFee","outputs":[{"internalType":"uint256","name":"","type":"uint256"}],"stateMutability":"view","type":"function"},{"inputs":[],"name":"owner","outputs":[{"internalType":"address","name":"","type":"address"}],"stateMutability":"view","type":"function"},{"inputs":[],"name":"renounceOwnership","outputs":[],"stateMutability":"nonpayable","type":"function"},{"inputs":[{"internalType":"uint256","name":"_disputeId","type":"uint256"},{"internalType":"bytes","name":"_disputeData","type":"bytes"}],"name":"requestAIAnalysis","outputs":[{"internalType":"bytes32","name":"","type":"bytes32"}],"stateMutability":"payable","type":"function"},{"inputs":[],"name":"requestCounter","outputs":[{"internalType":"uint256","name":"","type":"uint256"}],"stateMutability":"view","type":"function"},{"inputs":[{"internalType":"bytes32","name":"","type":"bytes32"}],"name":"requests","outputs":[{"internalType":"uint256","name":"disputeId","type":"uint256"},{"internalType":"address","name":"disputeContract","type":"address"},{"internalType":"bytes32","name":"requestId","type":"bytes32"},{"internalType":"uint256","name":"timestamp","type":"uint256"},{"internalType":"enum GenLayerOracleAdapter.RequestStatus","name":"status","type":"uint8"},{"internalType":"string","name":"prompt","type":"string"}],"stateMutability":"view","type":"function"},{"inputs":[{"internalType":"address","name":"_contract","type":"address"}],"name":"setDisputeResolutionContract","outputs":[],"stateMutability":"nonpayable","type":"function"},{"inputs":[{"internalType":"uint256","name":"_fee","type":"uint256"}],"name":"setOracleFee","outputs":[],"stateMutability":"nonpayable","type":"function"},{"inputs":[{"internalType":"string","name":"_template","type":"string"}],"name":"setPromptTemplate","outputs":[],"stateMutability":"nonpayable","type":"function"},{"inputs":[{"internalType":"address","name":"_relayer","type":"address"}],"name":"setRelayer","outputs":[],"stateMutability":"nonpayable","type":"function"},{"inputs":[{"internalType":"address","name":"newOwner","type":"address"}],"name":"transferOwnership","outputs":[],"stateMutability":"nonpayable","type":"function"},{"inputs":[],"name":"withdrawFees","outputs":[],"stateMutability":"nonpayable","type":"function"},{"stateMutability":"payable","type":"receive"}],"evm":{"bytecode":{"linkReferences":{},"object":"608034620003ad57601f62001dda38819003918201601f19168301916001600160401b03831184841017620003b257808492602094604052833981010312620003ad57516001600160a01b039081811690819003620003ad5733156200039457600090815460018060a01b03199033828216178455604051943391167f8be0079c531659141344cd1fd0a4f28419497f9722a3daafe3b4186f6b6457e08580a360019384805566038d7ea4c68000600555821562000360575060035416176003556008548281811c9116801562000355575b60208210146200034157601f8111620002ea575b6101f9600890815582527f416e616c797a652074686520666f6c6c6f77696e67206469737075746520616e60008051602062001dba8339815191529081557f642070726f7669646520612066616972207265736f6c7574696f6e2e20436f6e908401557f736964657220616c6c207375626d69747465642065766964656e63652c2074687ff3f7a9fe364faab93b216da50a3214154f22a0a2b415b23a84c8169e8b636ee5557f6520646973707574652063617465676f72792c20616e64206170706c696361627ff3f7a9fe364faab93b216da50a3214154f22a0a2b415b23a84c8169e8b636ee6557f6c65207374616e64617264732e2052657475726e2061207265736f6c7574696f7ff3f7a9fe364faab93b216da50a3214154f22a0a2b415b23a84c8169e8b636ee7557f6e2028313d4661766f72436c61696d616e742c20323d4661766f72526573706f7ff3f7a9fe364faab93b216da50a3214154f22a0a2b415b23a84c8169e8b636ee8557f6e64656e742c20333d53706c69742c20343d4469736d69737365642920616e647ff3f7a9fe364faab93b216da50a3214154f22a0a2b415b23a84c8169e8b636ee9557f206120636f6e666964656e63652073636f72652028302d313030292e000000007ff3f7a9fe364faab93b216da50a3214154f22a0a2b415b23a84c8169e8b636eea556040516119f19081620003c98239f35b60088252601f0160051c60008051602062001dba833981519152017ff3f7a9fe364faab93b216da50a3214154f22a0a2b415b23a84c8169e8b636eeb5b818110620003365750620000e5565b828155830162000327565b634e487b7160e01b82526022600452602482fd5b90607f1690620000d1565b62461bcd60e51b815260206004820152600f60248201526e24b73b30b634b2103932b630bcb2b960891b6044820152606490fd5b604051631e4fbdf760e01b815260006004820152602490fd5b600080fd5b634e487b7160e01b600052604160045260246000fdfe6080604052600436101561001b575b361561001957600080fd5b005b6000803560e01c80631672e69414611218578063476343ee1461117f57806347beb6fd14610b525780635fe5392f14610b095780636548e9bc14610a5f578063685ea922146109dd578063694ecb5f146109b4578063715018a61461095a5780637983f136146107295780638da5cb5b14610702578063973a814e146106e45780639d8669851461065b578063a21d516c14610525578063aa95434e146104fb578063ad9514f01461042b578063b6d9ef60146103d5578063bc2c81e9146103b7578063cae4e7b5146102d1578063d1e93d1414610298578063f2fde38b14610207578063f46f96b2146101de578063f9cd3ceb146101c05763fb1e61ca14610124575061000e565b346101bd5760203660031901126101bd5760406101b991610143611966565b5060043581526006602052206101a8600560405192610161846114a9565b8054845260018101546001600160a01b031660208501526002810154604085015260038101546060850152600481015460ff1661019d816113aa565b608085015201611516565b60a082015260405191829182611412565b0390f35b80fd5b50346101bd57806003193601126101bd576020600554604051908152f35b50346101bd57806003193601126101bd576002546040516001600160a01b039091168152602090f35b50346101bd5760203660031901126101bd576004356001600160a01b0381811691829003610294576102376115bc565b811561027b57600054826001600160601b0360a01b821617600055167f8be0079c531659141344cd1fd0a4f28419497f9722a3daafe3b4186f6b6457e0600080a380f35b604051631e4fbdf760e01b815260048101849052602490fd5b8280fd5b50346101bd5760203660031901126101bd5760ff600460406020938235815260068552200154166102c8816113aa565b60405190158152f35b50346101bd5760403660031901126101bd576024356004356001600160401b038211610294576103267f60147910b1499a2846acef7ed1435e1ed66e4392c90a06e52c2c88ff206bd17a923690600401611378565b929061033d60018060a01b03600354163314611630565b82855260066020526040852093600485549561035a87151561166b565b016003815461037f60ff821661036f816113aa565b80159081156103a3575b506116ab565b60ff191617905561039d6040519283926020845260208401916116e8565b0390a380f35b600191506103b0816113aa565b1438610379565b50346101bd57806003193601126101bd576020604051620151808152f35b50346101bd5760203660031901126101bd577f528d9479e9f9889a87a3c30c7f7ba537e5e59c4c85a37733b16e57c62df6130260406004356104156115bc565b600554908060055582519182526020820152a180f35b50346101bd57806003193601126101bd57604051600060085461044d8161146f565b808452906001908181169081156104d4575060011461048b575b6101b984610477818603826114f5565b6040519182916020835260208301906113ed565b60086000908152925060008051602061199c8339815191525b8284106104bc57505050810160200161047782610467565b805460208587018101919091529093019281016104a4565b60ff191660208087019190915292151560051b850190920192506104779150839050610467565b50346101bd5760203660031901126101bd5760406020916004358152600783522054604051908152f35b50346101bd576020806003193601126106575760043580835260068252604083209182549261055584151561166b565b600481019081549060ff821661056a816113aa565b6106245760030154620151808101809111610610574211156105dd579160609160047f60147910b1499a2846acef7ed1435e1ed66e4392c90a06e52c2c88ff206bd17a9460ff1916179055600f604051918083528201526e14995c5d595cdd08195e1c1a5c9959608a1b6040820152a380f35b60405162461bcd60e51b815260048101849052600b60248201526a139bdd08195e1c1a5c995960aa1b6044820152606490fd5b634e487b7160e01b87526011600452602487fd5b60405162461bcd60e51b815260048101859052600b60248201526a4e6f742070656e64696e6760a81b6044820152606490fd5b5080fd5b50346101bd5760203660031901126101bd57604090600435815260066020522080546101b960018060a01b036001840154169260028101549060038101546106ad600560ff6004850154169301611516565b9260405196879687526020870152604086015260608501526106ce816113aa565b608084015260c060a084015260c08301906113ed565b50346101bd57806003193601126101bd576020600454604051908152f35b50346101bd57806003193601126101bd57546040516001600160a01b039091168152602090f35b50346101bd5760803660031901126101bd576004356024359060ff8216809203610294576044359160ff8316809303610956576001600160401b036064358181116109525761077c903690600401611378565b9160018060a01b0361079381600354163314611630565b61079b61160d565b858852600660205260408820936107b48554151561166b565b60048501918254926107d260ff85166107cc816113aa565b156116ab565b600188101580610947575b1561090d5760648a116108d35760028b9460ff1916179055600186015416610804876113aa565b803b156102945760405163b474fcd360e01b815260048101899052948592839185918391610852918e6108368e6113aa565b8d602486015260448501526080606485015260848401916116e8565b03925af180156108c85761089c575b50507f818a4e65ff44dfa52546298dad52e9cfc038f41a484cc9fb6355c6f2831249c591604091549482519182526020820152a36001805580f35b81969296116108b45760409081529094908290610861565b634e487b7160e01b82526041600452602482fd5b6040513d89823e3d90fd5b60405162461bcd60e51b8152602060048201526012602482015271496e76616c696420636f6e666964656e636560701b6044820152606490fd5b60405162461bcd60e51b815260206004820152601260248201527124b73b30b634b2103932b9b7b63aba34b7b760711b6044820152606490fd5b5060048811156107dd565b8580fd5b8380fd5b50346101bd57806003193601126101bd576109736115bc565b80546001600160a01b03198116825581906001600160a01b03167f8be0079c531659141344cd1fd0a4f28419497f9722a3daafe3b4186f6b6457e08280a380f35b50346101bd57806003193601126101bd576003546040516001600160a01b039091168152602090f35b50346101bd5760203660031901126101bd576004356001600160a01b0381169081900361065757610a0c6115bc565b8015610a28576001600160601b0360a01b600254161760025580f35b60405162461bcd60e51b815260206004820152600f60248201526e496e76616c6964206164647265737360881b6044820152606490fd5b50346101bd5760203660031901126101bd576004356001600160a01b038181169182900361029457610a8f6115bc565b8115610ad257600354826001600160601b0360a01b821617600355167f605ca4e43489fb38b91aa63dd9147cd3847957694b080b9285ec898b34269f0c8380a380f35b60405162461bcd60e51b815260206004820152600f60248201526e24b73b30b634b2103932b630bcb2b960891b6044820152606490fd5b50346101bd5760203660031901126101bd5760406101b991610b29611966565b50600435815260076020528181205481526006602052206101a8600560405192610161846114a9565b5060403660031901126101bd576024356001600160401b03811161065757610b7e903690600401611378565b6002546001600160a01b0316330361114257610b9861160d565b600554341061110a576004358352600760205260408320546110d457610bbf6004546115e8565b8060045560001943014381116110c057604051906020820192600435845260408301524260608301524060808201526080815260a081018181106001600160401b03821117610fed5760405251902091608081838101031261095657602081013560ff811690036109565760408101356001600160401b0381116110bc57610c4c90838301908301611724565b9060608101356001600160401b03811161095257838201601f8284010112156109525780820135936001600160401b0385116110a8578460051b9060405195610c9860208401886114f5565b865260208601908085016020848688010101116110a457602084860101915b6020848688010101831061106c575050505050610ceb610ce46020610cdc843561176b565b930135611845565b935161176b565b9160405193849287600854610cff8161146f565b90600181169081156110495750600114611001575b5091603d949391610ddb96936c5052234b9b83aba329024a21d160951b8152610d47825180936020600e850191016113ca565b0169521b0ba32b3b7b93c9d160ad1b600e820152610d6f8251809360206019850191016113ca565b017152232b9b1b934b83a34b7b71024a823299d1606d1b6019820152610d9f825180936020602c850191016113ca565b016f522bb34b232b731b29031b7bab73a1d1607d1b602c820152610dcc82518093602087850191016113ca565b0103601d8101845201826114f5565b600254604051906001600160a01b0316610df4826114a9565b600435825260208201528260408201524260608201528360808201528160a0820152828452600660205260a06005604086208351815560018101600180851b036020860151166001600160601b03851b8254161790556040840151600282015560608401516003820155600481016080850151610e70816113aa565b610e79816113aa565b60ff80198354169116179055019101519081516001600160401b038111610fed57610ea4825461146f565b601f8111610fa8575b509484916020968794601f8211600114610f41576040949582918592610f36575b50508160011b916000199060031b1c19161790555b6004358152600786522055817f5232c86b785c7eddde175ce2cb0069f4b340d44398b8f5e233600c2028ba8c0760405185815280610f2760043595888301906113ed565b0390a360018055604051908152f35b015190503880610ece565b82845288842090601f198316855b818110610f8e5750968392916001946040989910610f75575b505050811b019055610ee3565b015160001960f88460031b161c19169055388080610f68565b828901518455978b01978a97506001909301928b01610f4f565b82875260208720601f830160051c81019160208410610fe3575b601f0160051c01905b818110610fd85750610ead565b878155600101610fcb565b9091508190610fc2565b634e487b7160e01b86526041600452602486fd5b60088a5290508860008051602061199c8339815191525b82821061102d5750508401602001603d610d14565b80546020838b0181019190915289975090910190600101611018565b60ff191660208881019190915282151590920287019091019150603d9050610d14565b6001600160401b038335116110a0576020808092611093858a018388358b8d010101611724565b8152019301929050610cb7565b8980fd5b8880fd5b634e487b7160e01b87526041600452602487fd5b8480fd5b634e487b7160e01b85526011600452602485fd5b60405162461bcd60e51b815260206004820152600e60248201526d526571756573742065786973747360901b6044820152606490fd5b60405162461bcd60e51b815260206004820152601060248201526f496e73756666696369656e742066656560801b6044820152606490fd5b60405162461bcd60e51b815260206004820152601560248201527413db9b1e48191a5cdc1d5d194818dbdb9d1c9858dd605a1b6044820152606490fd5b50346101bd57806003193601126101bd576111986115bc565b8080808060018060a01b0381541647905af13d15611213573d6111ba81611709565b906111c860405192836114f5565b81528260203d92013e5b156111da5780f35b60405162461bcd60e51b815260206004820152601160248201527015da5d1a191c985dd85b0819985a5b1959607a1b6044820152606490fd5b6111d2565b50346101bd57602090816003193601126101bd576001600160401b036004358181116102945761124c903690600401611378565b916112556115bc565b82116113645761126660085461146f565b601f8111611318575b508293601f83116001146112ac57509282938293926112a1575b50508160011b916000199060031b1c19161760085580f35b013590503880611289565b601f1983169460008051602061199c833981519152929185905b8782106113005750508360019596106112e6575b505050811b0160085580f35b0135600019600384901b60f8161c191690553880806112da565b806001849682949587013581550195019201906112c6565b60008051602061199c833981519152601f840160051c81019186851061135a575b601f0160051c01905b81811061134f575061126f565b848155600101611342565b9091508190611339565b634e487b7160e01b83526041600452602483fd5b9181601f840112156113a5578235916001600160401b0383116113a557602083818601950101116113a557565b600080fd5b600511156113b457565b634e487b7160e01b600052602160045260246000fd5b60005b8381106113dd5750506000910152565b81810151838201526020016113cd565b90602091611406815180928185528580860191016113ca565b601f01601f1916010190565b60e060a061146c936020845280516020850152600180831b03602082015116604085015260408101516060850152606081015160808501526080810151611458816113aa565b8285015201519160c08082015201906113ed565b90565b90600182811c9216801561149f575b602083101461148957565b634e487b7160e01b600052602260045260246000fd5b91607f169161147e565b60c081019081106001600160401b038211176114c457604052565b634e487b7160e01b600052604160045260246000fd5b604081019081106001600160401b038211176114c457604052565b90601f801991011681019081106001600160401b038211176114c457604052565b906040519182600082549261152a8461146f565b9081845260019485811690816000146115995750600114611556575b5050611554925003836114f5565b565b9093915060005260209081600020936000915b81831061158157505061155493508201013880611546565b85548884018501529485019487945091830191611569565b91505061155494506020925060ff191682840152151560051b8201013880611546565b6000546001600160a01b031633036115d057565b60405163118cdaa760e01b8152336004820152602490fd5b60001981146115f75760010190565b634e487b7160e01b600052601160045260246000fd5b60026001541461161e576002600155565b604051633ee5aeb560e01b8152600490fd5b1561163757565b60405162461bcd60e51b815260206004820152600c60248201526b27b7363c903932b630bcb2b960a11b6044820152606490fd5b1561167257565b60405162461bcd60e51b815260206004820152601160248201527014995c5d595cdd081b9bdd08199bdd5b99607a1b6044820152606490fd5b156116b257565b60405162461bcd60e51b815260206004820152600e60248201526d496e76616c69642073746174757360901b6044820152606490fd5b908060209392818452848401376000828201840152601f01601f1916010190565b6001600160401b0381116114c457601f01601f191660200190565b81601f820112156113a55780359061173b82611709565b9261174960405194856114f5565b828452602083830101116113a557816000926020809301838601378301015290565b80156118275780816000925b611813575061178582611709565b9161179360405193846114f5565b808352601f196117a282611709565b0190602091368386013791805b6117b95750505090565b600a9060309382820685018095116115f75780156115f75760001901809486518210156117fd5760f81b6001600160f81b03191660001a90860184015304806117af565b634e487b7160e01b600052603260045260246000fd5b9161181f600a916115e8565b920480611777565b50604051611834816114da565b60018152600360fc1b602082015290565b60ff16801561193b576001811461191057600281146118e557600381146118b45760041461188e57604051611879816114da565b600581526427ba3432b960d91b602082015290565b60405161189a816114da565b600a8152694672617564436c61696d60b01b602082015290565b506040516118c1816114da565b6014815273496e74656c6c65637475616c50726f706572747960601b602082015290565b506040516118f2816114da565b600e81526d5061796d656e744469737075746560901b602082015290565b5060405161191d816114da565b600e81526d536572766963655175616c69747960901b602082015290565b50604051611948816114da565b600e81526d086dedce8e4c2c6e884e4cac2c6d60931b602082015290565b60405190611973826114a9565b606060a08360008152600060208201526000604082015260008382015260006080820152015256fef3f7a9fe364faab93b216da50a3214154f22a0a2b415b23a84c8169e8b636ee3a26469706673582212208ab444f5bdb5205c00d8fea3f0e1b7968ede3298b0295a88f997897dbdd6c44c64736f6c63430008140033f3f7a9fe364faab93b216da50a3214154f22a0a2b415b23a84c8169e8b636ee3","opcodes":"PUSH1 0x80 CALLVALUE PUSH3 0x3AD JUMPI PUSH1 0x1F PUSH3 0x1DDA CODESIZE DUP2 SWAP1 SUB SWAP2 DUP3 ADD PUSH1 0x1F NOT AND DUP4 ADD SWAP2 PUSH1 0x1 PUSH1 0x1 PUSH1 0x40 SHL SUB DUP4 GT DUP5 DUP5 LT OR PUSH3 0x3B2 JUMPI DUP1 DUP5 SWAP3 PUSH1 0x20 SWAP5 PUSH1 0x40 MSTORE DUP4 CODECOPY DUP2 ADD SUB SLT PUSH3 0x3AD JUMPI MLOAD PUSH1 0x1 PUSH1 0x1 PUSH1 0xA0 SHL SUB SWAP1 DUP2 DUP2 AND SWAP1 DUP2 SWAP1 SUB PUSH3 0x3AD JUMPI CALLER ISZERO PUSH3 0x394 JUMPI PUSH1 0x0 SWAP1 DUP2 SLOAD PUSH1 0x1 DUP1 PUSH1 0xA0 SHL SUB NOT SWAP1 CALLER DUP3 DUP3 AND OR DUP5 SSTORE PUSH1 0x40 MLOAD SWAP5 CALLER SWAP2 AND PUSH32 0x8BE0079C531659141344CD1FD0A4F28419497F9722A3DAAFE3B4186F6B6457E0 DUP6 DUP1 LOG3 PUSH1 0x1 SWAP4 DUP5 DUP1 SSTORE PUSH7 0x38D7EA4C68000 PUSH1 0x5 SSTORE DUP3 ISZERO PUSH3 0x360 JUMPI POP PUSH1 0x3 SLOAD AND OR PUSH1 0x3 SSTORE PUSH1 0x8 SLOAD DUP3 DUP2 DUP2 SHR SWAP2 AND DUP1 ISZERO PUSH3 0x355 JUMPI JUMPDEST PUSH1 0x20 DUP3 LT EQ PUSH3 0x341 JUMPI PUSH1 0x1F DUP2 GT PUSH3 0x2EA JUMPI JUMPDEST PUSH2 0x1F9 PUSH1 0x8 SWAP1 DUP2 SSTORE DUP3 MSTORE PUSH32 0x416E616C797A652074686520666F6C6C6F77696E67206469737075746520616E PUSH1 0x0 DUP1 MLOAD PUSH1 0x20 PUSH3 0x1DBA DUP4 CODECOPY DUP2 MLOAD SWAP2 MSTORE SWAP1 DUP2 SSTORE PUSH32 0x642070726F7669646520612066616972207265736F6C7574696F6E2E20436F6E SWAP1 DUP5 ADD SSTORE PUSH32 0x736964657220616C6C207375626D69747465642065766964656E63652C207468 PUSH32 0xF3F7A9FE364FAAB93B216DA50A3214154F22A0A2B415B23A84C8169E8B636EE5 SSTORE PUSH32 0x6520646973707574652063617465676F72792C20616E64206170706C69636162 PUSH32 0xF3F7A9FE364FAAB93B216DA50A3214154F22A0A2B415B23A84C8169E8B636EE6 SSTORE PUSH32 0x6C65207374616E64617264732E2052657475726E2061207265736F6C7574696F PUSH32 0xF3F7A9FE364FAAB93B216DA50A3214154F22A0A2B415B23A84C8169E8B636EE7 SSTORE PUSH32 0x6E2028313D4661766F72436C61696D616E742C20323D4661766F72526573706F PUSH32 0xF3F7A9FE364FAAB93B216DA50A3214154F22A0A2B415B23A84C8169E8B636EE8 SSTORE PUSH32 0x6E64656E742C20333D53706C69742C20343D4469736D69737365642920616E64 PUSH32 0xF3F7A9FE364FAAB93B216DA50A3214154F22A0A2B415B23A84C8169E8B636EE9 SSTORE PUSH32 0x206120636F6E666964656E63652073636F72652028302D313030292E00000000 PUSH32 0xF3F7A9FE364FAAB93B216DA50A3214154F22A0A2B415B23A84C8169E8B636EEA SSTORE PUSH1 0x40 MLOAD PUSH2 0x19F1 SWAP1 DUP2 PUSH3 0x3C9 DUP3 CODECOPY RETURN JUMPDEST PUSH1 0x8 DUP3 MSTORE PUSH1 0x1F ADD PUSH1 0x5 SHR PUSH1 0x0 DUP1 MLOAD PUSH1 0x20 PUSH3 0x1DBA DUP4 CODECOPY DUP2 MLOAD SWAP2 MSTORE ADD PUSH32 0xF3F7A9FE364FAAB93B216DA50A3214154F22A0A2B415B23A84C8169E8B636EEB JUMPDEST DUP2 DUP2 LT PUSH3 0x336 JUMPI POP PUSH3 0xE5 JUMP JUMPDEST DUP3 DUP2 SSTORE DUP4 ADD PUSH3 0x327 JUMP JUMPDEST PUSH4 0x4E487B71 PUSH1 0xE0 SHL DUP3 MSTORE PUSH1 0x22 PUSH1 0x4 MSTORE PUSH1 0x24 DUP3 REVERT JUMPDEST SWAP1 PUSH1 0x7F AND SWAP1 PUSH3 0xD1 JUMP JUMPDEST PUSH3 0x461BCD PUSH1 0xE5 SHL DUP2 MSTORE PUSH1 0x20 PUSH1 0x4 DUP3 ADD MSTORE PUSH1 0xF PUSH1 0x24 DUP3 ADD MSTORE PUSH15 0x24B73B30B634B2103932B630BCB2B9 PUSH1 0x89 SHL PUSH1 0x44 DUP3 ADD MSTORE PUSH1 0x64 SWAP1 REVERT JUMPDEST PUSH1 0x40 MLOAD PUSH4 0x1E4FBDF7 PUSH1 0xE0 SHL DUP2 MSTORE PUSH1 0x0 PUSH1 0x4 DUP3 ADD MSTORE PUSH1 0x24 SWAP1 REVERT JUMPDEST PUSH1 0x0 DUP1 REVERT JUMPDEST PUSH4 0x4E487B71 PUSH1 0xE0 SHL PUSH1 0x0 MSTORE PUSH1 0x41 PUSH1 0x4 MSTORE PUSH1 0x24 PUSH1 0x0 REVERT INVALID PUSH1 0x80 PUSH1 0x40 MSTORE PUSH1 0x4 CALLDATASIZE LT ISZERO PUSH2 0x1B JUMPI JUMPDEST CALLDATASIZE ISZERO PUSH2 0x19 JUMPI PUSH1 0x0 DUP1 REVERT JUMPDEST STOP JUMPDEST PUSH1 0x0 DUP1 CALLDATALOAD PUSH1 0xE0 SHR DUP1 PUSH4 0x1672E694 EQ PUSH2 0x1218 JUMPI DUP1 PUSH4 0x476343EE EQ PUSH2 0x117F JUMPI DUP1 PUSH4 0x47BEB6FD EQ PUSH2 0xB52 JUMPI DUP1 PUSH4 0x5FE5392F EQ PUSH2 0xB09 JUMPI DUP1 PUSH4 0x6548E9BC EQ PUSH2 0xA5F JUMPI DUP1 PUSH4 0x685EA922 EQ PUSH2 0x9DD JUMPI DUP1 PUSH4 0x694ECB5F EQ PUSH2 0x9B4 JUMPI DUP1 PUSH4 0x715018A6 EQ PUSH2 0x95A JUMPI DUP1 PUSH4 0x7983F136 EQ PUSH2 0x729 JUMPI DUP1 PUSH4 0x8DA5CB5B EQ PUSH2 0x702 JUMPI DUP1 PUSH4 0x973A814E EQ PUSH2 0x6E4 JUMPI DUP1 PUSH4 0x9D866985 EQ PUSH2 0x65B JUMPI DUP1 PUSH4 0xA21D516C EQ PUSH2 0x525 JUMPI DUP1 PUSH4 0xAA95434E EQ PUSH2 0x4FB JUMPI DUP1 PUSH4 0xAD9514F0 EQ PUSH2 0x42B JUMPI DUP1 PUSH4 0xB6D9EF60 EQ PUSH2 0x3D5 JUMPI DUP1 PUSH4 0xBC2C81E9 EQ PUSH2 0x3B7 JUMPI DUP1 PUSH4 0xCAE4E7B5 EQ PUSH2 0x2D1 JUMPI DUP1 PUSH4 0xD1E93D14 EQ PUSH2 0x298 JUMPI DUP1 PUSH4 0xF2FDE38B EQ PUSH2 0x207 JUMPI DUP1 PUSH4 0xF46F96B2 EQ PUSH2 0x1DE JUMPI DUP1 PUSH4 0xF9CD3CEB EQ PUSH2 0x1C0 JUMPI PUSH4 0xFB1E61CA EQ PUSH2 0x124 JUMPI POP PUSH2 0xE JUMP JUMPDEST CALLVALUE PUSH2 0x1BD JUMPI PUSH1 0x20 CALLDATASIZE PUSH1 0x3 NOT ADD SLT PUSH2 0x1BD JUMPI PUSH1 0x40 PUSH2 0x1B9 SWAP2 PUSH2 0x143 PUSH2 0x1966 JUMP JUMPDEST POP PUSH1 0x4 CALLDATALOAD DUP2 MSTORE PUSH1 0x6 PUSH1 0x20 MSTORE KECCAK256 PUSH2 0x1A8 PUSH1 0x5 PUSH1 0x40 MLOAD SWAP3 PUSH2 0x161 DUP5 PUSH2 0x14A9 JUMP JUMPDEST DUP1 SLOAD DUP5 MSTORE PUSH1 0x1 DUP2 ADD SLOAD PUSH1 0x1 PUSH1 0x1 PUSH1 0xA0 SHL SUB AND PUSH1 0x20 DUP6 ADD MSTORE PUSH1 0x2 DUP2 ADD SLOAD PUSH1 0x40 DUP6 ADD MSTORE PUSH1 0x3 DUP2 ADD SLOAD PUSH1 0x60 DUP6 ADD MSTORE PUSH1 0x4 DUP2 ADD SLOAD PUSH1 0xFF AND PUSH2 0x19D DUP2 PUSH2 0x13AA JUMP JUMPDEST PUSH1 0x80 DUP6 ADD MSTORE ADD PUSH2 0x1516 JUMP JUMPDEST PUSH1 0xA0 DUP3 ADD MSTORE PUSH1 0x40 MLOAD SWAP2 DUP3 SWAP2 DUP3 PUSH2 0x1412 JUMP JUMPDEST SUB SWAP1 RETURN JUMPDEST DUP1 REVERT JUMPDEST POP CALLVALUE PUSH2 0x1BD JUMPI DUP1 PUSH1 0x3 NOT CALLDATASIZE ADD SLT PUSH2 0x1BD JUMPI PUSH1 0x20 PUSH1 0x5 SLOAD PUSH1 0x40 MLOAD SWAP1 DUP2 MSTORE RETURN JUMPDEST POP CALLVALUE PUSH2 0x1BD JUMPI DUP1 PUSH1 0x3 NOT CALLDATASIZE ADD SLT PUSH2 0x1BD JUMPI PUSH1 0x2 SLOAD PUSH1 0x40 MLOAD PUSH1 0x1 PUSH1 0x1 PUSH1 0xA0 SHL SUB SWAP1 SWAP2 AND DUP2 MSTORE PUSH1 0x20 SWAP1 RETURN JUMPDEST POP CALLVALUE PUSH2 0x1BD JUMPI PUSH1 0x20 CALLDATASIZE PUSH1 0x3 NOT ADD SLT PUSH2 0x1BD JUMPI PUSH1 0x4 CALLDATALOAD PUSH1 0x1 PUSH1 0x1 PUSH1 0xA0 SHL SUB DUP2 DUP2 AND SWAP2 DUP3 SWAP1 SUB PUSH2 0x294 JUMPI PUSH2 0x237 PUSH2 0x15BC JUMP JUMPDEST DUP2 ISZERO PUSH2 0x27B JUMPI PUSH1 0x0 SLOAD DUP3 PUSH1 0x1 PUSH1 0x1 PUSH1 0x60 SHL SUB PUSH1 0xA0 SHL DUP3 AND OR PUSH1 0x0 SSTORE AND PUSH32 0x8BE0079C531659141344CD1FD0A4F28419497F9722A3DAAFE3B4186F6B6457E0 PUSH1 0x0 DUP1 LOG3 DUP1 RETURN JUMPDEST PUSH1 0x40 MLOAD PUSH4 0x1E4FBDF7 PUSH1 0xE0 SHL DUP2 MSTORE PUSH1 0x4 DUP2 ADD DUP5 SWAP1 MSTORE PUSH1 0x24 SWAP1 REVERT JUMPDEST DUP3 DUP1 REVERT JUMPDEST POP CALLVALUE PUSH2 0x1BD JUMPI PUSH1 0x20 CALLDATASIZE PUSH1 0x3 NOT ADD SLT PUSH2 0x1BD JUMPI PUSH1 0xFF PUSH1 0x4 PUSH1 0x40 PUSH1 0x20 SWAP4 DUP3 CALLDATALOAD DUP2 MSTORE PUSH1 0x6 DUP6 MSTORE KECCAK256 ADD SLOAD AND PUSH2 0x2C8 DUP2 PUSH2 0x13AA JUMP JUMPDEST PUSH1 0x40 MLOAD SWAP1 ISZERO DUP2 MSTORE RETURN JUMPDEST POP CALLVALUE PUSH2 0x1BD JUMPI PUSH1 0x40 CALLDATASIZE PUSH1 0x3 NOT ADD SLT PUSH2 0x1BD JUMPI PUSH1 0x24 CALLDATALOAD PUSH1 0x4 CALLDATALOAD PUSH1 0x1 PUSH1 0x1 PUSH1 0x40 SHL SUB DUP3 GT PUSH2 0x294 JUMPI PUSH2 0x326 PUSH32 0x60147910B1499A2846ACEF7ED1435E1ED66E4392C90A06E52C2C88FF206BD17A SWAP3 CALLDATASIZE SWAP1 PUSH1 0x4 ADD PUSH2 0x1378 JUMP JUMPDEST SWAP3 SWAP1 PUSH2 0x33D PUSH1 0x1 DUP1 PUSH1 0xA0 SHL SUB PUSH1 0x3 SLOAD AND CALLER EQ PUSH2 0x1630 JUMP JUMPDEST DUP3 DUP6 MSTORE PUSH1 0x6 PUSH1 0x20 MSTORE PUSH1 0x40 DUP6 KECCAK256 SWAP4 PUSH1 0x4 DUP6 SLOAD SWAP6 PUSH2 0x35A DUP8 ISZERO ISZERO PUSH2 0x166B JUMP JUMPDEST ADD PUSH1 0x3 DUP2 SLOAD PUSH2 0x37F PUSH1 0xFF DUP3 AND PUSH2 0x36F DUP2 PUSH2 0x13AA JUMP JUMPDEST DUP1 ISZERO SWAP1 DUP2 ISZERO PUSH2 0x3A3 JUMPI JUMPDEST POP PUSH2 0x16AB JUMP JUMPDEST PUSH1 0xFF NOT AND OR SWAP1 SSTORE PUSH2 0x39D PUSH1 0x40 MLOAD SWAP3 DUP4 SWAP3 PUSH1 0x20 DUP5 MSTORE PUSH1 0x20 DUP5 ADD SWAP2 PUSH2 0x16E8 JUMP JUMPDEST SUB SWAP1 LOG3 DUP1 RETURN JUMPDEST PUSH1 0x1 SWAP2 POP PUSH2 0x3B0 DUP2 PUSH2 0x13AA JUMP JUMPDEST EQ CODESIZE PUSH2 0x379 JUMP JUMPDEST POP CALLVALUE PUSH2 0x1BD JUMPI DUP1 PUSH1 0x3 NOT CALLDATASIZE ADD SLT PUSH2 0x1BD JUMPI PUSH1 0x20 PUSH1 0x40 MLOAD PUSH3 0x15180 DUP2 MSTORE RETURN JUMPDEST POP CALLVALUE PUSH2 0x1BD JUMPI PUSH1 0x20 CALLDATASIZE PUSH1 0x3 NOT ADD SLT PUSH2 0x1BD JUMPI PUSH32 0x528D9479E9F9889A87A3C30C7F7BA537E5E59C4C85A37733B16E57C62DF61302 PUSH1 0x40 PUSH1 0x4 CALLDATALOAD PUSH2 0x415 PUSH2 0x15BC JUMP JUMPDEST PUSH1 0x5 SLOAD SWAP1 DUP1 PUSH1 0x5 SSTORE DUP3 MLOAD SWAP2 DUP3 MSTORE PUSH1 0x20 DUP3 ADD MSTORE LOG1 DUP1 RETURN JUMPDEST POP CALLVALUE PUSH2 0x1BD JUMPI DUP1 PUSH1 0x3 NOT CALLDATASIZE ADD SLT PUSH2 0x1BD JUMPI PUSH1 0x40 MLOAD PUSH1 0x0 PUSH1 0x8 SLOAD PUSH2 0x44D DUP2 PUSH2 0x146F JUMP JUMPDEST DUP1 DUP5 MSTORE SWAP1 PUSH1 0x1 SWAP1 DUP2 DUP2 AND SWAP1 DUP2 ISZERO PUSH2 0x4D4 JUMPI POP PUSH1 0x1 EQ PUSH2 0x48B JUMPI JUMPDEST PUSH2 0x1B9 DUP5 PUSH2 0x477 DUP2 DUP7 SUB DUP3 PUSH2 0x14F5 JUMP JUMPDEST PUSH1 0x40 MLOAD SWAP2 DUP3 SWAP2 PUSH1 0x20 DUP4 MSTORE PUSH1 0x20 DUP4 ADD SWAP1 PUSH2 0x13ED JUMP JUMPDEST PUSH1 0x8 PUSH1 0x0 SWAP1 DUP2 MSTORE SWAP3 POP PUSH1 0x0 DUP1 MLOAD PUSH1 0x20 PUSH2 0x199C DUP4 CODECOPY DUP2 MLOAD SWAP2 MSTORE JUMPDEST DUP3 DUP5 LT PUSH2 0x4BC JUMPI POP POP POP DUP2 ADD PUSH1 0x20 ADD PUSH2 0x477 DUP3 PUSH2 0x467 JUMP JUMPDEST DUP1 SLOAD PUSH1 0x20 DUP6 DUP8 ADD DUP2 ADD SWAP2 SWAP1 SWAP2 MSTORE SWAP1 SWAP4 ADD SWAP3 DUP2 ADD PUSH2 0x4A4 JUMP JUMPDEST PUSH1 0xFF NOT AND PUSH1 0x20 DUP1 DUP8 ADD SWAP2 SWAP1 SWAP2 MSTORE SWAP3 ISZERO ISZERO PUSH1 0x5 SHL DUP6 ADD SWAP1 SWAP3 ADD SWAP3 POP PUSH2 0x477 SWAP2 POP DUP4 SWAP1 POP PUSH2 0x467 JUMP JUMPDEST POP CALLVALUE PUSH2 0x1BD JUMPI PUSH1 0x20 CALLDATASIZE PUSH1 0x3 NOT ADD SLT PUSH2 0x1BD JUMPI PUSH1 0x40 PUSH1 0x20 SWAP2 PUSH1 0x4 CALLDATALOAD DUP2 MSTORE PUSH1 0x7 DUP4 MSTORE KECCAK256 SLOAD PUSH1 0x40 MLOAD SWAP1 DUP2 MSTORE RETURN JUMPDEST POP CALLVALUE PUSH2 0x1BD JUMPI PUSH1 0x20 DUP1 PUSH1 0x3 NOT CALLDATASIZE ADD SLT PUSH2 0x657 JUMPI PUSH1 0x4 CALLDATALOAD DUP1 DUP4 MSTORE PUSH1 0x6 DUP3 MSTORE PUSH1 0x40 DUP4 KECCAK256 SWAP2 DUP3 SLOAD SWAP3 PUSH2 0x555 DUP5 ISZERO ISZERO PUSH2 0x166B JUMP JUMPDEST PUSH1 0x4 DUP2 ADD SWAP1 DUP2 SLOAD SWAP1 PUSH1 0xFF DUP3 AND PUSH2 0x56A DUP2 PUSH2 0x13AA JUMP JUMPDEST PUSH2 0x624 JUMPI PUSH1 0x3 ADD SLOAD PUSH3 0x15180 DUP2 ADD DUP1 SWAP2 GT PUSH2 0x610 JUMPI TIMESTAMP GT ISZERO PUSH2 0x5DD JUMPI SWAP2 PUSH1 0x60 SWAP2 PUSH1 0x4 PUSH32 0x60147910B1499A2846ACEF7ED1435E1ED66E4392C90A06E52C2C88FF206BD17A SWAP5 PUSH1 0xFF NOT AND OR SWAP1 SSTORE PUSH1 0xF PUSH1 0x40 MLOAD SWAP2 DUP1 DUP4 MSTORE DUP3 ADD MSTORE PUSH15 0x14995C5D595CDD08195E1C1A5C9959 PUSH1 0x8A SHL PUSH1 0x40 DUP3 ADD MSTORE LOG3 DUP1 RETURN JUMPDEST PUSH1 0x40 MLOAD PUSH3 0x461BCD PUSH1 0xE5 SHL DUP2 MSTORE PUSH1 0x4 DUP2 ADD DUP5 SWAP1 MSTORE PUSH1 0xB PUSH1 0x24 DUP3 ADD MSTORE PUSH11 0x139BDD08195E1C1A5C9959 PUSH1 0xAA SHL PUSH1 0x44 DUP3 ADD MSTORE PUSH1 0x64 SWAP1 REVERT JUMPDEST PUSH4 0x4E487B71 PUSH1 0xE0 SHL DUP8 MSTORE PUSH1 0x11 PUSH1 0x4 MSTORE PUSH1 0x24 DUP8 REVERT JUMPDEST PUSH1 0x40 MLOAD PUSH3 0x461BCD PUSH1 0xE5 SHL DUP2 MSTORE PUSH1 0x4 DUP2 ADD DUP6 SWAP1 MSTORE PUSH1 0xB PUSH1 0x24 DUP3 ADD MSTORE PUSH11 0x4E6F742070656E64696E67 PUSH1 0xA8 SHL PUSH1 0x44 DUP3 ADD MSTORE PUSH1 0x64 SWAP1 REVERT JUMPDEST POP DUP1 REVERT JUMPDEST POP CALLVALUE PUSH2 0x1BD JUMPI PUSH1 0x20 CALLDATASIZE PUSH1 0x3 NOT ADD SLT PUSH2 0x1BD JUMPI PUSH1 0x40 SWAP1 PUSH1 0x4 CALLDATALOAD DUP2 MSTORE PUSH1 0x6 PUSH1 0x20 MSTORE KECCAK256 DUP1 SLOAD PUSH2 0x1B9 PUSH1 0x1 DUP1 PUSH1 0xA0 SHL SUB PUSH1 0x1 DUP5 ADD SLOAD AND SWAP3 PUSH1 0x2 DUP2 ADD SLOAD SWAP1 PUSH1 0x3 DUP2 ADD SLOAD PUSH2 0x6AD PUSH1 0x5 PUSH1 0xFF PUSH1 0x4 DUP6 ADD SLOAD AND SWAP4 ADD PUSH2 0x1516 JUMP JUMPDEST SWAP3 PUSH1 0x40 MLOAD SWAP7 DUP8 SWAP7 DUP8 MSTORE PUSH1 0x20 DUP8 ADD MSTORE PUSH1 0x40 DUP7 ADD MSTORE PUSH1 0x60 DUP6 ADD MSTORE PUSH2 0x6CE DUP2 PUSH2 0x13AA JUMP JUMPDEST PUSH1 0x80 DUP5 ADD MSTORE PUSH1 0xC0 PUSH1 0xA0 DUP5 ADD MSTORE PUSH1 0xC0 DUP4 ADD SWAP1 PUSH2 0x13ED JUMP JUMPDEST POP CALLVALUE PUSH2 0x1BD JUMPI DUP1 PUSH1 0x3 NOT CALLDATASIZE ADD SLT PUSH2 0x1BD JUMPI PUSH1 0x20 PUSH1 0x4 SLOAD PUSH1 0x40 MLOAD SWAP1 DUP2 MSTORE RETURN JUMPDEST POP CALLVALUE PUSH2 0x1BD JUMPI DUP1 PUSH1 0x3 NOT CALLDATASIZE ADD SLT PUSH2 0x1BD JUMPI SLOAD PUSH1 0x40 MLOAD PUSH1 0x1 PUSH1 0x1 PUSH1 0xA0 SHL SUB SWAP1 SWAP2 AND DUP2 MSTORE PUSH1 0x20 SWAP1 RETURN JUMPDEST POP CALLVALUE PUSH2 0x1BD JUMPI PUSH1 0x80 CALLDATASIZE PUSH1 0x3 NOT ADD SLT PUSH2 0x1BD JUMPI PUSH1 0x4 CALLDATALOAD PUSH1 0x24 CALLDATALOAD SWAP1 PUSH1 0xFF DUP3 AND DUP1 SWAP3 SUB PUSH2 0x294 JUMPI PUSH1 0x44 CALLDATALOAD SWAP2 PUSH1 0xFF DUP4 AND DUP1 SWAP4 SUB PUSH2 0x956 JUMPI PUSH1 0x1 PUSH1 0x1 PUSH1 0x40 SHL SUB PUSH1 0x64 CALLDATALOAD DUP2 DUP2 GT PUSH2 0x952 JUMPI PUSH2 0x77C SWAP1 CALLDATASIZE SWAP1 PUSH1 0x4 ADD PUSH2 0x1378 JUMP JUMPDEST SWAP2 PUSH1 0x1 DUP1 PUSH1 0xA0 SHL SUB PUSH2 0x793 DUP2 PUSH1 0x3 SLOAD AND CALLER EQ PUSH2 0x1630 JUMP JUMPDEST PUSH2 0x79B PUSH2 0x160D JUMP JUMPDEST DUP6 DUP9 MSTORE PUSH1 0x6 PUSH1 0x20 MSTORE PUSH1 0x40 DUP9 KECCAK256 SWAP4 PUSH2 0x7B4 DUP6 SLOAD ISZERO ISZERO PUSH2 0x166B JUMP JUMPDEST PUSH1 0x4 DUP6 ADD SWAP2 DUP3 SLOAD SWAP3 PUSH2 0x7D2 PUSH1 0xFF DUP6 AND PUSH2 0x7CC DUP2 PUSH2 0x13AA JUMP JUMPDEST ISZERO PUSH2 0x16AB JUMP JUMPDEST PUSH1 0x1 DUP9 LT ISZERO DUP1 PUSH2 0x947 JUMPI JUMPDEST ISZERO PUSH2 0x90D JUMPI PUSH1 0x64 DUP11 GT PUSH2 0x8D3 JUMPI PUSH1 0x2 DUP12 SWAP5 PUSH1 0xFF NOT AND OR SWAP1 SSTORE PUSH1 0x1 DUP7 ADD SLOAD AND PUSH2 0x804 DUP8 PUSH2 0x13AA JUMP JUMPDEST DUP1 EXTCODESIZE ISZERO PUSH2 0x294 JUMPI PUSH1 0x40 MLOAD PUSH4 0xB474FCD3 PUSH1 0xE0 SHL DUP2 MSTORE PUSH1 0x4 DUP2 ADD DUP10 SWAP1 MSTORE SWAP5 DUP6 SWAP3 DUP4 SWAP2 DUP6 SWAP2 DUP4 SWAP2 PUSH2 0x852 SWAP2 DUP15 PUSH2 0x836 DUP15 PUSH2 0x13AA JUMP JUMPDEST DUP14 PUSH1 0x24 DUP7 ADD MSTORE PUSH1 0x44 DUP6 ADD MSTORE PUSH1 0x80 PUSH1 0x64 DUP6 ADD MSTORE PUSH1 0x84 DUP5 ADD SWAP2 PUSH2 0x16E8 JUMP JUMPDEST SUB SWAP3 GAS CALL DUP1 ISZERO PUSH2 0x8C8 JUMPI PUSH2 0x89C JUMPI JUMPDEST POP POP PUSH32 0x818A4E65FF44DFA52546298DAD52E9CFC038F41A484CC9FB6355C6F2831249C5 SWAP2 PUSH1 0x40 SWAP2 SLOAD SWAP5 DUP3 MLOAD SWAP2 DUP3 MSTORE PUSH1 0x20 DUP3 ADD MSTORE LOG3 PUSH1 0x1 DUP1 SSTORE DUP1 RETURN JUMPDEST DUP2 SWAP7 SWAP3 SWAP7 GT PUSH2 0x8B4 JUMPI PUSH1 0x40 SWAP1 DUP2 MSTORE SWAP1 SWAP5 SWAP1 DUP3 SWAP1 PUSH2 0x861 JUMP JUMPDEST PUSH4 0x4E487B71 PUSH1 0xE0 SHL DUP3 MSTORE PUSH1 0x41 PUSH1 0x4 MSTORE PUSH1 0x24 DUP3 REVERT JUMPDEST PUSH1 0x40 MLOAD RETURNDATASIZE DUP10 DUP3 RETURNDATACOPY RETURNDATASIZE SWAP1 REVERT JUMPDEST PUSH1 0x40 MLOAD PUSH3 0x461BCD PUSH1 0xE5 SHL DUP2 MSTORE PUSH1 0x20 PUSH1 0x4 DUP3 ADD MSTORE PUSH1 0x12 PUSH1 0x24 DUP3 ADD MSTORE PUSH18 0x496E76616C696420636F6E666964656E6365 PUSH1 0x70 SHL PUSH1 0x44 DUP3 ADD MSTORE PUSH1 0x64 SWAP1 REVERT JUMPDEST PUSH1 0x40 MLOAD PUSH3 0x461BCD PUSH1 0xE5 SHL DUP2 MSTORE PUSH1 0x20 PUSH1 0x4 DUP3 ADD MSTORE PUSH1 0x12 PUSH1 0x24 DUP3 ADD MSTORE PUSH18 0x24B73B30B634B2103932B9B7B63ABA34B7B7 PUSH1 0x71 SHL PUSH1 0x44 DUP3 ADD MSTORE PUSH1 0x64 SWAP1 REVERT JUMPDEST POP PUSH1 0x4 DUP9 GT ISZERO PUSH2 0x7DD JUMP JUMPDEST DUP6 DUP1 REVERT JUMPDEST DUP4 DUP1 REVERT JUMPDEST POP CALLVALUE PUSH2 0x1BD JUMPI DUP1 PUSH1 0x3 NOT CALLDATASIZE ADD SLT PUSH2 0x1BD JUMPI PUSH2 0x973 PUSH2 0x15BC JUMP JUMPDEST DUP1 SLOAD PUSH1 0x1 PUSH1 0x1 PUSH1 0xA0 SHL SUB NOT DUP2 AND DUP3 SSTORE DUP2 SWAP1 PUSH1 0x1 PUSH1 0x1 PUSH1 0xA0 SHL SUB AND PUSH32 0x8BE0079C531659141344CD1FD0A4F28419497F9722A3DAAFE3B4186F6B6457E0 DUP3 DUP1 LOG3 DUP1 RETURN JUMPDEST POP CALLVALUE PUSH2 0x1BD JUMPI DUP1 PUSH1 0x3 NOT CALLDATASIZE ADD SLT PUSH2 0x1BD JUMPI PUSH1 0x3 SLOAD PUSH1 0x40 MLOAD PUSH1 0x1 PUSH1 0x1 PUSH1 0xA0 SHL SUB SWAP1 SWAP2 AND DUP2 MSTORE PUSH1 0x20 SWAP1 RETURN JUMPDEST POP CALLVALUE PUSH2 0x1BD JUMPI PUSH1 0x20 CALLDATASIZE PUSH1 0x3 NOT ADD SLT PUSH2 0x1BD JUMPI PUSH1 0x4 CALLDATALOAD PUSH1 0x1 PUSH1 0x1 PUSH1 0xA0 SHL SUB DUP2 AND SWAP1 DUP2 SWAP1 SUB PUSH2 0x657 JUMPI PUSH2 0xA0C PUSH2 0x15BC JUMP JUMPDEST DUP1 ISZERO PUSH2 0xA28 JUMPI PUSH1 0x1 PUSH1 0x1 PUSH1 0x60 SHL SUB PUSH1 0xA0 SHL PUSH1 0x2 SLOAD AND OR PUSH1 0x2 SSTORE DUP1 RETURN JUMPDEST PUSH1 0x40 MLOAD PUSH3 0x461BCD PUSH1 0xE5 SHL DUP2 MSTORE PUSH1 0x20 PUSH1 0x4 DUP3 ADD MSTORE PUSH1 0xF PUSH1 0x24 DUP3 ADD MSTORE PUSH15 0x496E76616C69642061646472657373 PUSH1 0x88 SHL PUSH1 0x44 DUP3 ADD MSTORE PUSH1 0x64 SWAP1 REVERT JUMPDEST POP CALLVALUE PUSH2 0x1BD JUMPI PUSH1 0x20 CALLDATASIZE PUSH1 0x3 NOT ADD SLT PUSH2 0x1BD JUMPI PUSH1 0x4 CALLDATALOAD PUSH1 0x1 PUSH1 0x1 PUSH1 0xA0 SHL SUB DUP2 DUP2 AND SWAP2 DUP3 SWAP1 SUB PUSH2 0x294 JUMPI PUSH2 0xA8F PUSH2 0x15BC JUMP JUMPDEST DUP2 ISZERO PUSH2 0xAD2 JUMPI PUSH1 0x3 SLOAD DUP3 PUSH1 0x1 PUSH1 0x1 PUSH1 0x60 SHL SUB PUSH1 0xA0 SHL DUP3 AND OR PUSH1 0x3 SSTORE AND PUSH32 0x605CA4E43489FB38B91AA63DD9147CD3847957694B080B9285EC898B34269F0C DUP4 DUP1 LOG3 DUP1 RETURN JUMPDEST PUSH1 0x40 MLOAD PUSH3 0x461BCD PUSH1 0xE5 SHL DUP2 MSTORE PUSH1 0x20 PUSH1 0x4 DUP3 ADD MSTORE PUSH1 0xF PUSH1 0x24 DUP3 ADD MSTORE PUSH15 0x24B73B30B634B2103932B630BCB2B9 PUSH1 0x89 SHL PUSH1 0x44 DUP3 ADD MSTORE PUSH1 0x64 SWAP1 REVERT JUMPDEST POP CALLVALUE PUSH2 0x1BD JUMPI PUSH1 0x20 CALLDATASIZE PUSH1 0x3 NOT ADD SLT PUSH2 0x1BD JUMPI PUSH1 0x40 PUSH2 0x1B9 SWAP2 PUSH2 0xB29 PUSH2 0x1966 JUMP JUMPDEST POP PUSH1 0x4 CALLDATALOAD DUP2 MSTORE PUSH1 0x7 PUSH1 0x20 MSTORE DUP2 DUP2 KECCAK256 SLOAD DUP2 MSTORE PUSH1 0x6 PUSH1 0x20 MSTORE KECCAK256 PUSH2 0x1A8 PUSH1 0x5 PUSH1 0x40 MLOAD SWAP3 PUSH2 0x161 DUP5 PUSH2 0x14A9 JUMP JUMPDEST POP PUSH1 0x40 CALLDATASIZE PUSH1 0x3 NOT ADD SLT PUSH2 0x1BD JUMPI PUSH1 0x24 CALLDATALOAD PUSH1 0x1 PUSH1 0x1 PUSH1 0x40 SHL SUB DUP2 GT PUSH2 0x657 JUMPI PUSH2 0xB7E SWAP1 CALLDATASIZE SWAP1 PUSH1 0x4 ADD PUSH2 0x1378 JUMP JUMPDEST PUSH1 0x2 SLOAD PUSH1 0x1 PUSH1 0x1 PUSH1 0xA0 SHL SUB AND CALLER SUB PUSH2 0x1142 JUMPI PUSH2 0xB98 PUSH2 0x160D JUMP JUMPDEST PUSH1 0x5 SLOAD CALLVALUE LT PUSH2 0x110A JUMPI PUSH1 0x4 CALLDATALOAD DUP4 MSTORE PUSH1 0x7 PUSH1 0x20 MSTORE PUSH1 0x40 DUP4 KECCAK256 SLOAD PUSH2 0x10D4 JUMPI PUSH2 0xBBF PUSH1 0x4 SLOAD PUSH2 0x15E8 JUMP JUMPDEST DUP1 PUSH1 0x4 SSTORE PUSH1 0x0 NOT NUMBER ADD NUMBER DUP2 GT PUSH2 0x10C0 JUMPI PUSH1 0x40 MLOAD SWAP1 PUSH1 0x20 DUP3 ADD SWAP3 PUSH1 0x4 CALLDATALOAD DUP5 MSTORE PUSH1 0x40 DUP4 ADD MSTORE TIMESTAMP PUSH1 0x60 DUP4 ADD MSTORE BLOCKHASH PUSH1 0x80 DUP3 ADD MSTORE PUSH1 0x80 DUP2 MSTORE PUSH1 0xA0 DUP2 ADD DUP2 DUP2 LT PUSH1 0x1 PUSH1 0x1 PUSH1 0x40 SHL SUB DUP3 GT OR PUSH2 0xFED JUMPI PUSH1 0x40 MSTORE MLOAD SWAP1 KECCAK256 SWAP2 PUSH1 0x80 DUP2 DUP4 DUP2 ADD SUB SLT PUSH2 0x956 JUMPI PUSH1 0x20 DUP2 ADD CALLDATALOAD PUSH1 0xFF DUP2 AND SWAP1 SUB PUSH2 0x956 JUMPI PUSH1 0x40 DUP2 ADD CALLDATALOAD PUSH1 0x1 PUSH1 0x1 PUSH1 0x40 SHL SUB DUP2 GT PUSH2 0x10BC JUMPI PUSH2 0xC4C SWAP1 DUP4 DUP4 ADD SWAP1 DUP4 ADD PUSH2 0x1724 JUMP JUMPDEST SWAP1 PUSH1 0x60 DUP2 ADD CALLDATALOAD PUSH1 0x1 PUSH1 0x1 PUSH1 0x40 SHL SUB DUP2 GT PUSH2 0x952 JUMPI DUP4 DUP3 ADD PUSH1 0x1F DUP3 DUP5 ADD ADD SLT ISZERO PUSH2 0x952 JUMPI DUP1 DUP3 ADD CALLDATALOAD SWAP4 PUSH1 0x1 PUSH1 0x1 PUSH1 0x40 SHL SUB DUP6 GT PUSH2 0x10A8 JUMPI DUP5 PUSH1 0x5 SHL SWAP1 PUSH1 0x40 MLOAD SWAP6 PUSH2 0xC98 PUSH1 0x20 DUP5 ADD DUP9 PUSH2 0x14F5 JUMP JUMPDEST DUP7 MSTORE PUSH1 0x20 DUP7 ADD SWAP1 DUP1 DUP6 ADD PUSH1 0x20 DUP5 DUP7 DUP9 ADD ADD ADD GT PUSH2 0x10A4 JUMPI PUSH1 0x20 DUP5 DUP7 ADD ADD SWAP2 JUMPDEST PUSH1 0x20 DUP5 DUP7 DUP9 ADD ADD ADD DUP4 LT PUSH2 0x106C JUMPI POP POP POP POP POP PUSH2 0xCEB PUSH2 0xCE4 PUSH1 0x20 PUSH2 0xCDC DUP5 CALLDATALOAD PUSH2 0x176B JUMP JUMPDEST SWAP4 ADD CALLDATALOAD PUSH2 0x1845 JUMP JUMPDEST SWAP4 MLOAD PUSH2 0x176B JUMP JUMPDEST SWAP2 PUSH1 0x40 MLOAD SWAP4 DUP5 SWAP3 DUP8 PUSH1 0x8 SLOAD PUSH2 0xCFF DUP2 PUSH2 0x146F JUMP JUMPDEST SWAP1 PUSH1 0x1 DUP2 AND SWAP1 DUP2 ISZERO PUSH2 0x1049 JUMPI POP PUSH1 0x1 EQ PUSH2 0x1001 JUMPI JUMPDEST POP SWAP2 PUSH1 0x3D SWAP5 SWAP4 SWAP2 PUSH2 0xDDB SWAP7 SWAP4 PUSH13 0x5052234B9B83ABA329024A21D1 PUSH1 0x95 SHL DUP2 MSTORE PUSH2 0xD47 DUP3 MLOAD DUP1 SWAP4 PUSH1 0x20 PUSH1 0xE DUP6 ADD SWAP2 ADD PUSH2 0x13CA JUMP JUMPDEST ADD PUSH10 0x521B0BA32B3B7B93C9D1 PUSH1 0xAD SHL PUSH1 0xE DUP3 ADD MSTORE PUSH2 0xD6F DUP3 MLOAD DUP1 SWAP4 PUSH1 0x20 PUSH1 0x19 DUP6 ADD SWAP2 ADD PUSH2 0x13CA JUMP JUMPDEST ADD PUSH18 0x52232B9B1B934B83A34B7B71024A823299D1 PUSH1 0x6D SHL PUSH1 0x19 DUP3 ADD MSTORE PUSH2 0xD9F DUP3 MLOAD DUP1 SWAP4 PUSH1 0x20 PUSH1 0x2C DUP6 ADD SWAP2 ADD PUSH2 0x13CA JUMP JUMPDEST ADD PUSH16 0x522BB34B232B731B29031B7BAB73A1D1 PUSH1 0x7D SHL PUSH1 0x2C DUP3 ADD MSTORE PUSH2 0xDCC DUP3 MLOAD DUP1 SWAP4 PUSH1 0x20 DUP8 DUP6 ADD SWAP2 ADD PUSH2 0x13CA JUMP JUMPDEST ADD SUB PUSH1 0x1D DUP2 ADD DUP5 MSTORE ADD DUP3 PUSH2 0x14F5 JUMP JUMPDEST PUSH1 0x2 SLOAD PUSH1 0x40 MLOAD SWAP1 PUSH1 0x1 PUSH1 0x1 PUSH1 0xA0 SHL SUB AND PUSH2 0xDF4 DUP3 PUSH2 0x14A9 JUMP JUMPDEST PUSH1 0x4 CALLDATALOAD DUP3 MSTORE PUSH1 0x20 DUP3 ADD MSTORE DUP3 PUSH1 0x40 DUP3 ADD MSTORE TIMESTAMP PUSH1 0x60 DUP3 ADD MSTORE DUP4 PUSH1 0x80 DUP3 ADD MSTORE DUP2 PUSH1 0xA0 DUP3 ADD MSTORE DUP3 DUP5 MSTORE PUSH1 0x6 PUSH1 0x20 MSTORE PUSH1 0xA0 PUSH1 0x5 PUSH1 0x40 DUP7 KECCAK256 DUP4 MLOAD DUP2 SSTORE PUSH1 0x1 DUP2 ADD PUSH1 0x1 DUP1 DUP6 SHL SUB PUSH1 0x20 DUP7 ADD MLOAD AND PUSH1 0x1 PUSH1 0x1 PUSH1 0x60 SHL SUB DUP6 SHL DUP3 SLOAD AND OR SWAP1 SSTORE PUSH1 0x40 DUP5 ADD MLOAD PUSH1 0x2 DUP3 ADD SSTORE PUSH1 0x60 DUP5 ADD MLOAD PUSH1 0x3 DUP3 ADD SSTORE PUSH1 0x4 DUP2 ADD PUSH1 0x80 DUP6 ADD MLOAD PUSH2 0xE70 DUP2 PUSH2 0x13AA JUMP JUMPDEST PUSH2 0xE79 DUP2 PUSH2 0x13AA JUMP JUMPDEST PUSH1 0xFF DUP1 NOT DUP4 SLOAD AND SWAP2 AND OR SWAP1 SSTORE ADD SWAP2 ADD MLOAD SWAP1 DUP2 MLOAD PUSH1 0x1 PUSH1 0x1 PUSH1 0x40 SHL SUB DUP2 GT PUSH2 0xFED JUMPI PUSH2 0xEA4 DUP3 SLOAD PUSH2 0x146F JUMP JUMPDEST PUSH1 0x1F DUP2 GT PUSH2 0xFA8 JUMPI JUMPDEST POP SWAP5 DUP5 SWAP2 PUSH1 0x20 SWAP7 DUP8 SWAP5 PUSH1 0x1F DUP3 GT PUSH1 0x1 EQ PUSH2 0xF41 JUMPI PUSH1 0x40 SWAP5 SWAP6 DUP3 SWAP2 DUP6 SWAP3 PUSH2 0xF36 JUMPI JUMPDEST POP POP DUP2 PUSH1 0x1 SHL SWAP2 PUSH1 0x0 NOT SWAP1 PUSH1 0x3 SHL SHR NOT AND OR SWAP1 SSTORE JUMPDEST PUSH1 0x4 CALLDATALOAD DUP2 MSTORE PUSH1 0x7 DUP7 MSTORE KECCAK256 SSTORE DUP2 PUSH32 0x5232C86B785C7EDDDE175CE2CB0069F4B340D44398B8F5E233600C2028BA8C07 PUSH1 0x40 MLOAD DUP6 DUP2 MSTORE DUP1 PUSH2 0xF27 PUSH1 0x4 CALLDATALOAD SWAP6 DUP9 DUP4 ADD SWAP1 PUSH2 0x13ED JUMP JUMPDEST SUB SWAP1 LOG3 PUSH1 0x1 DUP1 SSTORE PUSH1 0x40 MLOAD SWAP1 DUP2 MSTORE RETURN JUMPDEST ADD MLOAD SWAP1 POP CODESIZE DUP1 PUSH2 0xECE JUMP JUMPDEST DUP3 DUP5 MSTORE DUP9 DUP5 KECCAK256 SWAP1 PUSH1 0x1F NOT DUP4 AND DUP6 JUMPDEST DUP2 DUP2 LT PUSH2 0xF8E JUMPI POP SWAP7 DUP4 SWAP3 SWAP2 PUSH1 0x1 SWAP5 PUSH1 0x40 SWAP9 SWAP10 LT PUSH2 0xF75 JUMPI JUMPDEST POP POP POP DUP2 SHL ADD SWAP1 SSTORE PUSH2 0xEE3 JUMP JUMPDEST ADD MLOAD PUSH1 0x0 NOT PUSH1 0xF8 DUP5 PUSH1 0x3 SHL AND SHR NOT AND SWAP1 SSTORE CODESIZE DUP1 DUP1 PUSH2 0xF68 JUMP JUMPDEST DUP3 DUP10 ADD MLOAD DUP5 SSTORE SWAP8 DUP12 ADD SWAP8 DUP11 SWAP8 POP PUSH1 0x1 SWAP1 SWAP4 ADD SWAP3 DUP12 ADD PUSH2 0xF4F JUMP JUMPDEST DUP3 DUP8 MSTORE PUSH1 0x20 DUP8 KECCAK256 PUSH1 0x1F DUP4 ADD PUSH1 0x5 SHR DUP2 ADD SWAP2 PUSH1 0x20 DUP5 LT PUSH2 0xFE3 JUMPI JUMPDEST PUSH1 0x1F ADD PUSH1 0x5 SHR ADD SWAP1 JUMPDEST DUP2 DUP2 LT PUSH2 0xFD8 JUMPI POP PUSH2 0xEAD JUMP JUMPDEST DUP8 DUP2 SSTORE PUSH1 0x1 ADD PUSH2 0xFCB JUMP JUMPDEST SWAP1 SWAP2 POP DUP2 SWAP1 PUSH2 0xFC2 JUMP JUMPDEST PUSH4 0x4E487B71 PUSH1 0xE0 SHL DUP7 MSTORE PUSH1 0x41 PUSH1 0x4 MSTORE PUSH1 0x24 DUP7 REVERT JUMPDEST PUSH1 0x8 DUP11 MSTORE SWAP1 POP DUP9 PUSH1 0x0 DUP1 MLOAD PUSH1 0x20 PUSH2 0x199C DUP4 CODECOPY DUP2 MLOAD SWAP2 MSTORE JUMPDEST DUP3 DUP3 LT PUSH2 0x102D JUMPI POP POP DUP5 ADD PUSH1 0x20 ADD PUSH1 0x3D PUSH2 0xD14 JUMP JUMPDEST DUP1 SLOAD PUSH1 0x20 DUP4 DUP12 ADD DUP2 ADD SWAP2 SWAP1 SWAP2 MSTORE DUP10 SWAP8 POP SWAP1 SWAP2 ADD SWAP1 PUSH1 0x1 ADD PUSH2 0x1018 JUMP JUMPDEST PUSH1 0xFF NOT AND PUSH1 0x20 DUP9 DUP2 ADD SWAP2 SWAP1 SWAP2 MSTORE DUP3 ISZERO ISZERO SWAP1 SWAP3 MUL DUP8 ADD SWAP1 SWAP2 ADD SWAP2 POP PUSH1 0x3D SWAP1 POP PUSH2 0xD14 JUMP JUMPDEST PUSH1 0x1 PUSH1 0x1 PUSH1 0x40 SHL SUB DUP4 CALLDATALOAD GT PUSH2 0x10A0 JUMPI PUSH1 0x20 DUP1 DUP1 SWAP3 PUSH2 0x1093 DUP6 DUP11 ADD DUP4 DUP9 CALLDATALOAD DUP12 DUP14 ADD ADD ADD PUSH2 0x1724 JUMP JUMPDEST DUP2 MSTORE ADD SWAP4 ADD SWAP3 SWAP1 POP PUSH2 0xCB7 JUMP JUMPDEST DUP10 DUP1 REVERT JUMPDEST DUP9 DUP1 REVERT JUMPDEST PUSH4 0x4E487B71 PUSH1 0xE0 SHL DUP8 MSTORE PUSH1 0x41 PUSH1 0x4 MSTORE PUSH1 0x24 DUP8 REVERT JUMPDEST DUP5 DUP1 REVERT JUMPDEST PUSH4 0x4E487B71 PUSH1 0xE0 SHL DUP6 MSTORE PUSH1 0x11 PUSH1 0x4 MSTORE PUSH1 0x24 DUP6 REVERT JUMPDEST PUSH1 0x40 MLOAD PUSH3 0x461BCD PUSH1 0xE5 SHL DUP2 MSTORE PUSH1 0x20 PUSH1 0x4 DUP3 ADD MSTORE PUSH1 0xE PUSH1 0x24 DUP3 ADD MSTORE PUSH14 0x5265717565737420657869737473 PUSH1 0x90 SHL PUSH1 0x44 DUP3 ADD MSTORE PUSH1 0x64 SWAP1 REVERT JUMPDEST PUSH1 0x40 MLOAD PUSH3 0x461BCD PUSH1 0xE5 SHL DUP2 MSTORE PUSH1 0x20 PUSH1 0x4 DUP3 ADD MSTORE PUSH1 0x10 PUSH1 0x24 DUP3 ADD MSTORE PUSH16 0x496E73756666696369656E7420666565 PUSH1 0x80 SHL PUSH1 0x44 DUP3 ADD MSTORE PUSH1 0x64 SWAP1 REVERT JUMPDEST PUSH1 0x40 MLOAD PUSH3 0x461BCD PUSH1 0xE5 SHL DUP2 MSTORE PUSH1 0x20 PUSH1 0x4 DUP3 ADD MSTORE PUSH1 0x15 PUSH1 0x24 DUP3 ADD MSTORE PUSH21 0x13DB9B1E48191A5CDC1D5D194818DBDB9D1C9858DD PUSH1 0x5A SHL PUSH1 0x44 DUP3 ADD MSTORE PUSH1 0x64 SWAP1 REVERT JUMPDEST POP CALLVALUE PUSH2 0x1BD JUMPI DUP1 PUSH1 0x3 NOT CALLDATASIZE ADD SLT PUSH2 0x1BD JUMPI PUSH2 0x1198 PUSH2 0x15BC JUMP JUMPDEST DUP1 DUP1 DUP1 DUP1 PUSH1 0x1 DUP1 PUSH1 0xA0 SHL SUB DUP2 SLOAD AND SELFBALANCE SWAP1 GAS CALL RETURNDATASIZE ISZERO PUSH2 0x1213 JUMPI RETURNDATASIZE PUSH2 0x11BA DUP2 PUSH2 0x1709 JUMP JUMPDEST SWAP1 PUSH2 0x11C8 PUSH1 0x40 MLOAD SWAP3 DUP4 PUSH2 0x14F5 JUMP JUMPDEST DUP2 MSTORE DUP3 PUSH1 0x20 RETURNDATASIZE SWAP3 ADD RETURNDATACOPY JUMPDEST ISZERO PUSH2 0x11DA JUMPI DUP1 RETURN JUMPDEST PUSH1 0x40 MLOAD PUSH3 0x461BCD PUSH1 0xE5 SHL DUP2 MSTORE PUSH1 0x20 PUSH1 0x4 DUP3 ADD MSTORE PUSH1 0x11 PUSH1 0x24 DUP3 ADD MSTORE PUSH17 0x15DA5D1A191C985DD85B0819985A5B1959 PUSH1 0x7A SHL PUSH1 0x44 DUP3 ADD MSTORE PUSH1 0x64 SWAP1 REVERT JUMPDEST PUSH2 0x11D2 JUMP JUMPDEST POP CALLVALUE PUSH2 0x1BD JUMPI PUSH1 0x20 SWAP1 DUP2 PUSH1 0x3 NOT CALLDATASIZE ADD SLT PUSH2 0x1BD JUMPI PUSH1 0x1 PUSH1 0x1 PUSH1 0x40 SHL SUB PUSH1 0x4 CALLDATALOAD DUP2 DUP2 GT PUSH2 0x294 JUMPI PUSH2 0x124C SWAP1 CALLDATASIZE SWAP1 PUSH1 0x4 ADD PUSH2 0x1378 JUMP JUMPDEST SWAP2 PUSH2 0x1255 PUSH2 0x15BC JUMP JUMPDEST DUP3 GT PUSH2 0x1364 JUMPI PUSH2 0x1266 PUSH1 0x8 SLOAD PUSH2 0x146F JUMP JUMPDEST PUSH1 0x1F DUP2 GT PUSH2 0x1318 JUMPI JUMPDEST POP DUP3 SWAP4 PUSH1 0x1F DUP4 GT PUSH1 0x1 EQ PUSH2 0x12AC JUMPI POP SWAP3 DUP3 SWAP4 DUP3 SWAP4 SWAP3 PUSH2 0x12A1 JUMPI JUMPDEST POP POP DUP2 PUSH1 0x1 SHL SWAP2 PUSH1 0x0 NOT SWAP1 PUSH1 0x3 SHL SHR NOT AND OR PUSH1 0x8 SSTORE DUP1 RETURN JUMPDEST ADD CALLDATALOAD SWAP1 POP CODESIZE DUP1 PUSH2 0x1289 JUMP JUMPDEST PUSH1 0x1F NOT DUP4 AND SWAP5 PUSH1 0x0 DUP1 MLOAD PUSH1 0x20 PUSH2 0x199C DUP4 CODECOPY DUP2 MLOAD SWAP2 MSTORE SWAP3 SWAP2 DUP6 SWAP1 JUMPDEST DUP8 DUP3 LT PUSH2 0x1300 JUMPI POP POP DUP4 PUSH1 0x1 SWAP6 SWAP7 LT PUSH2 0x12E6 JUMPI JUMPDEST POP POP POP DUP2 SHL ADD PUSH1 0x8 SSTORE DUP1 RETURN JUMPDEST ADD CALLDATALOAD PUSH1 0x0 NOT PUSH1 0x3 DUP5 SWAP1 SHL PUSH1 0xF8 AND SHR NOT AND SWAP1 SSTORE CODESIZE DUP1 DUP1 PUSH2 0x12DA JUMP JUMPDEST DUP1 PUSH1 0x1 DUP5 SWAP7 DUP3 SWAP5 SWAP6 DUP8 ADD CALLDATALOAD DUP2 SSTORE ADD SWAP6 ADD SWAP3 ADD SWAP1 PUSH2 0x12C6 JUMP JUMPDEST PUSH1 0x0 DUP1 MLOAD PUSH1 0x20 PUSH2 0x199C DUP4 CODECOPY DUP2 MLOAD SWAP2 MSTORE PUSH1 0x1F DUP5 ADD PUSH1 0x5 SHR DUP2 ADD SWAP2 DUP7 DUP6 LT PUSH2 0x135A JUMPI JUMPDEST PUSH1 0x1F ADD PUSH1 0x5 SHR ADD SWAP1 JUMPDEST DUP2 DUP2 LT PUSH2 0x134F JUMPI POP PUSH2 0x126F JUMP JUMPDEST DUP5 DUP2 SSTORE PUSH1 0x1 ADD PUSH2 0x1342 JUMP JUMPDEST SWAP1 SWAP2 POP DUP2 SWAP1 PUSH2 0x1339 JUMP JUMPDEST PUSH4 0x4E487B71 PUSH1 0xE0 SHL DUP4 MSTORE PUSH1 0x41 PUSH1 0x4 MSTORE PUSH1 0x24 DUP4 REVERT JUMPDEST SWAP2 DUP2 PUSH1 0x1F DUP5 ADD SLT ISZERO PUSH2 0x13A5 JUMPI DUP3 CALLDATALOAD SWAP2 PUSH1 0x1 PUSH1 0x1 PUSH1 0x40 SHL SUB DUP4 GT PUSH2 0x13A5 JUMPI PUSH1 0x20 DUP4 DUP2 DUP7 ADD SWAP6 ADD ADD GT PUSH2 0x13A5 JUMPI JUMP JUMPDEST PUSH1 0x0 DUP1 REVERT JUMPDEST PUSH1 0x5 GT ISZERO PUSH2 0x13B4 JUMPI JUMP JUMPDEST PUSH4 0x4E487B71 PUSH1 0xE0 SHL PUSH1 0x0 MSTORE PUSH1 0x21 PUSH1 0x4 MSTORE PUSH1 0x24 PUSH1 0x0 REVERT JUMPDEST PUSH1 0x0 JUMPDEST DUP4 DUP2 LT PUSH2 0x13DD JUMPI POP POP PUSH1 0x0 SWAP2 ADD MSTORE JUMP JUMPDEST DUP2 DUP2 ADD MLOAD DUP4 DUP3 ADD MSTORE PUSH1 0x20 ADD PUSH2 0x13CD JUMP JUMPDEST SWAP1 PUSH1 0x20 SWAP2 PUSH2 0x1406 DUP2 MLOAD DUP1 SWAP3 DUP2 DUP6 MSTORE DUP6 DUP1 DUP7 ADD SWAP2 ADD PUSH2 0x13CA JUMP JUMPDEST PUSH1 0x1F ADD PUSH1 0x1F NOT AND ADD ADD SWAP1 JUMP JUMPDEST PUSH1 0xE0 PUSH1 0xA0 PUSH2 0x146C SWAP4 PUSH1 0x20 DUP5 MSTORE DUP1 MLOAD PUSH1 0x20 DUP6 ADD MSTORE PUSH1 0x1 DUP1 DUP4 SHL SUB PUSH1 0x20 DUP3 ADD MLOAD AND PUSH1 0x40 DUP6 ADD MSTORE PUSH1 0x40 DUP2 ADD MLOAD PUSH1 0x60 DUP6 ADD MSTORE PUSH1 0x60 DUP2 ADD MLOAD PUSH1 0x80 DUP6 ADD MSTORE PUSH1 0x80 DUP2 ADD MLOAD PUSH2 0x1458 DUP2 PUSH2 0x13AA JUMP JUMPDEST DUP3 DUP6 ADD MSTORE ADD MLOAD SWAP2 PUSH1 0xC0 DUP1 DUP3 ADD MSTORE ADD SWAP1 PUSH2 0x13ED JUMP JUMPDEST SWAP1 JUMP JUMPDEST SWAP1 PUSH1 0x1 DUP3 DUP2 SHR SWAP3 AND DUP1 ISZERO PUSH2 0x149F JUMPI JUMPDEST PUSH1 0x20 DUP4 LT EQ PUSH2 0x1489 JUMPI JUMP JUMPDEST PUSH4 0x4E487B71 PUSH1 0xE0 SHL PUSH1 0x0 MSTORE PUSH1 0x22 PUSH1 0x4 MSTORE PUSH1 0x24 PUSH1 0x0 REVERT JUMPDEST SWAP2 PUSH1 0x7F AND SWAP2 PUSH2 0x147E JUMP JUMPDEST PUSH1 0xC0 DUP2 ADD SWAP1 DUP2 LT PUSH1 0x1 PUSH1 0x1 PUSH1 0x40 SHL SUB DUP3 GT OR PUSH2 0x14C4 JUMPI PUSH1 0x40 MSTORE JUMP JUMPDEST PUSH4 0x4E487B71 PUSH1 0xE0 SHL PUSH1 0x0 MSTORE PUSH1 0x41 PUSH1 0x4 MSTORE PUSH1 0x24 PUSH1 0x0 REVERT JUMPDEST PUSH1 0x40 DUP2 ADD SWAP1 DUP2 LT PUSH1 0x1 PUSH1 0x1 PUSH1 0x40 SHL SUB DUP3 GT OR PUSH2 0x14C4 JUMPI PUSH1 0x40 MSTORE JUMP JUMPDEST SWAP1 PUSH1 0x1F DUP1 NOT SWAP2 ADD AND DUP2 ADD SWAP1 DUP2 LT PUSH1 0x1 PUSH1 0x1 PUSH1 0x40 SHL SUB DUP3 GT OR PUSH2 0x14C4 JUMPI PUSH1 0x40 MSTORE JUMP JUMPDEST SWAP1 PUSH1 0x40 MLOAD SWAP2 DUP3 PUSH1 0x0 DUP3 SLOAD SWAP3 PUSH2 0x152A DUP5 PUSH2 0x146F JUMP JUMPDEST SWAP1 DUP2 DUP5 MSTORE PUSH1 0x1 SWAP5 DUP6 DUP2 AND SWAP1 DUP2 PUSH1 0x0 EQ PUSH2 0x1599 JUMPI POP PUSH1 0x1 EQ PUSH2 0x1556 JUMPI JUMPDEST POP POP PUSH2 0x1554 SWAP3 POP SUB DUP4 PUSH2 0x14F5 JUMP JUMPDEST JUMP JUMPDEST SWAP1 SWAP4 SWAP2 POP PUSH1 0x0 MSTORE PUSH1 0x20 SWAP1 DUP2 PUSH1 0x0 KECCAK256 SWAP4 PUSH1 0x0 SWAP2 JUMPDEST DUP2 DUP4 LT PUSH2 0x1581 JUMPI POP POP PUSH2 0x1554 SWAP4 POP DUP3 ADD ADD CODESIZE DUP1 PUSH2 0x1546 JUMP JUMPDEST DUP6 SLOAD DUP9 DUP5 ADD DUP6 ADD MSTORE SWAP5 DUP6 ADD SWAP5 DUP8 SWAP5 POP SWAP2 DUP4 ADD SWAP2 PUSH2 0x1569 JUMP JUMPDEST SWAP2 POP POP PUSH2 0x1554 SWAP5 POP PUSH1 0x20 SWAP3 POP PUSH1 0xFF NOT AND DUP3 DUP5 ADD MSTORE ISZERO ISZERO PUSH1 0x5 SHL DUP3 ADD ADD CODESIZE DUP1 PUSH2 0x1546 JUMP JUMPDEST PUSH1 0x0 SLOAD PUSH1 0x1 PUSH1 0x1 PUSH1 0xA0 SHL SUB AND CALLER SUB PUSH2 0x15D0 JUMPI JUMP JUMPDEST PUSH1 0x40 MLOAD PUSH4 0x118CDAA7 PUSH1 0xE0 SHL DUP2 MSTORE CALLER PUSH1 0x4 DUP3 ADD MSTORE PUSH1 0x24 SWAP1 REVERT JUMPDEST PUSH1 0x0 NOT DUP2 EQ PUSH2 0x15F7 JUMPI PUSH1 0x1 ADD SWAP1 JUMP JUMPDEST PUSH4 0x4E487B71 PUSH1 0xE0 SHL PUSH1 0x0 MSTORE PUSH1 0x11 PUSH1 0x4 MSTORE PUSH1 0x24 PUSH1 0x0 REVERT JUMPDEST PUSH1 0x2 PUSH1 0x1 SLOAD EQ PUSH2 0x161E JUMPI PUSH1 0x2 PUSH1 0x1 SSTORE JUMP JUMPDEST PUSH1 0x40 MLOAD PUSH4 0x3EE5AEB5 PUSH1 0xE0 SHL DUP2 MSTORE PUSH1 0x4 SWAP1 REVERT JUMPDEST ISZERO PUSH2 0x1637 JUMPI JUMP JUMPDEST PUSH1 0x40 MLOAD PUSH3 0x461BCD PUSH1 0xE5 SHL DUP2 MSTORE PUSH1 0x20 PUSH1 0x4 DUP3 ADD MSTORE PUSH1 0xC PUSH1 0x24 DUP3 ADD MSTORE PUSH12 0x27B7363C903932B630BCB2B9 PUSH1 0xA1 SHL PUSH1 0x44 DUP3 ADD MSTORE PUSH1 0x64 SWAP1 REVERT JUMPDEST ISZERO PUSH2 0x1672 JUMPI JUMP JUMPDEST PUSH1 0x40 MLOAD PUSH3 0x461BCD PUSH1 0xE5 SHL DUP2 MSTORE PUSH1 0x20 PUSH1 0x4 DUP3 ADD MSTORE PUSH1 0x11 PUSH1 0x24 DUP3 ADD MSTORE PUSH17 0x14995C5D595CDD081B9BDD08199BDD5B99 PUSH1 0x7A SHL PUSH1 0x44 DUP3 ADD MSTORE PUSH1 0x64 SWAP1 REVERT JUMPDEST ISZERO PUSH2 0x16B2 JUMPI JUMP JUMPDEST PUSH1 0x40 MLOAD PUSH3 0x461BCD PUSH1 0xE5 SHL DUP2 MSTORE PUSH1 0x20 PUSH1 0x4 DUP3 ADD MSTORE PUSH1 0xE PUSH1 0x24 DUP3 ADD MSTORE PUSH14 0x496E76616C696420737461747573 PUSH1 0x90 SHL PUSH1 0x44 DUP3 ADD MSTORE PUSH1 0x64 SWAP1 REVERT JUMPDEST SWAP1 DUP1 PUSH1 0x20 SWAP4 SWAP3 DUP2 DUP5 MSTORE DUP5 DUP5 ADD CALLDATACOPY PUSH1 0x0 DUP3 DUP3 ADD DUP5 ADD MSTORE PUSH1 0x1F ADD PUSH1 0x1F NOT AND ADD ADD SWAP1 JUMP JUMPDEST PUSH1 0x1 PUSH1 0x1 PUSH1 0x40 SHL SUB DUP2 GT PUSH2 0x14C4 JUMPI PUSH1 0x1F ADD PUSH1 0x1F NOT AND PUSH1 0x20 ADD SWAP1 JUMP JUMPDEST DUP2 PUSH1 0x1F DUP3 ADD SLT ISZERO PUSH2 0x13A5 JUMPI DUP1 CALLDATALOAD SWAP1 PUSH2 0x173B DUP3 PUSH2 0x1709 JUMP JUMPDEST SWAP3 PUSH2 0x1749 PUSH1 0x40 MLOAD SWAP5 DUP6 PUSH2 0x14F5 JUMP JUMPDEST DUP3 DUP5 MSTORE PUSH1 0x20 DUP4 DUP4 ADD ADD GT PUSH2 0x13A5 JUMPI DUP2 PUSH1 0x0 SWAP3 PUSH1 0x20 DUP1 SWAP4 ADD DUP4 DUP7 ADD CALLDATACOPY DUP4 ADD ADD MSTORE SWAP1 JUMP JUMPDEST DUP1 ISZERO PUSH2 0x1827 JUMPI DUP1 DUP2 PUSH1 0x0 SWAP3 JUMPDEST PUSH2 0x1813 JUMPI POP PUSH2 0x1785 DUP3 PUSH2 0x1709 JUMP JUMPDEST SWAP2 PUSH2 0x1793 PUSH1 0x40 MLOAD SWAP4 DUP5 PUSH2 0x14F5 JUMP JUMPDEST DUP1 DUP4 MSTORE PUSH1 0x1F NOT PUSH2 0x17A2 DUP3 PUSH2 0x1709 JUMP JUMPDEST ADD SWAP1 PUSH1 0x20 SWAP2 CALLDATASIZE DUP4 DUP7 ADD CALLDATACOPY SWAP2 DUP1 JUMPDEST PUSH2 0x17B9 JUMPI POP POP POP SWAP1 JUMP JUMPDEST PUSH1 0xA SWAP1 PUSH1 0x30 SWAP4 DUP3 DUP3 MOD DUP6 ADD DUP1 SWAP6 GT PUSH2 0x15F7 JUMPI DUP1 ISZERO PUSH2 0x15F7 JUMPI PUSH1 0x0 NOT ADD DUP1 SWAP5 DUP7 MLOAD DUP3 LT ISZERO PUSH2 0x17FD JUMPI PUSH1 0xF8 SHL PUSH1 0x1 PUSH1 0x1 PUSH1 0xF8 SHL SUB NOT AND PUSH1 0x0 BYTE SWAP1 DUP7 ADD DUP5 ADD MSTORE8 DIV DUP1 PUSH2 0x17AF JUMP JUMPDEST PUSH4 0x4E487B71 PUSH1 0xE0 SHL PUSH1 0x0 MSTORE PUSH1 0x32 PUSH1 0x4 MSTORE PUSH1 0x24 PUSH1 0x0 REVERT JUMPDEST SWAP2 PUSH2 0x181F PUSH1 0xA SWAP2 PUSH2 0x15E8 JUMP JUMPDEST SWAP3 DIV DUP1 PUSH2 0x1777 JUMP JUMPDEST POP PUSH1 0x40 MLOAD PUSH2 0x1834 DUP2 PUSH2 0x14DA JUMP JUMPDEST PUSH1 0x1 DUP2 MSTORE PUSH1 0x3 PUSH1 0xFC SHL PUSH1 0x20 DUP3 ADD MSTORE SWAP1 JUMP JUMPDEST PUSH1 0xFF AND DUP1 ISZERO PUSH2 0x193B JUMPI PUSH1 0x1 DUP2 EQ PUSH2 0x1910 JUMPI PUSH1 0x2 DUP2 EQ PUSH2 0x18E5 JUMPI PUSH1 0x3 DUP2 EQ PUSH2 0x18B4 JUMPI PUSH1 0x4 EQ PUSH2 0x188E JUMPI PUSH1 0x40 MLOAD PUSH2 0x1879 DUP2 PUSH2 0x14DA JUMP JUMPDEST PUSH1 0x5 DUP2 MSTORE PUSH5 0x27BA3432B9 PUSH1 0xD9 SHL PUSH1 0x20 DUP3 ADD MSTORE SWAP1 JUMP JUMPDEST PUSH1 0x40 MLOAD PUSH2 0x189A DUP2 PUSH2 0x14DA JUMP JUMPDEST PUSH1 0xA DUP2 MSTORE PUSH10 0x4672617564436C61696D PUSH1 0xB0 SHL PUSH1 0x20 DUP3 ADD MSTORE SWAP1 JUMP JUMPDEST POP PUSH1 0x40 MLOAD PUSH2 0x18C1 DUP2 PUSH2 0x14DA JUMP JUMPDEST PUSH1 0x14 DUP2 MSTORE PUSH20 0x496E74656C6C65637475616C50726F7065727479 PUSH1 0x60 SHL PUSH1 0x20 DUP3 ADD MSTORE SWAP1 JUMP JUMPDEST POP PUSH1 0x40 MLOAD PUSH2 0x18F2 DUP2 PUSH2 0x14DA JUMP JUMPDEST PUSH1 0xE DUP2 MSTORE PUSH14 0x5061796D656E7444697370757465 PUSH1 0x90 SHL PUSH1 0x20 DUP3 ADD MSTORE SWAP1 JUMP JUMPDEST POP PUSH1 0x40 MLOAD PUSH2 0x191D DUP2 PUSH2 0x14DA JUMP JUMPDEST PUSH1 0xE DUP2 MSTORE PUSH14 0x536572766963655175616C697479 PUSH1 0x90 SHL PUSH1 0x20 DUP3 ADD MSTORE SWAP1 JUMP JUMPDEST POP PUSH1 0x40 MLOAD PUSH2 0x1948 DUP2 PUSH2 0x14DA JUMP JUMPDEST PUSH1 0xE DUP2 MSTORE PUSH14 0x86DEDCE8E4C2C6E884E4CAC2C6D PUSH1 0x93 SHL PUSH1 0x20 DUP3 ADD MSTORE SWAP1 JUMP JUMPDEST PUSH1 0x40 MLOAD SWAP1 PUSH2 0x1973 DUP3 PUSH2 0x14A9 JUMP JUMPDEST PUSH1 0x60 PUSH1 0xA0 DUP4 PUSH1 0x0 DUP2 MSTORE PUSH1 0x0 PUSH1 0x20 DUP3 ADD MSTORE PUSH1 0x0 PUSH1 0x40 DUP3 ADD MSTORE PUSH1 0x0 DUP4 DUP3 ADD MSTORE PUSH1 0x0 PUSH1 0x80 DUP3 ADD MSTORE ADD MSTORE JUMP INVALID RETURN 0xF7 0xA9 INVALID CALLDATASIZE 0x4F 0xAA 0xB9 EXTCODESIZE 0x21 PUSH14 0xA50A3214154F22A0A2B415B23A84 0xC8 AND SWAP15 DUP12 PUSH4 0x6EE3A264 PUSH10 0x706673582212208AB444 CREATE2 0xBD 0xB5 KECCAK256 0x5C STOP 0xD8 INVALID LOG3 CREATE 0xE1 0xB7 SWAP7 DUP15 0xDE ORIGIN SWAP9 0xB0 0x29 GAS DUP9 0xF9 SWAP8 DUP10 PUSH30 0xBDD6C44C64736F6C63430008140033F3F7A9FE364FAAB93B216DA50A3214 ISZERO 0x4F 0x22 LOG0 LOG2 0xB4 ISZERO 0xB2 GASPRICE DUP5 0xC8 AND SWAP15 DUP12 PUSH4 0x6EE30000 "},"methodIdentifiers":{"REQUEST_TIMEOUT()":"bc2c81e9","aiPromptTemplate()":"ad9514f0","disputeResolutionContract()":"f46f96b2","disputeToRequest(uint256)":"aa95434e","failRequest(bytes32,string)":"cae4e7b5","fulfillRequest(bytes32,uint8,uint8,string)":"7983f136","genLayerRelayer()":"694ecb5f","getRequest(bytes32)":"fb1e61ca","getRequestByDispute(uint256)":"5fe5392f","handleExpiredRequest(bytes32)":"a21d516c","isRequestPending(bytes32)":"d1e93d14","oracleFee()":"f9cd3ceb","owner()":"8da5cb5b","renounceOwnership()":"715018a6","requestAIAnalysis(uint256,bytes)":"47beb6fd","requestCounter()":"973a814e","requests(bytes32)":"9d866985","setDisputeResolutionContract(address)":"685ea922","setOracleFee(uint256)":"b6d9ef60","setPromptTemplate(string)":"1672e694","setRelayer(address)":"6548e9bc","transferOwnership(address)":"f2fde38b","withdrawFees()":"476343ee"}}}}}