{"contracts/ReputationSystem.sol":{"ReputationSystem":{"abi":[{"inputs":[],"stateMutability":"nonpayable","type":"constructor"},{"inputs":[],"name":"AccessControlBadConfirmation","type":"error"},{"inputs":[{"internalType":"address","name":"account","type":"address"},{"internalType":"bytes32","name":"neededRole","type":"bytes32"}],"name":"AccessControlUnauthorizedAccount","type":"error"},{"inputs":[],"name":"ReentrancyGuardReentrantCall","type":"error"},{"anonymous":false,"inputs":[{"indexed":true,"internalType":"address","name":"user","type":"address"},{"indexed":false,"internalType":"uint256","name":"disputeId","type":"uint256"},{"indexed":false,"internalType":"uint256","name":"qualityScore","type":"uint256"}],"name":"EvidenceQualityRated","type":"event"},{"anonymous":false,"inputs":[{"indexed":true,"internalType":"address","name":"user","type":"address"},{"indexed":false,"internalType":"uint256","name":"oldScore","type":"uint256"},{"indexed":false,"internalType":"uint256","name":"newScore","type":"uint256"},{"indexed":false,"internalType":"string","name":"reason","type":"string"}],"name":"ReputationUpdated","type":"event"},{"anonymous":false,"inputs":[{"indexed":true,"internalType":"bytes32","name":"role","type":"bytes32"},{"indexed":true,"internalType":"bytes32","name":"previousAdminRole","type":"bytes32"},{"indexed":true,"internalType":"bytes32","name":"newAdminRole","type":"bytes32"}],"name":"RoleAdminChanged","type":"event"},{"anonymous":false,"inputs":[{"indexed":true,"internalType":"bytes32","name":"role","type":"bytes32"},{"indexed":true,"internalType":"address","name":"account","type":"address"},{"indexed":true,"internalType":"address","name":"sender","type":"address"}],"name":"RoleGranted","type":"event"},{"anonymous":false,"inputs":[{"indexed":true,"internalType":"bytes32","name":"role","type":"bytes32"},{"indexed":true,"internalType":"address","name":"account","type":"address"},{"indexed":true,"internalType":"address","name":"sender","type":"address"}],"name":"RoleRevoked","type":"event"},{"anonymous":false,"inputs":[{"indexed":true,"internalType":"uint256","name":"tierId","type":"uint256"},{"indexed":false,"internalType":"string","name":"name","type":"string"},{"indexed":false,"internalType":"uint256","name":"minScore","type":"uint256"}],"name":"TierCreated","type":"event"},{"anonymous":false,"inputs":[{"indexed":true,"internalType":"address","name":"user","type":"address"},{"indexed":false,"internalType":"string","name":"reason","type":"string"},{"indexed":false,"internalType":"address","name":"bannedBy","type":"address"}],"name":"UserBanned","type":"event"},{"anonymous":false,"inputs":[{"indexed":true,"internalType":"address","name":"user","type":"address"},{"indexed":false,"internalType":"address","name":"unbannedBy","type":"address"}],"name":"UserUnbanned","type":"event"},{"inputs":[],"name":"APPEAL_FAIL_PENALTY","outputs":[{"internalType":"uint256","name":"","type":"uint256"}],"stateMutability":"view","type":"function"},{"inputs":[],"name":"APPEAL_SUCCESS_BONUS","outputs":[{"internalType":"uint256","name":"","type":"uint256"}],"stateMutability":"view","type":"function"},{"inputs":[],"name":"BAN_THRESHOLD","outputs":[{"internalType":"uint256","name":"","type":"uint256"}],"stateMutability":"view","type":"function"},{"inputs":[],"name":"BASE_REPUTATION","outputs":[{"internalType":"uint256","name":"","type":"uint256"}],"stateMutability":"view","type":"function"},{"inputs":[],"name":"DEFAULT_ADMIN_ROLE","outputs":[{"internalType":"bytes32","name":"","type":"bytes32"}],"stateMutability":"view","type":"function"},{"inputs":[],"name":"DISPUTE_CONTRACT_ROLE","outputs":[{"internalType":"bytes32","name":"","type":"bytes32"}],"stateMutability":"view","type":"function"},{"inputs":[],"name":"EVIDENCE_QUALITY_BONUS","outputs":[{"internalType":"uint256","name":"","type":"uint256"}],"stateMutability":"view","type":"function"},{"inputs":[],"name":"FAST_RESPONSE_BONUS","outputs":[{"internalType":"uint256","name":"","type":"uint256"}],"stateMutability":"view","type":"function"},{"inputs":[],"name":"FRAUD_PENALTY","outputs":[{"internalType":"uint256","name":"","type":"uint256"}],"stateMutability":"view","type":"function"},{"inputs":[],"name":"HIGH_CONFIDENCE_BONUS","outputs":[{"internalType":"uint256","name":"","type":"uint256"}],"stateMutability":"view","type":"function"},{"inputs":[],"name":"LOSS_PENALTY","outputs":[{"internalType":"uint256","name":"","type":"uint256"}],"stateMutability":"view","type":"function"},{"inputs":[],"name":"MAX_REPUTATION","outputs":[{"internalType":"uint256","name":"","type":"uint256"}],"stateMutability":"view","type":"function"},{"inputs":[],"name":"MIN_REPUTATION","outputs":[{"internalType":"uint256","name":"","type":"uint256"}],"stateMutability":"view","type":"function"},{"inputs":[],"name":"MODERATOR_ROLE","outputs":[{"internalType":"bytes32","name":"","type":"bytes32"}],"stateMutability":"view","type":"function"},{"inputs":[],"name":"SPLIT_BONUS","outputs":[{"internalType":"uint256","name":"","type":"uint256"}],"stateMutability":"view","type":"function"},{"inputs":[],"name":"WIN_BONUS","outputs":[{"internalType":"uint256","name":"","type":"uint256"}],"stateMutability":"view","type":"function"},{"inputs":[{"internalType":"address","name":"user","type":"address"},{"internalType":"string","name":"reason","type":"string"}],"name":"applyFraudPenalty","outputs":[],"stateMutability":"nonpayable","type":"function"},{"inputs":[{"internalType":"address","name":"user","type":"address"},{"internalType":"string","name":"reason","type":"string"}],"name":"banUser","outputs":[],"stateMutability":"nonpayable","type":"function"},{"inputs":[{"internalType":"address","name":"user","type":"address"}],"name":"canUserAppeal","outputs":[{"internalType":"bool","name":"","type":"bool"}],"stateMutability":"view","type":"function"},{"inputs":[{"internalType":"string","name":"name","type":"string"},{"internalType":"uint256","name":"minScore","type":"uint256"},{"internalType":"uint256","name":"maxFeeDiscount","type":"uint256"},{"internalType":"uint256","name":"maxDisputeAmount","type":"uint256"},{"internalType":"bool","name":"canAppeal","type":"bool"},{"internalType":"bool","name":"prioritySupport","type":"bool"}],"name":"createTier","outputs":[],"stateMutability":"nonpayable","type":"function"},{"inputs":[{"internalType":"address","name":"user","type":"address"}],"name":"getFeeDiscount","outputs":[{"internalType":"uint256","name":"","type":"uint256"}],"stateMutability":"view","type":"function"},{"inputs":[{"internalType":"address","name":"user","type":"address"}],"name":"getMaxDisputeAmount","outputs":[{"internalType":"uint256","name":"","type":"uint256"}],"stateMutability":"view","type":"function"},{"inputs":[{"internalType":"address","name":"user","type":"address"}],"name":"getReputation","outputs":[{"components":[{"internalType":"uint256","name":"score","type":"uint256"},{"internalType":"uint256","name":"totalDisputes","type":"uint256"},{"internalType":"uint256","name":"disputesWon","type":"uint256"},{"internalType":"uint256","name":"disputesLost","type":"uint256"},{"internalType":"uint256","name":"disputesSplit","type":"uint256"},{"internalType":"uint256","name":"evidenceQuality","type":"uint256"},{"internalType":"uint256","name":"responseTime","type":"uint256"},{"internalType":"uint256","name":"appealSuccessRate","type":"uint256"},{"internalType":"uint256","name":"lastActivityAt","type":"uint256"},{"internalType":"uint256","name":"createdAt","type":"uint256"},{"internalType":"bool","name":"isBanned","type":"bool"},{"internalType":"string","name":"banReason","type":"string"}],"internalType":"struct ReputationSystem.UserReputation","name":"","type":"tuple"}],"stateMutability":"view","type":"function"},{"inputs":[{"internalType":"address","name":"user","type":"address"}],"name":"getReputationScore","outputs":[{"internalType":"uint256","name":"","type":"uint256"}],"stateMutability":"view","type":"function"},{"inputs":[{"internalType":"bytes32","name":"role","type":"bytes32"}],"name":"getRoleAdmin","outputs":[{"internalType":"bytes32","name":"","type":"bytes32"}],"stateMutability":"view","type":"function"},{"inputs":[{"internalType":"uint256","name":"tierId","type":"uint256"}],"name":"getTier","outputs":[{"components":[{"internalType":"string","name":"name","type":"string"},{"internalType":"uint256","name":"minScore","type":"uint256"},{"internalType":"uint256","name":"maxFeeDiscount","type":"uint256"},{"internalType":"uint256","name":"maxDisputeAmount","type":"uint256"},{"internalType":"bool","name":"canAppeal","type":"bool"},{"internalType":"bool","name":"prioritySupport","type":"bool"}],"internalType":"struct ReputationSystem.ReputationTier","name":"","type":"tuple"}],"stateMutability":"view","type":"function"},{"inputs":[{"internalType":"address","name":"user","type":"address"}],"name":"getUserTier","outputs":[{"internalType":"uint256","name":"tierId","type":"uint256"},{"components":[{"internalType":"string","name":"name","type":"string"},{"internalType":"uint256","name":"minScore","type":"uint256"},{"internalType":"uint256","name":"maxFeeDiscount","type":"uint256"},{"internalType":"uint256","name":"maxDisputeAmount","type":"uint256"},{"internalType":"bool","name":"canAppeal","type":"bool"},{"internalType":"bool","name":"prioritySupport","type":"bool"}],"internalType":"struct ReputationSystem.ReputationTier","name":"tier","type":"tuple"}],"stateMutability":"view","type":"function"},{"inputs":[{"internalType":"bytes32","name":"role","type":"bytes32"},{"internalType":"address","name":"account","type":"address"}],"name":"grantRole","outputs":[],"stateMutability":"nonpayable","type":"function"},{"inputs":[{"internalType":"bytes32","name":"role","type":"bytes32"},{"internalType":"address","name":"account","type":"address"}],"name":"hasRole","outputs":[{"internalType":"bool","name":"","type":"bool"}],"stateMutability":"view","type":"function"},{"inputs":[{"internalType":"address","name":"user","type":"address"}],"name":"isUserBanned","outputs":[{"internalType":"bool","name":"","type":"bool"}],"stateMutability":"view","type":"function"},{"inputs":[{"internalType":"address","name":"user","type":"address"},{"internalType":"uint256","name":"disputeId","type":"uint256"},{"internalType":"uint256","name":"qualityScore","type":"uint256"}],"name":"rateEvidenceQuality","outputs":[],"stateMutability":"nonpayable","type":"function"},{"inputs":[{"internalType":"address","name":"user","type":"address"},{"internalType":"bool","name":"successful","type":"bool"}],"name":"recordAppealOutcome","outputs":[],"stateMutability":"nonpayable","type":"function"},{"inputs":[{"internalType":"address","name":"user","type":"address"},{"internalType":"bool","name":"won","type":"bool"},{"internalType":"bool","name":"split","type":"bool"},{"internalType":"uint8","name":"aiConfidence","type":"uint8"}],"name":"recordDisputeOutcome","outputs":[],"stateMutability":"nonpayable","type":"function"},{"inputs":[{"internalType":"address","name":"user","type":"address"},{"internalType":"uint256","name":"responseTimeSeconds","type":"uint256"}],"name":"recordResponseTime","outputs":[],"stateMutability":"nonpayable","type":"function"},{"inputs":[{"internalType":"bytes32","name":"role","type":"bytes32"},{"internalType":"address","name":"callerConfirmation","type":"address"}],"name":"renounceRole","outputs":[],"stateMutability":"nonpayable","type":"function"},{"inputs":[{"internalType":"uint256","name":"","type":"uint256"}],"name":"reputationTiers","outputs":[{"internalType":"string","name":"name","type":"string"},{"internalType":"uint256","name":"minScore","type":"uint256"},{"internalType":"uint256","name":"maxFeeDiscount","type":"uint256"},{"internalType":"uint256","name":"maxDisputeAmount","type":"uint256"},{"internalType":"bool","name":"canAppeal","type":"bool"},{"internalType":"bool","name":"prioritySupport","type":"bool"}],"stateMutability":"view","type":"function"},{"inputs":[{"internalType":"bytes32","name":"role","type":"bytes32"},{"internalType":"address","name":"account","type":"address"}],"name":"revokeRole","outputs":[],"stateMutability":"nonpayable","type":"function"},{"inputs":[{"internalType":"address","name":"disputeContract","type":"address"}],"name":"setDisputeContract","outputs":[],"stateMutability":"nonpayable","type":"function"},{"inputs":[{"internalType":"bytes4","name":"interfaceId","type":"bytes4"}],"name":"supportsInterface","outputs":[{"internalType":"bool","name":"","type":"bool"}],"stateMutability":"view","type":"function"},{"inputs":[],"name":"tierCount","outputs":[{"internalType":"uint256","name":"","type":"uint256"}],"stateMutability":"view","type":"function"},{"inputs":[{"internalType":"address","name":"user","type":"address"}],"name":"unbanUser","outputs":[],"stateMutability":"nonpayable","type":"function"},{"inputs":[{"internalType":"address","name":"","type":"address"}],"name":"userReputations","outputs":[{"internalType":"uint256","name":"score","type":"uint256"},{"internalType":"uint256","name":"totalDisputes","type":"uint256"},{"internalType":"uint256","name":"disputesWon","type":"uint256"},{"internalType":"uint256","name":"disputesLost","type":"uint256"},{"internalType":"uint256","name":"disputesSplit","type":"uint256"},{"internalType":"uint256","name":"evidenceQuality","type":"uint256"},{"internalType":"uint256","name":"responseTime","type":"uint256"},{"internalType":"uint256","name":"appealSuccessRate","type":"uint256"},{"internalType":"uint256","name":"lastActivityAt","type":"uint256"},{"internalType":"uint256","name":"createdAt","type":"uint256"},{"internalType":"bool","name":"isBanned","type":"bool"},{"internalType":"string","name":"banReason","type":"string"}],"stateMutability":"view","type":"function"}],"evm":{"bytecode":{"linkReferences":{},"object":"60806040523462000a4b5760018055620000193362000a50565b50620000253362000ad0565b506200003062000b72565b6200003a62000b92565b60088152672732bb902ab9b2b960c11b602082015281526000602082015260006040820152670de0b6b3a7640000606082015260006080820152600060a08201526000805260036020526040600020815180519060018060401b038211620006e5578254600181811c9116801562000a40575b6020821014620006c457601f8111620009f7575b50602090601f83116001146200098357918060a0949260049460009262000977575b50508160011b916000199060031b1c19161781555b60208401516001820155604084015160028201556060840151600382015501916200013560808201511515849060ff801983541691151516179055565b0151815461ff00191690151560081b61ff00161790556200015562000b72565b6200015f62000b92565b600681526542726f6e7a6560d01b60208201528152610bb860208201526101f46040820152678ac7230489e80000606082015260016080820152600060a0820152600160005260036020526040600020815180519060018060401b038211620006e5578254600181811c911680156200096c575b6020821014620006c457601f811162000923575b50602090601f8311600114620008af57918060a09492600494600092620008a3575b50508160011b916000199060031b1c19161781555b60208401516001820155604084015160028201556060840151600382015501916200025b60808201511515849060ff801983541691151516179055565b0151815461ff00191690151560081b61ff00161790556200027b62000b72565b6200028562000b92565b600681526529b4b63b32b960d11b6020820152815261138860208201526103e860408201526802b5e3af16b1880000606082015260016080820152600060a0820152600260005260036020526040600020815180519060018060401b038211620006e5578254600181811c9116801562000898575b6020821014620006c457601f81116200084f575b50602090601f8311600114620007db57918060a09492600494600092620007cf575b50508160011b916000199060031b1c19161781555b60208401516001820155604084015160028201556060840151600382015501916200038260808201511515849060ff801983541691151516179055565b0151815461ff00191690151560081b61ff0016179055620003a262000b72565b620003ac62000b92565b600481526311dbdb1960e21b60208201528152611b5860208201526105dc6040820152680ad78ebc5ac6200000606082015260016080820152600160a0820152600360005260036020526040600020815180519060018060401b038211620006e5578254600181811c91168015620007c4575b6020821014620006c457601f81116200077b575b50602090601f83116001146200070757918060a09492600494600092620006fb575b50508160011b916000199060031b1c19161781555b6020840151600182015560408401516002820155606084015160038201550191620004a760808201511515849060ff801983541691151516179055565b0151815461ff00191690151560081b61ff0016179055620004c762000b72565b620004d162000b92565b6008815267506c6174696e756d60c01b6020820152815261232860208201526109c46040820152683635c9adc5dea00000606082015260016080820152600160a0820152600460005260036020526040600020815180519060018060401b038211620006e5578254600181811c91168015620006da575b6020821014620006c457601f81116200067b575b50602090601f83116001146200060757918060a09492600494600092620005fb575b50508160011b916000199060031b1c19161781555b6020840151600182015560408401516002820155606084015160038201550191620005d060808201511515849060ff801983541691151516179055565b0151815461ff00191690151560081b61ff0016179055600560045560405161243d908162000bb38239f35b0151905038806200057e565b908360005260206000209160005b601f19851681106200066257509260a0949260019260049583601f1981161062000648575b505050811b01815562000593565b015160001960f88460031b161c191690553880806200063a565b9192602060018192868501518155019401920162000615565b836000526020600020601f840160051c810160208510620006bc575b601f830160051c82018110620006af5750506200055c565b6000815560010162000697565b508062000697565b634e487b7160e01b600052602260045260246000fd5b90607f169062000548565b634e487b7160e01b600052604160045260246000fd5b01519050388062000455565b908360005260206000209160005b601f19851681106200076257509260a0949260019260049583601f1981161062000748575b505050811b0181556200046a565b015160001960f88460031b161c191690553880806200073a565b9192602060018192868501518155019401920162000715565b836000526020600020601f840160051c810160208510620007bc575b601f830160051c82018110620007af57505062000433565b6000815560010162000797565b508062000797565b90607f16906200041f565b01519050388062000330565b908360005260206000209160005b601f19851681106200083657509260a0949260019260049583601f198116106200081c575b505050811b01815562000345565b015160001960f88460031b161c191690553880806200080e565b91926020600181928685015181550194019201620007e9565b836000526020600020601f840160051c81016020851062000890575b601f830160051c82018110620008835750506200030e565b600081556001016200086b565b50806200086b565b90607f1690620002fa565b01519050388062000209565b908360005260206000209160005b601f19851681106200090a57509260a0949260019260049583601f19811610620008f0575b505050811b0181556200021e565b015160001960f88460031b161c19169055388080620008e2565b91926020600181928685015181550194019201620008bd565b836000526020600020601f840160051c81016020851062000964575b601f830160051c8201811062000957575050620001e7565b600081556001016200093f565b50806200093f565b90607f1690620001d3565b015190503880620000e3565b908360005260206000209160005b601f1985168110620009de57509260a0949260019260049583601f19811610620009c4575b505050811b018155620000f8565b015160001960f88460031b161c19169055388080620009b6565b9192602060018192868501518155019401920162000991565b836000526020600020601f840160051c81016020851062000a38575b601f830160051c8201811062000a2b575050620000c1565b6000815560010162000a13565b508062000a13565b90607f1690620000ad565b600080fd5b6001600160a01b031660008181527fad3228b676f7d3cd4284a5443f17f1962b36e491b30a40b2405849e597ba5fb5602052604081205490919060ff1662000acc57818052816020526040822081835260205260408220600160ff19825416179055339160008051602062002ff08339815191528180a4600190565b5090565b6001600160a01b031660008181527ff179aafcc4ff8137fca1ef3b9ec4d165f87016ba123e7973fba770bc55e240e360205260408120549091907f71f3d55856e4058ed06ee057d79ada615f65cdf5f9ee88181b914225088f834f9060ff1662000b6d57808352826020526040832082845260205260408320600160ff1982541617905560008051602062002ff0833981519152339380a4600190565b505090565b6040519060c082016001600160401b03811183821017620006e557604052565b60408051919082016001600160401b03811183821017620006e55760405256fe608080604052600436101561001357600080fd5b600090813560e01c90816301ffc9a7146118745750806306c71579146118465780630f96f2d3146117c35780631f027cef146114ac578063238dcf88146117a6578063248a9ca31461177a5780632617f71e1461175d5780632f2ff15d1461172057806336568abe146116d85780633a6f6b381461042c57806344a2008b146116bc57806344d23d6f146116925780634d12b695146115915780634f062c5a146115095780634f2b0d4a146114ec578063623a41c2146114b157806368766a64146114ac578063697c6045146114ac57806375a67d5c146113cc578063797669c9146113915780638644032c1461136d5780638ea5e4c61461110657806391d14854146110be57806396b55f7d146110a0578063978374b114610ef85780639c89a0e214610d435780639e21592b14610ba05780639ed9b4fd14610b5d578063a217fddf14610b41578063a4d6f0b014610b24578063b7fa7cfc14610af8578063bf93faf5146107a7578063d213c0f21461078a578063d36d0dac146105bb578063d547741f1461057a578063de8be6fd14610431578063df2303611461042c578063e4d2620e146103ed578063e9610b50146103d1578063eb30f6fb146103b4578063f8b11691146102e55763ff1f9c42146101ef57600080fd5b346102e25760403660031901126102e2576102086118c9565b60243590610214611c61565b610e1061022082611f60565b928060068501805480156000146102cd5750555b1061023d578280f35b815491606483018084116102b9579160a0916000805160206123c883398151915293612710908181116000146102b0575080915b55604051948552602085015260606040850152600d60608501526c4661737420726573706f6e736560981b6080850152600180831b031692a238808280f35b90508091610271565b634e487b7160e01b85526011600452602485fd5b916102d89192611f97565b60011c9055610234565b80fd5b50346102e25760203660031901126102e2576040906001600160a01b0361030a6118c9565b16815260026020522080546103b0600183015492600281015490600381015460048201546005830154600684015460078501549160088601549360098701549561035e600b60ff600a8b01541699016119c1565b986040519c8d9c8d5260208d015260408c015260608b015260808a015260a089015260c088015260e0870152610100860152610120850152151561014084015261018080610160850152830190611a67565b0390f35b50346102e257806003193601126102e25760206040516103208152f35b50346102e257806003193601126102e257602060405160c88152f35b50346102e25760203660031901126102e25761040f61040a6118c9565b61211f565b906103b06040519283928352604060208401526040830190611ae0565b611ac3565b50346102e25761044036611b69565b9061044c939293611c05565b61045584611f60565b93600b600a8601956001968760ff198254161790550167ffffffffffffffff84116105665761048e8461048883546118fa565b83611efc565b8495601f85116001146104f35793806000805160206123e88339815191529587988298936104e8575b501b906000198760031b1c19161790555b6104e260405192839260018060a01b031695339184612062565b0390a280f35b8601359250386104b7565b8186526020808720601f19871698909188905b8a821061054f575050866000805160206123e883398151915297989910610535575b505085811b0190556104c8565b850135600019600389901b60f8161c191690553880610528565b808584958294958b01358155019401920190610506565b634e487b7160e01b85526041600452602485fd5b50346102e25760403660031901126102e2576105b760043561059a6118e4565b90808452836020526105b26001604086200154611cbd565b611e0e565b5080f35b50346102e2576105ca36611b69565b91906105d4611c05565b6105dd82611f60565b908154916101f46105ed84611fa4565b8083551115610636575b6000805160206123c88339815191529392916104e2915493604051948594855260208501526060604085015260018060a01b0316956060840191612041565b600a81016001908160ff19825416179055600b82019067ffffffffffffffff87116107765786906106718261066b85546118fa565b85611efc565b88601f83116001146106f45791806000805160206123c883398151915298979694926104e296948c936106e9575b501b906000198a60031b1c19161790555b6040516001600160a01b038616906000805160206123e883398151915290806106db338c8884612062565b0390a29150919293506105f7565b86013592503861069f565b838a526020808b209293508990601f198216908c905b82821061075c575050916000805160206123c88339815191529998979593916104e297959310610742575b505088811b0190556106b0565b85013560001960038c901b60f8161c191690553880610735565b89850135865594860194938401938c93509081019061070a565b634e487b7160e01b88526041600452602488fd5b50346102e257806003193601126102e25760206040516127108152f35b50346102e25760803660031901126102e2576107c16118c9565b906107ca611b5a565b604435908115158203610af4576064359360ff8516809503610af0576107ee611c61565b6107f781611f60565b92600a84019361080b60ff86541615611e83565b80549460019788830161081e8154611ec0565b90554260088401558315610a8557506004820161083b8154611ec0565b90556101f461084c60645b88611fc4565b8084551115610916575b506000805160206123c88339815191529495965054926000146108b557506104e260405161088381611983565b600b81526a576f6e206469737075746560a81b60208201525b6040516001600160a01b03909316959293849384611f41565b156108e9576104e26040516108c981611983565b600e81526d29b83634ba103232b1b4b9b4b7b760911b602082015261089c565b6104e26040516108f881611983565b600c81526b4c6f7374206469737075746560a01b602082015261089c565b60ff19908882825416179055600b82019061093182546118fa565b601f8111610a66575b5060247152657075746174696f6e20746f6f206c6f7760701b01988983556040519260408452899a61096b816118fa565b938460408701528382169182600014610a255750506001146109cd575b505030602083015250959694956000805160206123c8833981519152956001600160a01b038516916000805160206123e88339815191529181900390a2869594610856565b9099508852602080892099899a5b838c10610a115750505050968701606001966000805160206123e88339815191526000805160206123c883398151915238610988565b8054858d01606001529a82019a81016109db565b1660608681019190915293151560051b85019093019a506000805160206123e883398151915292506000805160206123c88339815191529150389050610988565b82895260208920610a7f91601f0160051c810190611ee5565b3861093a565b8515610abd5760028301610a998154611ec0565b905560556101f4911015610ab4575b61084c6101f491610846565b506102bc610aa8565b60038301610acb8154611ec0565b9055605a61012b19911015610ae65761084c6101f491610846565b506101f319610aa8565b8380fd5b8280fd5b50346102e25760203660031901126102e2576020610b1c610b176118c9565b6121d2565b604051908152f35b50346102e257806003193601126102e257602060405161012c8152f35b50346102e257806003193601126102e257602090604051908152f35b50346102e25760203660031901126102e25760209060ff90600a906040906001600160a01b03610b8b6118c9565b16815260028552200154166040519015158152f35b50346102e25760403660031901126102e257610bba6118c9565b90610bc3611b5a565b91610bcc611c61565b610bd581611f60565b610be660ff600a8301541615611e83565b8054918415610d2557600182015461032095908015610d1d57600a90045b60078401908154600019820190828211610d0957818102918183041490151715610cf5576127108101809111610cf5578115610ce157916000805160206123c883398151915296979891610c5c930490555b86611fc4565b92838155600842910155600014610cb3576104e2604051610c7c81611983565b601181527014dd58d8d95cdcd99d5b08185c1c19585b607a1b60208201526040516001600160a01b03909316959293849384611f41565b6104e2604051610cc281611983565b600d81526c11985a5b195908185c1c19585b609a1b602082015261089c565b634e487b7160e01b88526012600452602488fd5b634e487b7160e01b88526011600452602488fd5b634e487b7160e01b89526011600452602489fd5b506001610c04565b6000805160206123c8833981519152929394610c5c61018f19610c56565b50346102e25760203660031901126102e257604061016091610d636118c9565b6060848451610d7181611934565b848152846020820152848682015284838201528460808201528460a08201528460c08201528460e0820152846101008201528461012082015284610140820152015260018060a01b03168152600260205220610e4b600b60405192610dd584611934565b8054845260018101546020850152600281015460408501526003810154606085015260048101546080850152600581015460a0850152600681015460c0850152600781015460e08501526008810154610100850152600981015461012085015260ff600a820154161515610140850152016119c1565b8282015261012081015115610eee575b6103b06040519283926020845280516020850152602081015160408501526040810151606085015260608101516080850152608081015160a085015260a081015160c085015260c081015160e085015260e08101516101008501526101008101516101208501526101208101516101408501526101408101511515828501520151610180808401526101a0830190611a67565b6113888152610e5b565b50346102e25760603660031901126102e257610f126118c9565b60443590610f1e611c05565b6064821161106357610f2f81611f60565b82600582018054801560001461104e5750555b6050831015610f8b575b5060407faca8929b748783ce5d38abda96fac54778ceb8858ba437ffc45282a02c676240918151936024358552602085015260018060a01b031692a280f35b805490604f19840184811161103a5760968102908082046096149015171561103a57917faca8929b748783ce5d38abda96fac54778ceb8858ba437ffc45282a02c6762409391610fe060146040950483611fc4565b80915583519182526020820152606083820152601560608201527448696768207175616c6974792065766964656e636560581b60808201526000805160206123c883398151915260a0600180821b03841692a29150610f4c565b634e487b7160e01b86526011600452602486fd5b916110599192611f97565b60011c9055610f42565b60405162461bcd60e51b8152602060048201526015602482015274496e76616c6964207175616c6974792073636f726560581b6044820152606490fd5b50346102e257806003193601126102e2576020600454604051908152f35b50346102e25760403660031901126102e25760ff60406020926110df6118e4565b60043582528185528282206001600160a01b03909116825284522054604051911615158152f35b50346102e25760c03660031901126102e25767ffffffffffffffff906004358281116113695761113a903690600401611b2c565b60843593841515809503610af05760a435908115158092036113655761115e611bad565b6040519161116b83611967565b81841161135157604051601f19979061118c601f87018a166020018261199f565b858152368688011161134d578587602083013787602087830101528452602435602085015260443560408501526064356060850152608084015260a08301526004548552600360205260408520908251968751918211611339576111f48261066b85546118fa565b602090601f83116001146112cf575090806004939288996112be99926112c4575b50508160011b916000199060031b1c19161781555b6020830151600182015560408301516002820155606083015160038201550190608081015115159060ff61ff0060a08554930151151560081b1692169061ffff1916171790557f0e0604e052b3c03f749dfaeca4395de2957f31a3896ee0324a805511e072476e6004549283926112ae604051928392604084526040840191612041565b60243560208301520390a2611ec0565b60045580f35b015190503880611215565b978388526020882098885b81851681106113215750986001928492836112be9b9c600498971610611308575b505050811b01815561122a565b015160001960f88460031b161c191690553880806112fb565b838301518b556001909a0199602093840193016112da565b634e487b7160e01b87526041600452602487fd5b8780fd5b634e487b7160e01b86526041600452602486fd5b8480fd5b5080fd5b50346102e25760203660031901126102e2576020610b1c61138c6118c9565b612315565b50346102e257806003193601126102e25760206040517f71f3d55856e4058ed06ee057d79ada615f65cdf5f9ee88181b914225088f834f8152f35b50346102e25760203660031901126102e2576001600160a01b036113ee6118c9565b168152600260205260408120906040519161140883611934565b8054835260018101546020840152600281015460408401526003810154606084015260048101546080840152600581015460a0840152600681015460c0840152600781015460e08401526008810154610100840152611486600b600983015492610120860193845260ff600a820154161515610140870152016119c1565b61016084015251151590506114a357506020611388604051908152f35b60209051610b1c565b611aa7565b50346102e257806003193601126102e25760206040517f548ad01cb7d1dbb8d45d390adae50f787efed76d7ea4725ce02f90587d28e24f8152f35b50346102e257806003193601126102e25760206040516113888152f35b50346102e25760203660031901126102e2576004359061152761208b565b5060045482101561155d576040816103b09361154993526003602052206120ca565b604051918291602083526020830190611ae0565b60405162461bcd60e51b815260206004820152600c60248201526b24b73b30b634b2103a34b2b960a11b6044820152606490fd5b50346102e25760203660031901126102e2576115ab6118c9565b6115b3611c05565b6001600160a01b0316808252600260205260408220600a8101805460ff81161561165b5760ff191690556000600b82016115ed81546118fa565b601f811161163c575b50556109c49081815410611634575b50507ff11fd0be5eda892011eed5ccf21f149a3e3533001e220f8aef844d83842ac6196020604051338152a280f35b553880611605565b8186526020862061165591601f0160051c810190611ee5565b386115f6565b60405162461bcd60e51b815260206004820152600f60248201526e155cd95c881b9bdd0818985b9b9959608a1b6044820152606490fd5b50346102e25760203660031901126102e2576105b76116af6118c9565b6116b7611bad565b611ce3565b50346102e257806003193601126102e257602060405160968152f35b50346102e25760403660031901126102e2576116f26118e4565b336001600160a01b0382160361170e576105b790600435611e0e565b60405163334bd91960e11b8152600490fd5b50346102e25760403660031901126102e2576105b76004356117406118e4565b90808452836020526117586001604086200154611cbd565b611d95565b50346102e257806003193601126102e25760206040516101908152f35b50346102e25760203660031901126102e257600160406020926004358152808452200154604051908152f35b50346102e257806003193601126102e25760206040516107d08152f35b50346102e25760203660031901126102e257604061181d9160043581526003602052206117ef816119c1565b9060ff600182015491600281015490600460038201549101549160405196879660c0885260c0880190611a67565b946020870152604086015260608501528181161515608085015260081c16151560a08301520390f35b50346102e25760203660031901126102e257602061186a6118656118c9565b61226a565b6040519015158152f35b9050346113695760203660031901126113695760043563ffffffff60e01b8116809103610af45760209250637965db0b60e01b81149081156118b8575b5015158152f35b6301ffc9a760e01b149050386118b1565b600435906001600160a01b03821682036118df57565b600080fd5b602435906001600160a01b03821682036118df57565b90600182811c9216801561192a575b602083101461191457565b634e487b7160e01b600052602260045260246000fd5b91607f1691611909565b610180810190811067ffffffffffffffff82111761195157604052565b634e487b7160e01b600052604160045260246000fd5b60c0810190811067ffffffffffffffff82111761195157604052565b6040810190811067ffffffffffffffff82111761195157604052565b90601f8019910116810190811067ffffffffffffffff82111761195157604052565b90604051918260008254926119d5846118fa565b908184526001948581169081600014611a445750600114611a01575b50506119ff9250038361199f565b565b9093915060005260209081600020936000915b818310611a2c5750506119ff935082010138806119f1565b85548884018501529485019487945091830191611a14565b9150506119ff94506020925060ff191682840152151560051b82010138806119f1565b919082519283825260005b848110611a93575050826000602080949584010152601f8019910116010190565b602081830181015184830182015201611a72565b346118df5760003660031901126118df57602060405160648152f35b346118df5760003660031901126118df5760206040516101f48152f35b9060a080611af7845160c0855260c0850190611a67565b936020810151602085015260408101516040850152606081015160608501526080810151151560808501520151151591015290565b9181601f840112156118df5782359167ffffffffffffffff83116118df57602083818601950101116118df57565b6024359081151582036118df57565b9060406003198301126118df576004356001600160a01b03811681036118df57916024359067ffffffffffffffff82116118df57611ba991600401611b2c565b9091565b3360009081527fad3228b676f7d3cd4284a5443f17f1962b36e491b30a40b2405849e597ba5fb5602052604081205460ff1615611be75750565b6044906040519063e2517d3f60e01b82523360048301526024820152fd5b3360009081527ff179aafcc4ff8137fca1ef3b9ec4d165f87016ba123e7973fba770bc55e240e360205260409020547f71f3d55856e4058ed06ee057d79ada615f65cdf5f9ee88181b914225088f834f9060ff1615611be75750565b3360009081527f36e503eea63500a8c9080ce945ec2c201d60f7f269e8f5c17d26416b796499cd60205260409020547f548ad01cb7d1dbb8d45d390adae50f787efed76d7ea4725ce02f90587d28e24f9060ff1615611be75750565b80600052600060205260406000203360005260205260ff6040600020541615611be75750565b6001600160a01b031660008181527f36e503eea63500a8c9080ce945ec2c201d60f7f269e8f5c17d26416b796499cd60205260408120549091907f548ad01cb7d1dbb8d45d390adae50f787efed76d7ea4725ce02f90587d28e24f9060ff16611d9057808352826020526040832082845260205260408320600160ff198254161790557f2f8788117e7eff1d82e926ec794901d17c78024a50270940304540a733656f0d339380a4600190565b505090565b9060009180835282602052604083209160018060a01b03169182845260205260ff60408420541615600014611d9057808352826020526040832082845260205260408320600160ff198254161790557f2f8788117e7eff1d82e926ec794901d17c78024a50270940304540a733656f0d339380a4600190565b9060009180835282602052604083209160018060a01b03169182845260205260ff604084205416600014611d905780835282602052604083208284526020526040832060ff1981541690557ff6391f5c32d9c69d2a47ea670b442974b53935d1edc7fd64eb21e047a839171b339380a4600190565b15611e8a57565b60405162461bcd60e51b815260206004820152600e60248201526d155cd95c881a5cc818985b9b995960921b6044820152606490fd5b6000198114611ecf5760010190565b634e487b7160e01b600052601160045260246000fd5b818110611ef0575050565b60008155600101611ee5565b9190601f8111611f0b57505050565b6119ff926000526020600020906020601f840160051c83019310611f37575b601f0160051c0190611ee5565b9091508190611f2a565b611f5d9392606092825260208201528160408201520190611a67565b90565b6001600160a01b0316600090815260026020526040902060098101805415611f86575090565b611388825542905542600882015590565b91908201809211611ecf57565b806107d01015611fbe576107cf198101908111611ecf5790565b50606490565b90600090818112611fef57611fd99192611f97565b612710915081811115611fea575090565b905090565b600160ff1b811461202d57828183031015612025578201918211612011575090565b634e487b7160e01b81526011600452602490fd5b505050606490565b634e487b7160e01b82526011600452602482fd5b908060209392818452848401376000828201840152601f01601f1916010190565b9160209161207b91959495604085526040850191612041565b6001600160a01b03909416910152565b6040519061209882611967565b600060a083606081528260208201528260408201528260608201528260808201520152565b8015611ecf576000190190565b906040516120d781611967565b60a060ff600483956120e8816119c1565b855260018101546020860152600281015460408601526003810154606086015201548181161515608085015260081c161515910152565b9061212861208b565b5060009160018060a01b031682526020600281526040908184206009810154156000146121cc57506113885b60048054805b61217357505050906003611f5d928580525283206120ca565b60001981018181116121b957808852600385528588209060018201548510156121a75750506121a1906120bd565b8061215a565b94509650505050611f5d9150926120ca565b634e487b7160e01b885260118352602488fd5b54612154565b6001600160a01b0316600090815260026020818152604080842060098101549293926122635750611388905b6004938454805b6122125750505050505090565b6000198101818111612250578752600382528287206001810154851015612243575061223d906120bd565b80612205565b9550505050509150015490565b634e487b7160e01b885260118752602488fd5b54906121fe565b6001600160a01b03166000908152600260209081526040808320600a81015460ff929190831661230e57600981015461230857506113885b6004918254805b6122b65750505050505090565b60001981018181116122f55787526003865281872060018101548410156122e757506122e1906120bd565b806122a9565b949650505050915001541690565b634e487b7160e01b885260118552602488fd5b546122a2565b5050505090565b6001600160a01b03166000908152600260209081526040808320600a81015491929160ff166123c15760098101546123bb57506113885b6004908154805b6123695750505091600380938280525220015490565b60001981018181116123a85786526003808552858720600181015484101561239c575050612396906120bd565b80612353565b01549695505050505050565b634e487b7160e01b875260118452602487fd5b5461234c565b5050509056fe4146a620f234be49686701963664655b5fb451997f8462f773d272d68f17043f6e4ef51cc33f3fd1bf8122b95763610c781091c183ce23d3070ec034ee095fb4a26469706673582212207e7825efb817e19e892993539515621a1a5f6715830dacc945a4c6742651299964736f6c634300081400332f8788117e7eff1d82e926ec794901d17c78024a50270940304540a733656f0d","opcodes":"PUSH1 0x80 PUSH1 0x40 MSTORE CALLVALUE PUSH3 0xA4B JUMPI PUSH1 0x1 DUP1 SSTORE PUSH3 0x19 CALLER PUSH3 0xA50 JUMP JUMPDEST POP PUSH3 0x25 CALLER PUSH3 0xAD0 JUMP JUMPDEST POP PUSH3 0x30 PUSH3 0xB72 JUMP JUMPDEST PUSH3 0x3A PUSH3 0xB92 JUMP JUMPDEST PUSH1 0x8 DUP2 MSTORE PUSH8 0x2732BB902AB9B2B9 PUSH1 0xC1 SHL PUSH1 0x20 DUP3 ADD MSTORE DUP2 MSTORE PUSH1 0x0 PUSH1 0x20 DUP3 ADD MSTORE PUSH1 0x0 PUSH1 0x40 DUP3 ADD MSTORE PUSH8 0xDE0B6B3A7640000 PUSH1 0x60 DUP3 ADD MSTORE PUSH1 0x0 PUSH1 0x80 DUP3 ADD MSTORE PUSH1 0x0 PUSH1 0xA0 DUP3 ADD MSTORE PUSH1 0x0 DUP1 MSTORE PUSH1 0x3 PUSH1 0x20 MSTORE PUSH1 0x40 PUSH1 0x0 KECCAK256 DUP2 MLOAD DUP1 MLOAD SWAP1 PUSH1 0x1 DUP1 PUSH1 0x40 SHL SUB DUP3 GT PUSH3 0x6E5 JUMPI DUP3 SLOAD PUSH1 0x1 DUP2 DUP2 SHR SWAP2 AND DUP1 ISZERO PUSH3 0xA40 JUMPI JUMPDEST PUSH1 0x20 DUP3 LT EQ PUSH3 0x6C4 JUMPI PUSH1 0x1F DUP2 GT PUSH3 0x9F7 JUMPI JUMPDEST POP PUSH1 0x20 SWAP1 PUSH1 0x1F DUP4 GT PUSH1 0x1 EQ PUSH3 0x983 JUMPI SWAP2 DUP1 PUSH1 0xA0 SWAP5 SWAP3 PUSH1 0x4 SWAP5 PUSH1 0x0 SWAP3 PUSH3 0x977 JUMPI JUMPDEST POP POP DUP2 PUSH1 0x1 SHL SWAP2 PUSH1 0x0 NOT SWAP1 PUSH1 0x3 SHL SHR NOT AND OR DUP2 SSTORE JUMPDEST PUSH1 0x20 DUP5 ADD MLOAD PUSH1 0x1 DUP3 ADD SSTORE PUSH1 0x40 DUP5 ADD MLOAD PUSH1 0x2 DUP3 ADD SSTORE PUSH1 0x60 DUP5 ADD MLOAD PUSH1 0x3 DUP3 ADD SSTORE ADD SWAP2 PUSH3 0x135 PUSH1 0x80 DUP3 ADD MLOAD ISZERO ISZERO DUP5 SWAP1 PUSH1 0xFF DUP1 NOT DUP4 SLOAD AND SWAP2 ISZERO ISZERO AND OR SWAP1 SSTORE JUMP JUMPDEST ADD MLOAD DUP2 SLOAD PUSH2 0xFF00 NOT AND SWAP1 ISZERO ISZERO PUSH1 0x8 SHL PUSH2 0xFF00 AND OR SWAP1 SSTORE PUSH3 0x155 PUSH3 0xB72 JUMP JUMPDEST PUSH3 0x15F PUSH3 0xB92 JUMP JUMPDEST PUSH1 0x6 DUP2 MSTORE PUSH6 0x42726F6E7A65 PUSH1 0xD0 SHL PUSH1 0x20 DUP3 ADD MSTORE DUP2 MSTORE PUSH2 0xBB8 PUSH1 0x20 DUP3 ADD MSTORE PUSH2 0x1F4 PUSH1 0x40 DUP3 ADD MSTORE PUSH8 0x8AC7230489E80000 PUSH1 0x60 DUP3 ADD MSTORE PUSH1 0x1 PUSH1 0x80 DUP3 ADD MSTORE PUSH1 0x0 PUSH1 0xA0 DUP3 ADD MSTORE PUSH1 0x1 PUSH1 0x0 MSTORE PUSH1 0x3 PUSH1 0x20 MSTORE PUSH1 0x40 PUSH1 0x0 KECCAK256 DUP2 MLOAD DUP1 MLOAD SWAP1 PUSH1 0x1 DUP1 PUSH1 0x40 SHL SUB DUP3 GT PUSH3 0x6E5 JUMPI DUP3 SLOAD PUSH1 0x1 DUP2 DUP2 SHR SWAP2 AND DUP1 ISZERO PUSH3 0x96C JUMPI JUMPDEST PUSH1 0x20 DUP3 LT EQ PUSH3 0x6C4 JUMPI PUSH1 0x1F DUP2 GT PUSH3 0x923 JUMPI JUMPDEST POP PUSH1 0x20 SWAP1 PUSH1 0x1F DUP4 GT PUSH1 0x1 EQ PUSH3 0x8AF JUMPI SWAP2 DUP1 PUSH1 0xA0 SWAP5 SWAP3 PUSH1 0x4 SWAP5 PUSH1 0x0 SWAP3 PUSH3 0x8A3 JUMPI JUMPDEST POP POP DUP2 PUSH1 0x1 SHL SWAP2 PUSH1 0x0 NOT SWAP1 PUSH1 0x3 SHL SHR NOT AND OR DUP2 SSTORE JUMPDEST PUSH1 0x20 DUP5 ADD MLOAD PUSH1 0x1 DUP3 ADD SSTORE PUSH1 0x40 DUP5 ADD MLOAD PUSH1 0x2 DUP3 ADD SSTORE PUSH1 0x60 DUP5 ADD MLOAD PUSH1 0x3 DUP3 ADD SSTORE ADD SWAP2 PUSH3 0x25B PUSH1 0x80 DUP3 ADD MLOAD ISZERO ISZERO DUP5 SWAP1 PUSH1 0xFF DUP1 NOT DUP4 SLOAD AND SWAP2 ISZERO ISZERO AND OR SWAP1 SSTORE JUMP JUMPDEST ADD MLOAD DUP2 SLOAD PUSH2 0xFF00 NOT AND SWAP1 ISZERO ISZERO PUSH1 0x8 SHL PUSH2 0xFF00 AND OR SWAP1 SSTORE PUSH3 0x27B PUSH3 0xB72 JUMP JUMPDEST PUSH3 0x285 PUSH3 0xB92 JUMP JUMPDEST PUSH1 0x6 DUP2 MSTORE PUSH6 0x29B4B63B32B9 PUSH1 0xD1 SHL PUSH1 0x20 DUP3 ADD MSTORE DUP2 MSTORE PUSH2 0x1388 PUSH1 0x20 DUP3 ADD MSTORE PUSH2 0x3E8 PUSH1 0x40 DUP3 ADD MSTORE PUSH9 0x2B5E3AF16B1880000 PUSH1 0x60 DUP3 ADD MSTORE PUSH1 0x1 PUSH1 0x80 DUP3 ADD MSTORE PUSH1 0x0 PUSH1 0xA0 DUP3 ADD MSTORE PUSH1 0x2 PUSH1 0x0 MSTORE PUSH1 0x3 PUSH1 0x20 MSTORE PUSH1 0x40 PUSH1 0x0 KECCAK256 DUP2 MLOAD DUP1 MLOAD SWAP1 PUSH1 0x1 DUP1 PUSH1 0x40 SHL SUB DUP3 GT PUSH3 0x6E5 JUMPI DUP3 SLOAD PUSH1 0x1 DUP2 DUP2 SHR SWAP2 AND DUP1 ISZERO PUSH3 0x898 JUMPI JUMPDEST PUSH1 0x20 DUP3 LT EQ PUSH3 0x6C4 JUMPI PUSH1 0x1F DUP2 GT PUSH3 0x84F JUMPI JUMPDEST POP PUSH1 0x20 SWAP1 PUSH1 0x1F DUP4 GT PUSH1 0x1 EQ PUSH3 0x7DB JUMPI SWAP2 DUP1 PUSH1 0xA0 SWAP5 SWAP3 PUSH1 0x4 SWAP5 PUSH1 0x0 SWAP3 PUSH3 0x7CF JUMPI JUMPDEST POP POP DUP2 PUSH1 0x1 SHL SWAP2 PUSH1 0x0 NOT SWAP1 PUSH1 0x3 SHL SHR NOT AND OR DUP2 SSTORE JUMPDEST PUSH1 0x20 DUP5 ADD MLOAD PUSH1 0x1 DUP3 ADD SSTORE PUSH1 0x40 DUP5 ADD MLOAD PUSH1 0x2 DUP3 ADD SSTORE PUSH1 0x60 DUP5 ADD MLOAD PUSH1 0x3 DUP3 ADD SSTORE ADD SWAP2 PUSH3 0x382 PUSH1 0x80 DUP3 ADD MLOAD ISZERO ISZERO DUP5 SWAP1 PUSH1 0xFF DUP1 NOT DUP4 SLOAD AND SWAP2 ISZERO ISZERO AND OR SWAP1 SSTORE JUMP JUMPDEST ADD MLOAD DUP2 SLOAD PUSH2 0xFF00 NOT AND SWAP1 ISZERO ISZERO PUSH1 0x8 SHL PUSH2 0xFF00 AND OR SWAP1 SSTORE PUSH3 0x3A2 PUSH3 0xB72 JUMP JUMPDEST PUSH3 0x3AC PUSH3 0xB92 JUMP JUMPDEST PUSH1 0x4 DUP2 MSTORE PUSH4 0x11DBDB19 PUSH1 0xE2 SHL PUSH1 0x20 DUP3 ADD MSTORE DUP2 MSTORE PUSH2 0x1B58 PUSH1 0x20 DUP3 ADD MSTORE PUSH2 0x5DC PUSH1 0x40 DUP3 ADD MSTORE PUSH9 0xAD78EBC5AC6200000 PUSH1 0x60 DUP3 ADD MSTORE PUSH1 0x1 PUSH1 0x80 DUP3 ADD MSTORE PUSH1 0x1 PUSH1 0xA0 DUP3 ADD MSTORE PUSH1 0x3 PUSH1 0x0 MSTORE PUSH1 0x3 PUSH1 0x20 MSTORE PUSH1 0x40 PUSH1 0x0 KECCAK256 DUP2 MLOAD DUP1 MLOAD SWAP1 PUSH1 0x1 DUP1 PUSH1 0x40 SHL SUB DUP3 GT PUSH3 0x6E5 JUMPI DUP3 SLOAD PUSH1 0x1 DUP2 DUP2 SHR SWAP2 AND DUP1 ISZERO PUSH3 0x7C4 JUMPI JUMPDEST PUSH1 0x20 DUP3 LT EQ PUSH3 0x6C4 JUMPI PUSH1 0x1F DUP2 GT PUSH3 0x77B JUMPI JUMPDEST POP PUSH1 0x20 SWAP1 PUSH1 0x1F DUP4 GT PUSH1 0x1 EQ PUSH3 0x707 JUMPI SWAP2 DUP1 PUSH1 0xA0 SWAP5 SWAP3 PUSH1 0x4 SWAP5 PUSH1 0x0 SWAP3 PUSH3 0x6FB JUMPI JUMPDEST POP POP DUP2 PUSH1 0x1 SHL SWAP2 PUSH1 0x0 NOT SWAP1 PUSH1 0x3 SHL SHR NOT AND OR DUP2 SSTORE JUMPDEST PUSH1 0x20 DUP5 ADD MLOAD PUSH1 0x1 DUP3 ADD SSTORE PUSH1 0x40 DUP5 ADD MLOAD PUSH1 0x2 DUP3 ADD SSTORE PUSH1 0x60 DUP5 ADD MLOAD PUSH1 0x3 DUP3 ADD SSTORE ADD SWAP2 PUSH3 0x4A7 PUSH1 0x80 DUP3 ADD MLOAD ISZERO ISZERO DUP5 SWAP1 PUSH1 0xFF DUP1 NOT DUP4 SLOAD AND SWAP2 ISZERO ISZERO AND OR SWAP1 SSTORE JUMP JUMPDEST ADD MLOAD DUP2 SLOAD PUSH2 0xFF00 NOT AND SWAP1 ISZERO ISZERO PUSH1 0x8 SHL PUSH2 0xFF00 AND OR SWAP1 SSTORE PUSH3 0x4C7 PUSH3 0xB72 JUMP JUMPDEST PUSH3 0x4D1 PUSH3 0xB92 JUMP JUMPDEST PUSH1 0x8 DUP2 MSTORE PUSH8 0x506C6174696E756D PUSH1 0xC0 SHL PUSH1 0x20 DUP3 ADD MSTORE DUP2 MSTORE PUSH2 0x2328 PUSH1 0x20 DUP3 ADD MSTORE PUSH2 0x9C4 PUSH1 0x40 DUP3 ADD MSTORE PUSH9 0x3635C9ADC5DEA00000 PUSH1 0x60 DUP3 ADD MSTORE PUSH1 0x1 PUSH1 0x80 DUP3 ADD MSTORE PUSH1 0x1 PUSH1 0xA0 DUP3 ADD MSTORE PUSH1 0x4 PUSH1 0x0 MSTORE PUSH1 0x3 PUSH1 0x20 MSTORE PUSH1 0x40 PUSH1 0x0 KECCAK256 DUP2 MLOAD DUP1 MLOAD SWAP1 PUSH1 0x1 DUP1 PUSH1 0x40 SHL SUB DUP3 GT PUSH3 0x6E5 JUMPI DUP3 SLOAD PUSH1 0x1 DUP2 DUP2 SHR SWAP2 AND DUP1 ISZERO PUSH3 0x6DA JUMPI JUMPDEST PUSH1 0x20 DUP3 LT EQ PUSH3 0x6C4 JUMPI PUSH1 0x1F DUP2 GT PUSH3 0x67B JUMPI JUMPDEST POP PUSH1 0x20 SWAP1 PUSH1 0x1F DUP4 GT PUSH1 0x1 EQ PUSH3 0x607 JUMPI SWAP2 DUP1 PUSH1 0xA0 SWAP5 SWAP3 PUSH1 0x4 SWAP5 PUSH1 0x0 SWAP3 PUSH3 0x5FB JUMPI JUMPDEST POP POP DUP2 PUSH1 0x1 SHL SWAP2 PUSH1 0x0 NOT SWAP1 PUSH1 0x3 SHL SHR NOT AND OR DUP2 SSTORE JUMPDEST PUSH1 0x20 DUP5 ADD MLOAD PUSH1 0x1 DUP3 ADD SSTORE PUSH1 0x40 DUP5 ADD MLOAD PUSH1 0x2 DUP3 ADD SSTORE PUSH1 0x60 DUP5 ADD MLOAD PUSH1 0x3 DUP3 ADD SSTORE ADD SWAP2 PUSH3 0x5D0 PUSH1 0x80 DUP3 ADD MLOAD ISZERO ISZERO DUP5 SWAP1 PUSH1 0xFF DUP1 NOT DUP4 SLOAD AND SWAP2 ISZERO ISZERO AND OR SWAP1 SSTORE JUMP JUMPDEST ADD MLOAD DUP2 SLOAD PUSH2 0xFF00 NOT AND SWAP1 ISZERO ISZERO PUSH1 0x8 SHL PUSH2 0xFF00 AND OR SWAP1 SSTORE PUSH1 0x5 PUSH1 0x4 SSTORE PUSH1 0x40 MLOAD PUSH2 0x243D SWAP1 DUP2 PUSH3 0xBB3 DUP3 CODECOPY RETURN JUMPDEST ADD MLOAD SWAP1 POP CODESIZE DUP1 PUSH3 0x57E JUMP JUMPDEST SWAP1 DUP4 PUSH1 0x0 MSTORE PUSH1 0x20 PUSH1 0x0 KECCAK256 SWAP2 PUSH1 0x0 JUMPDEST PUSH1 0x1F NOT DUP6 AND DUP2 LT PUSH3 0x662 JUMPI POP SWAP3 PUSH1 0xA0 SWAP5 SWAP3 PUSH1 0x1 SWAP3 PUSH1 0x4 SWAP6 DUP4 PUSH1 0x1F NOT DUP2 AND LT PUSH3 0x648 JUMPI JUMPDEST POP POP POP DUP2 SHL ADD DUP2 SSTORE PUSH3 0x593 JUMP JUMPDEST ADD MLOAD PUSH1 0x0 NOT PUSH1 0xF8 DUP5 PUSH1 0x3 SHL AND SHR NOT AND SWAP1 SSTORE CODESIZE DUP1 DUP1 PUSH3 0x63A JUMP JUMPDEST SWAP2 SWAP3 PUSH1 0x20 PUSH1 0x1 DUP2 SWAP3 DUP7 DUP6 ADD MLOAD DUP2 SSTORE ADD SWAP5 ADD SWAP3 ADD PUSH3 0x615 JUMP JUMPDEST DUP4 PUSH1 0x0 MSTORE PUSH1 0x20 PUSH1 0x0 KECCAK256 PUSH1 0x1F DUP5 ADD PUSH1 0x5 SHR DUP2 ADD PUSH1 0x20 DUP6 LT PUSH3 0x6BC JUMPI JUMPDEST PUSH1 0x1F DUP4 ADD PUSH1 0x5 SHR DUP3 ADD DUP2 LT PUSH3 0x6AF JUMPI POP POP PUSH3 0x55C JUMP JUMPDEST PUSH1 0x0 DUP2 SSTORE PUSH1 0x1 ADD PUSH3 0x697 JUMP JUMPDEST POP DUP1 PUSH3 0x697 JUMP JUMPDEST PUSH4 0x4E487B71 PUSH1 0xE0 SHL PUSH1 0x0 MSTORE PUSH1 0x22 PUSH1 0x4 MSTORE PUSH1 0x24 PUSH1 0x0 REVERT JUMPDEST SWAP1 PUSH1 0x7F AND SWAP1 PUSH3 0x548 JUMP JUMPDEST PUSH4 0x4E487B71 PUSH1 0xE0 SHL PUSH1 0x0 MSTORE PUSH1 0x41 PUSH1 0x4 MSTORE PUSH1 0x24 PUSH1 0x0 REVERT JUMPDEST ADD MLOAD SWAP1 POP CODESIZE DUP1 PUSH3 0x455 JUMP JUMPDEST SWAP1 DUP4 PUSH1 0x0 MSTORE PUSH1 0x20 PUSH1 0x0 KECCAK256 SWAP2 PUSH1 0x0 JUMPDEST PUSH1 0x1F NOT DUP6 AND DUP2 LT PUSH3 0x762 JUMPI POP SWAP3 PUSH1 0xA0 SWAP5 SWAP3 PUSH1 0x1 SWAP3 PUSH1 0x4 SWAP6 DUP4 PUSH1 0x1F NOT DUP2 AND LT PUSH3 0x748 JUMPI JUMPDEST POP POP POP DUP2 SHL ADD DUP2 SSTORE PUSH3 0x46A JUMP JUMPDEST ADD MLOAD PUSH1 0x0 NOT PUSH1 0xF8 DUP5 PUSH1 0x3 SHL AND SHR NOT AND SWAP1 SSTORE CODESIZE DUP1 DUP1 PUSH3 0x73A JUMP JUMPDEST SWAP2 SWAP3 PUSH1 0x20 PUSH1 0x1 DUP2 SWAP3 DUP7 DUP6 ADD MLOAD DUP2 SSTORE ADD SWAP5 ADD SWAP3 ADD PUSH3 0x715 JUMP JUMPDEST DUP4 PUSH1 0x0 MSTORE PUSH1 0x20 PUSH1 0x0 KECCAK256 PUSH1 0x1F DUP5 ADD PUSH1 0x5 SHR DUP2 ADD PUSH1 0x20 DUP6 LT PUSH3 0x7BC JUMPI JUMPDEST PUSH1 0x1F DUP4 ADD PUSH1 0x5 SHR DUP3 ADD DUP2 LT PUSH3 0x7AF JUMPI POP POP PUSH3 0x433 JUMP JUMPDEST PUSH1 0x0 DUP2 SSTORE PUSH1 0x1 ADD PUSH3 0x797 JUMP JUMPDEST POP DUP1 PUSH3 0x797 JUMP JUMPDEST SWAP1 PUSH1 0x7F AND SWAP1 PUSH3 0x41F JUMP JUMPDEST ADD MLOAD SWAP1 POP CODESIZE DUP1 PUSH3 0x330 JUMP JUMPDEST SWAP1 DUP4 PUSH1 0x0 MSTORE PUSH1 0x20 PUSH1 0x0 KECCAK256 SWAP2 PUSH1 0x0 JUMPDEST PUSH1 0x1F NOT DUP6 AND DUP2 LT PUSH3 0x836 JUMPI POP SWAP3 PUSH1 0xA0 SWAP5 SWAP3 PUSH1 0x1 SWAP3 PUSH1 0x4 SWAP6 DUP4 PUSH1 0x1F NOT DUP2 AND LT PUSH3 0x81C JUMPI JUMPDEST POP POP POP DUP2 SHL ADD DUP2 SSTORE PUSH3 0x345 JUMP JUMPDEST ADD MLOAD PUSH1 0x0 NOT PUSH1 0xF8 DUP5 PUSH1 0x3 SHL AND SHR NOT AND SWAP1 SSTORE CODESIZE DUP1 DUP1 PUSH3 0x80E JUMP JUMPDEST SWAP2 SWAP3 PUSH1 0x20 PUSH1 0x1 DUP2 SWAP3 DUP7 DUP6 ADD MLOAD DUP2 SSTORE ADD SWAP5 ADD SWAP3 ADD PUSH3 0x7E9 JUMP JUMPDEST DUP4 PUSH1 0x0 MSTORE PUSH1 0x20 PUSH1 0x0 KECCAK256 PUSH1 0x1F DUP5 ADD PUSH1 0x5 SHR DUP2 ADD PUSH1 0x20 DUP6 LT PUSH3 0x890 JUMPI JUMPDEST PUSH1 0x1F DUP4 ADD PUSH1 0x5 SHR DUP3 ADD DUP2 LT PUSH3 0x883 JUMPI POP POP PUSH3 0x30E JUMP JUMPDEST PUSH1 0x0 DUP2 SSTORE PUSH1 0x1 ADD PUSH3 0x86B JUMP JUMPDEST POP DUP1 PUSH3 0x86B JUMP JUMPDEST SWAP1 PUSH1 0x7F AND SWAP1 PUSH3 0x2FA JUMP JUMPDEST ADD MLOAD SWAP1 POP CODESIZE DUP1 PUSH3 0x209 JUMP JUMPDEST SWAP1 DUP4 PUSH1 0x0 MSTORE PUSH1 0x20 PUSH1 0x0 KECCAK256 SWAP2 PUSH1 0x0 JUMPDEST PUSH1 0x1F NOT DUP6 AND DUP2 LT PUSH3 0x90A JUMPI POP SWAP3 PUSH1 0xA0 SWAP5 SWAP3 PUSH1 0x1 SWAP3 PUSH1 0x4 SWAP6 DUP4 PUSH1 0x1F NOT DUP2 AND LT PUSH3 0x8F0 JUMPI JUMPDEST POP POP POP DUP2 SHL ADD DUP2 SSTORE PUSH3 0x21E JUMP JUMPDEST ADD MLOAD PUSH1 0x0 NOT PUSH1 0xF8 DUP5 PUSH1 0x3 SHL AND SHR NOT AND SWAP1 SSTORE CODESIZE DUP1 DUP1 PUSH3 0x8E2 JUMP JUMPDEST SWAP2 SWAP3 PUSH1 0x20 PUSH1 0x1 DUP2 SWAP3 DUP7 DUP6 ADD MLOAD DUP2 SSTORE ADD SWAP5 ADD SWAP3 ADD PUSH3 0x8BD JUMP JUMPDEST DUP4 PUSH1 0x0 MSTORE PUSH1 0x20 PUSH1 0x0 KECCAK256 PUSH1 0x1F DUP5 ADD PUSH1 0x5 SHR DUP2 ADD PUSH1 0x20 DUP6 LT PUSH3 0x964 JUMPI JUMPDEST PUSH1 0x1F DUP4 ADD PUSH1 0x5 SHR DUP3 ADD DUP2 LT PUSH3 0x957 JUMPI POP POP PUSH3 0x1E7 JUMP JUMPDEST PUSH1 0x0 DUP2 SSTORE PUSH1 0x1 ADD PUSH3 0x93F JUMP JUMPDEST POP DUP1 PUSH3 0x93F JUMP JUMPDEST SWAP1 PUSH1 0x7F AND SWAP1 PUSH3 0x1D3 JUMP JUMPDEST ADD MLOAD SWAP1 POP CODESIZE DUP1 PUSH3 0xE3 JUMP JUMPDEST SWAP1 DUP4 PUSH1 0x0 MSTORE PUSH1 0x20 PUSH1 0x0 KECCAK256 SWAP2 PUSH1 0x0 JUMPDEST PUSH1 0x1F NOT DUP6 AND DUP2 LT PUSH3 0x9DE JUMPI POP SWAP3 PUSH1 0xA0 SWAP5 SWAP3 PUSH1 0x1 SWAP3 PUSH1 0x4 SWAP6 DUP4 PUSH1 0x1F NOT DUP2 AND LT PUSH3 0x9C4 JUMPI JUMPDEST POP POP POP DUP2 SHL ADD DUP2 SSTORE PUSH3 0xF8 JUMP JUMPDEST ADD MLOAD PUSH1 0x0 NOT PUSH1 0xF8 DUP5 PUSH1 0x3 SHL AND SHR NOT AND SWAP1 SSTORE CODESIZE DUP1 DUP1 PUSH3 0x9B6 JUMP JUMPDEST SWAP2 SWAP3 PUSH1 0x20 PUSH1 0x1 DUP2 SWAP3 DUP7 DUP6 ADD MLOAD DUP2 SSTORE ADD SWAP5 ADD SWAP3 ADD PUSH3 0x991 JUMP JUMPDEST DUP4 PUSH1 0x0 MSTORE PUSH1 0x20 PUSH1 0x0 KECCAK256 PUSH1 0x1F DUP5 ADD PUSH1 0x5 SHR DUP2 ADD PUSH1 0x20 DUP6 LT PUSH3 0xA38 JUMPI JUMPDEST PUSH1 0x1F DUP4 ADD PUSH1 0x5 SHR DUP3 ADD DUP2 LT PUSH3 0xA2B JUMPI POP POP PUSH3 0xC1 JUMP JUMPDEST PUSH1 0x0 DUP2 SSTORE PUSH1 0x1 ADD PUSH3 0xA13 JUMP JUMPDEST POP DUP1 PUSH3 0xA13 JUMP JUMPDEST SWAP1 PUSH1 0x7F AND SWAP1 PUSH3 0xAD JUMP JUMPDEST PUSH1 0x0 DUP1 REVERT JUMPDEST PUSH1 0x1 PUSH1 0x1 PUSH1 0xA0 SHL SUB AND PUSH1 0x0 DUP2 DUP2 MSTORE PUSH32 0xAD3228B676F7D3CD4284A5443F17F1962B36E491B30A40B2405849E597BA5FB5 PUSH1 0x20 MSTORE PUSH1 0x40 DUP2 KECCAK256 SLOAD SWAP1 SWAP2 SWAP1 PUSH1 0xFF AND PUSH3 0xACC JUMPI DUP2 DUP1 MSTORE DUP2 PUSH1 0x20 MSTORE PUSH1 0x40 DUP3 KECCAK256 DUP2 DUP4 MSTORE PUSH1 0x20 MSTORE PUSH1 0x40 DUP3 KECCAK256 PUSH1 0x1 PUSH1 0xFF NOT DUP3 SLOAD AND OR SWAP1 SSTORE CALLER SWAP2 PUSH1 0x0 DUP1 MLOAD PUSH1 0x20 PUSH3 0x2FF0 DUP4 CODECOPY DUP2 MLOAD SWAP2 MSTORE DUP2 DUP1 LOG4 PUSH1 0x1 SWAP1 JUMP JUMPDEST POP SWAP1 JUMP JUMPDEST PUSH1 0x1 PUSH1 0x1 PUSH1 0xA0 SHL SUB AND PUSH1 0x0 DUP2 DUP2 MSTORE PUSH32 0xF179AAFCC4FF8137FCA1EF3B9EC4D165F87016BA123E7973FBA770BC55E240E3 PUSH1 0x20 MSTORE PUSH1 0x40 DUP2 KECCAK256 SLOAD SWAP1 SWAP2 SWAP1 PUSH32 0x71F3D55856E4058ED06EE057D79ADA615F65CDF5F9EE88181B914225088F834F SWAP1 PUSH1 0xFF AND PUSH3 0xB6D JUMPI DUP1 DUP4 MSTORE DUP3 PUSH1 0x20 MSTORE PUSH1 0x40 DUP4 KECCAK256 DUP3 DUP5 MSTORE PUSH1 0x20 MSTORE PUSH1 0x40 DUP4 KECCAK256 PUSH1 0x1 PUSH1 0xFF NOT DUP3 SLOAD AND OR SWAP1 SSTORE PUSH1 0x0 DUP1 MLOAD PUSH1 0x20 PUSH3 0x2FF0 DUP4 CODECOPY DUP2 MLOAD SWAP2 MSTORE CALLER SWAP4 DUP1 LOG4 PUSH1 0x1 SWAP1 JUMP JUMPDEST POP POP SWAP1 JUMP JUMPDEST PUSH1 0x40 MLOAD SWAP1 PUSH1 0xC0 DUP3 ADD PUSH1 0x1 PUSH1 0x1 PUSH1 0x40 SHL SUB DUP2 GT DUP4 DUP3 LT OR PUSH3 0x6E5 JUMPI PUSH1 0x40 MSTORE JUMP JUMPDEST PUSH1 0x40 DUP1 MLOAD SWAP2 SWAP1 DUP3 ADD PUSH1 0x1 PUSH1 0x1 PUSH1 0x40 SHL SUB DUP2 GT DUP4 DUP3 LT OR PUSH3 0x6E5 JUMPI PUSH1 0x40 MSTORE JUMP INVALID PUSH1 0x80 DUP1 PUSH1 0x40 MSTORE PUSH1 0x4 CALLDATASIZE LT ISZERO PUSH2 0x13 JUMPI PUSH1 0x0 DUP1 REVERT JUMPDEST PUSH1 0x0 SWAP1 DUP2 CALLDATALOAD PUSH1 0xE0 SHR SWAP1 DUP2 PUSH4 0x1FFC9A7 EQ PUSH2 0x1874 JUMPI POP DUP1 PUSH4 0x6C71579 EQ PUSH2 0x1846 JUMPI DUP1 PUSH4 0xF96F2D3 EQ PUSH2 0x17C3 JUMPI DUP1 PUSH4 0x1F027CEF EQ PUSH2 0x14AC JUMPI DUP1 PUSH4 0x238DCF88 EQ PUSH2 0x17A6 JUMPI DUP1 PUSH4 0x248A9CA3 EQ PUSH2 0x177A JUMPI DUP1 PUSH4 0x2617F71E EQ PUSH2 0x175D JUMPI DUP1 PUSH4 0x2F2FF15D EQ PUSH2 0x1720 JUMPI DUP1 PUSH4 0x36568ABE EQ PUSH2 0x16D8 JUMPI DUP1 PUSH4 0x3A6F6B38 EQ PUSH2 0x42C JUMPI DUP1 PUSH4 0x44A2008B EQ PUSH2 0x16BC JUMPI DUP1 PUSH4 0x44D23D6F EQ PUSH2 0x1692 JUMPI DUP1 PUSH4 0x4D12B695 EQ PUSH2 0x1591 JUMPI DUP1 PUSH4 0x4F062C5A EQ PUSH2 0x1509 JUMPI DUP1 PUSH4 0x4F2B0D4A EQ PUSH2 0x14EC JUMPI DUP1 PUSH4 0x623A41C2 EQ PUSH2 0x14B1 JUMPI DUP1 PUSH4 0x68766A64 EQ PUSH2 0x14AC JUMPI DUP1 PUSH4 0x697C6045 EQ PUSH2 0x14AC JUMPI DUP1 PUSH4 0x75A67D5C EQ PUSH2 0x13CC JUMPI DUP1 PUSH4 0x797669C9 EQ PUSH2 0x1391 JUMPI DUP1 PUSH4 0x8644032C EQ PUSH2 0x136D JUMPI DUP1 PUSH4 0x8EA5E4C6 EQ PUSH2 0x1106 JUMPI DUP1 PUSH4 0x91D14854 EQ PUSH2 0x10BE JUMPI DUP1 PUSH4 0x96B55F7D EQ PUSH2 0x10A0 JUMPI DUP1 PUSH4 0x978374B1 EQ PUSH2 0xEF8 JUMPI DUP1 PUSH4 0x9C89A0E2 EQ PUSH2 0xD43 JUMPI DUP1 PUSH4 0x9E21592B EQ PUSH2 0xBA0 JUMPI DUP1 PUSH4 0x9ED9B4FD EQ PUSH2 0xB5D JUMPI DUP1 PUSH4 0xA217FDDF EQ PUSH2 0xB41 JUMPI DUP1 PUSH4 0xA4D6F0B0 EQ PUSH2 0xB24 JUMPI DUP1 PUSH4 0xB7FA7CFC EQ PUSH2 0xAF8 JUMPI DUP1 PUSH4 0xBF93FAF5 EQ PUSH2 0x7A7 JUMPI DUP1 PUSH4 0xD213C0F2 EQ PUSH2 0x78A JUMPI DUP1 PUSH4 0xD36D0DAC EQ PUSH2 0x5BB JUMPI DUP1 PUSH4 0xD547741F EQ PUSH2 0x57A JUMPI DUP1 PUSH4 0xDE8BE6FD EQ PUSH2 0x431 JUMPI DUP1 PUSH4 0xDF230361 EQ PUSH2 0x42C JUMPI DUP1 PUSH4 0xE4D2620E EQ PUSH2 0x3ED JUMPI DUP1 PUSH4 0xE9610B50 EQ PUSH2 0x3D1 JUMPI DUP1 PUSH4 0xEB30F6FB EQ PUSH2 0x3B4 JUMPI DUP1 PUSH4 0xF8B11691 EQ PUSH2 0x2E5 JUMPI PUSH4 0xFF1F9C42 EQ PUSH2 0x1EF JUMPI PUSH1 0x0 DUP1 REVERT JUMPDEST CALLVALUE PUSH2 0x2E2 JUMPI PUSH1 0x40 CALLDATASIZE PUSH1 0x3 NOT ADD SLT PUSH2 0x2E2 JUMPI PUSH2 0x208 PUSH2 0x18C9 JUMP JUMPDEST PUSH1 0x24 CALLDATALOAD SWAP1 PUSH2 0x214 PUSH2 0x1C61 JUMP JUMPDEST PUSH2 0xE10 PUSH2 0x220 DUP3 PUSH2 0x1F60 JUMP JUMPDEST SWAP3 DUP1 PUSH1 0x6 DUP6 ADD DUP1 SLOAD DUP1 ISZERO PUSH1 0x0 EQ PUSH2 0x2CD JUMPI POP SSTORE JUMPDEST LT PUSH2 0x23D JUMPI DUP3 DUP1 RETURN JUMPDEST DUP2 SLOAD SWAP2 PUSH1 0x64 DUP4 ADD DUP1 DUP5 GT PUSH2 0x2B9 JUMPI SWAP2 PUSH1 0xA0 SWAP2 PUSH1 0x0 DUP1 MLOAD PUSH1 0x20 PUSH2 0x23C8 DUP4 CODECOPY DUP2 MLOAD SWAP2 MSTORE SWAP4 PUSH2 0x2710 SWAP1 DUP2 DUP2 GT PUSH1 0x0 EQ PUSH2 0x2B0 JUMPI POP DUP1 SWAP2 JUMPDEST SSTORE PUSH1 0x40 MLOAD SWAP5 DUP6 MSTORE PUSH1 0x20 DUP6 ADD MSTORE PUSH1 0x60 PUSH1 0x40 DUP6 ADD MSTORE PUSH1 0xD PUSH1 0x60 DUP6 ADD MSTORE PUSH13 0x4661737420726573706F6E7365 PUSH1 0x98 SHL PUSH1 0x80 DUP6 ADD MSTORE PUSH1 0x1 DUP1 DUP4 SHL SUB AND SWAP3 LOG2 CODESIZE DUP1 DUP3 DUP1 RETURN JUMPDEST SWAP1 POP DUP1 SWAP2 PUSH2 0x271 JUMP JUMPDEST PUSH4 0x4E487B71 PUSH1 0xE0 SHL DUP6 MSTORE PUSH1 0x11 PUSH1 0x4 MSTORE PUSH1 0x24 DUP6 REVERT JUMPDEST SWAP2 PUSH2 0x2D8 SWAP2 SWAP3 PUSH2 0x1F97 JUMP JUMPDEST PUSH1 0x1 SHR SWAP1 SSTORE PUSH2 0x234 JUMP JUMPDEST DUP1 REVERT JUMPDEST POP CALLVALUE PUSH2 0x2E2 JUMPI PUSH1 0x20 CALLDATASIZE PUSH1 0x3 NOT ADD SLT PUSH2 0x2E2 JUMPI PUSH1 0x40 SWAP1 PUSH1 0x1 PUSH1 0x1 PUSH1 0xA0 SHL SUB PUSH2 0x30A PUSH2 0x18C9 JUMP JUMPDEST AND DUP2 MSTORE PUSH1 0x2 PUSH1 0x20 MSTORE KECCAK256 DUP1 SLOAD PUSH2 0x3B0 PUSH1 0x1 DUP4 ADD SLOAD SWAP3 PUSH1 0x2 DUP2 ADD SLOAD SWAP1 PUSH1 0x3 DUP2 ADD SLOAD PUSH1 0x4 DUP3 ADD SLOAD PUSH1 0x5 DUP4 ADD SLOAD PUSH1 0x6 DUP5 ADD SLOAD PUSH1 0x7 DUP6 ADD SLOAD SWAP2 PUSH1 0x8 DUP7 ADD SLOAD SWAP4 PUSH1 0x9 DUP8 ADD SLOAD SWAP6 PUSH2 0x35E PUSH1 0xB PUSH1 0xFF PUSH1 0xA DUP12 ADD SLOAD AND SWAP10 ADD PUSH2 0x19C1 JUMP JUMPDEST SWAP9 PUSH1 0x40 MLOAD SWAP13 DUP14 SWAP13 DUP14 MSTORE PUSH1 0x20 DUP14 ADD MSTORE PUSH1 0x40 DUP13 ADD MSTORE PUSH1 0x60 DUP12 ADD MSTORE PUSH1 0x80 DUP11 ADD MSTORE PUSH1 0xA0 DUP10 ADD MSTORE PUSH1 0xC0 DUP9 ADD MSTORE PUSH1 0xE0 DUP8 ADD MSTORE PUSH2 0x100 DUP7 ADD MSTORE PUSH2 0x120 DUP6 ADD MSTORE ISZERO ISZERO PUSH2 0x140 DUP5 ADD MSTORE PUSH2 0x180 DUP1 PUSH2 0x160 DUP6 ADD MSTORE DUP4 ADD SWAP1 PUSH2 0x1A67 JUMP JUMPDEST SUB SWAP1 RETURN JUMPDEST POP CALLVALUE PUSH2 0x2E2 JUMPI DUP1 PUSH1 0x3 NOT CALLDATASIZE ADD SLT PUSH2 0x2E2 JUMPI PUSH1 0x20 PUSH1 0x40 MLOAD PUSH2 0x320 DUP2 MSTORE RETURN JUMPDEST POP CALLVALUE PUSH2 0x2E2 JUMPI DUP1 PUSH1 0x3 NOT CALLDATASIZE ADD SLT PUSH2 0x2E2 JUMPI PUSH1 0x20 PUSH1 0x40 MLOAD PUSH1 0xC8 DUP2 MSTORE RETURN JUMPDEST POP CALLVALUE PUSH2 0x2E2 JUMPI PUSH1 0x20 CALLDATASIZE PUSH1 0x3 NOT ADD SLT PUSH2 0x2E2 JUMPI PUSH2 0x40F PUSH2 0x40A PUSH2 0x18C9 JUMP JUMPDEST PUSH2 0x211F JUMP JUMPDEST SWAP1 PUSH2 0x3B0 PUSH1 0x40 MLOAD SWAP3 DUP4 SWAP3 DUP4 MSTORE PUSH1 0x40 PUSH1 0x20 DUP5 ADD MSTORE PUSH1 0x40 DUP4 ADD SWAP1 PUSH2 0x1AE0 JUMP JUMPDEST PUSH2 0x1AC3 JUMP JUMPDEST POP CALLVALUE PUSH2 0x2E2 JUMPI PUSH2 0x440 CALLDATASIZE PUSH2 0x1B69 JUMP JUMPDEST SWAP1 PUSH2 0x44C SWAP4 SWAP3 SWAP4 PUSH2 0x1C05 JUMP JUMPDEST PUSH2 0x455 DUP5 PUSH2 0x1F60 JUMP JUMPDEST SWAP4 PUSH1 0xB PUSH1 0xA DUP7 ADD SWAP6 PUSH1 0x1 SWAP7 DUP8 PUSH1 0xFF NOT DUP3 SLOAD AND OR SWAP1 SSTORE ADD PUSH8 0xFFFFFFFFFFFFFFFF DUP5 GT PUSH2 0x566 JUMPI PUSH2 0x48E DUP5 PUSH2 0x488 DUP4 SLOAD PUSH2 0x18FA JUMP JUMPDEST DUP4 PUSH2 0x1EFC JUMP JUMPDEST DUP5 SWAP6 PUSH1 0x1F DUP6 GT PUSH1 0x1 EQ PUSH2 0x4F3 JUMPI SWAP4 DUP1 PUSH1 0x0 DUP1 MLOAD PUSH1 0x20 PUSH2 0x23E8 DUP4 CODECOPY DUP2 MLOAD SWAP2 MSTORE SWAP6 DUP8 SWAP9 DUP3 SWAP9 SWAP4 PUSH2 0x4E8 JUMPI JUMPDEST POP SHL SWAP1 PUSH1 0x0 NOT DUP8 PUSH1 0x3 SHL SHR NOT AND OR SWAP1 SSTORE JUMPDEST PUSH2 0x4E2 PUSH1 0x40 MLOAD SWAP3 DUP4 SWAP3 PUSH1 0x1 DUP1 PUSH1 0xA0 SHL SUB AND SWAP6 CALLER SWAP2 DUP5 PUSH2 0x2062 JUMP JUMPDEST SUB SWAP1 LOG2 DUP1 RETURN JUMPDEST DUP7 ADD CALLDATALOAD SWAP3 POP CODESIZE PUSH2 0x4B7 JUMP JUMPDEST DUP2 DUP7 MSTORE PUSH1 0x20 DUP1 DUP8 KECCAK256 PUSH1 0x1F NOT DUP8 AND SWAP9 SWAP1 SWAP2 DUP9 SWAP1 JUMPDEST DUP11 DUP3 LT PUSH2 0x54F JUMPI POP POP DUP7 PUSH1 0x0 DUP1 MLOAD PUSH1 0x20 PUSH2 0x23E8 DUP4 CODECOPY DUP2 MLOAD SWAP2 MSTORE SWAP8 SWAP9 SWAP10 LT PUSH2 0x535 JUMPI JUMPDEST POP POP DUP6 DUP2 SHL ADD SWAP1 SSTORE PUSH2 0x4C8 JUMP JUMPDEST DUP6 ADD CALLDATALOAD PUSH1 0x0 NOT PUSH1 0x3 DUP10 SWAP1 SHL PUSH1 0xF8 AND SHR NOT AND SWAP1 SSTORE CODESIZE DUP1 PUSH2 0x528 JUMP JUMPDEST DUP1 DUP6 DUP5 SWAP6 DUP3 SWAP5 SWAP6 DUP12 ADD CALLDATALOAD DUP2 SSTORE ADD SWAP5 ADD SWAP3 ADD SWAP1 PUSH2 0x506 JUMP JUMPDEST PUSH4 0x4E487B71 PUSH1 0xE0 SHL DUP6 MSTORE PUSH1 0x41 PUSH1 0x4 MSTORE PUSH1 0x24 DUP6 REVERT JUMPDEST POP CALLVALUE PUSH2 0x2E2 JUMPI PUSH1 0x40 CALLDATASIZE PUSH1 0x3 NOT ADD SLT PUSH2 0x2E2 JUMPI PUSH2 0x5B7 PUSH1 0x4 CALLDATALOAD PUSH2 0x59A PUSH2 0x18E4 JUMP JUMPDEST SWAP1 DUP1 DUP5 MSTORE DUP4 PUSH1 0x20 MSTORE PUSH2 0x5B2 PUSH1 0x1 PUSH1 0x40 DUP7 KECCAK256 ADD SLOAD PUSH2 0x1CBD JUMP JUMPDEST PUSH2 0x1E0E JUMP JUMPDEST POP DUP1 RETURN JUMPDEST POP CALLVALUE PUSH2 0x2E2 JUMPI PUSH2 0x5CA CALLDATASIZE PUSH2 0x1B69 JUMP JUMPDEST SWAP2 SWAP1 PUSH2 0x5D4 PUSH2 0x1C05 JUMP JUMPDEST PUSH2 0x5DD DUP3 PUSH2 0x1F60 JUMP JUMPDEST SWAP1 DUP2 SLOAD SWAP2 PUSH2 0x1F4 PUSH2 0x5ED DUP5 PUSH2 0x1FA4 JUMP JUMPDEST DUP1 DUP4 SSTORE GT ISZERO PUSH2 0x636 JUMPI JUMPDEST PUSH1 0x0 DUP1 MLOAD PUSH1 0x20 PUSH2 0x23C8 DUP4 CODECOPY DUP2 MLOAD SWAP2 MSTORE SWAP4 SWAP3 SWAP2 PUSH2 0x4E2 SWAP2 SLOAD SWAP4 PUSH1 0x40 MLOAD SWAP5 DUP6 SWAP5 DUP6 MSTORE PUSH1 0x20 DUP6 ADD MSTORE PUSH1 0x60 PUSH1 0x40 DUP6 ADD MSTORE PUSH1 0x1 DUP1 PUSH1 0xA0 SHL SUB AND SWAP6 PUSH1 0x60 DUP5 ADD SWAP2 PUSH2 0x2041 JUMP JUMPDEST PUSH1 0xA DUP2 ADD PUSH1 0x1 SWAP1 DUP2 PUSH1 0xFF NOT DUP3 SLOAD AND OR SWAP1 SSTORE PUSH1 0xB DUP3 ADD SWAP1 PUSH8 0xFFFFFFFFFFFFFFFF DUP8 GT PUSH2 0x776 JUMPI DUP7 SWAP1 PUSH2 0x671 DUP3 PUSH2 0x66B DUP6 SLOAD PUSH2 0x18FA JUMP JUMPDEST DUP6 PUSH2 0x1EFC JUMP JUMPDEST DUP9 PUSH1 0x1F DUP4 GT PUSH1 0x1 EQ PUSH2 0x6F4 JUMPI SWAP2 DUP1 PUSH1 0x0 DUP1 MLOAD PUSH1 0x20 PUSH2 0x23C8 DUP4 CODECOPY DUP2 MLOAD SWAP2 MSTORE SWAP9 SWAP8 SWAP7 SWAP5 SWAP3 PUSH2 0x4E2 SWAP7 SWAP5 DUP13 SWAP4 PUSH2 0x6E9 JUMPI JUMPDEST POP SHL SWAP1 PUSH1 0x0 NOT DUP11 PUSH1 0x3 SHL SHR NOT AND OR SWAP1 SSTORE JUMPDEST PUSH1 0x40 MLOAD PUSH1 0x1 PUSH1 0x1 PUSH1 0xA0 SHL SUB DUP7 AND SWAP1 PUSH1 0x0 DUP1 MLOAD PUSH1 0x20 PUSH2 0x23E8 DUP4 CODECOPY DUP2 MLOAD SWAP2 MSTORE SWAP1 DUP1 PUSH2 0x6DB CALLER DUP13 DUP9 DUP5 PUSH2 0x2062 JUMP JUMPDEST SUB SWAP1 LOG2 SWAP2 POP SWAP2 SWAP3 SWAP4 POP PUSH2 0x5F7 JUMP JUMPDEST DUP7 ADD CALLDATALOAD SWAP3 POP CODESIZE PUSH2 0x69F JUMP JUMPDEST DUP4 DUP11 MSTORE PUSH1 0x20 DUP1 DUP12 KECCAK256 SWAP3 SWAP4 POP DUP10 SWAP1 PUSH1 0x1F NOT DUP3 AND SWAP1 DUP13 SWAP1 JUMPDEST DUP3 DUP3 LT PUSH2 0x75C JUMPI POP POP SWAP2 PUSH1 0x0 DUP1 MLOAD PUSH1 0x20 PUSH2 0x23C8 DUP4 CODECOPY DUP2 MLOAD SWAP2 MSTORE SWAP10 SWAP9 SWAP8 SWAP6 SWAP4 SWAP2 PUSH2 0x4E2 SWAP8 SWAP6 SWAP4 LT PUSH2 0x742 JUMPI JUMPDEST POP POP DUP9 DUP2 SHL ADD SWAP1 SSTORE PUSH2 0x6B0 JUMP JUMPDEST DUP6 ADD CALLDATALOAD PUSH1 0x0 NOT PUSH1 0x3 DUP13 SWAP1 SHL PUSH1 0xF8 AND SHR NOT AND SWAP1 SSTORE CODESIZE DUP1 PUSH2 0x735 JUMP JUMPDEST DUP10 DUP6 ADD CALLDATALOAD DUP7 SSTORE SWAP5 DUP7 ADD SWAP5 SWAP4 DUP5 ADD SWAP4 DUP13 SWAP4 POP SWAP1 DUP2 ADD SWAP1 PUSH2 0x70A JUMP JUMPDEST PUSH4 0x4E487B71 PUSH1 0xE0 SHL DUP9 MSTORE PUSH1 0x41 PUSH1 0x4 MSTORE PUSH1 0x24 DUP9 REVERT JUMPDEST POP CALLVALUE PUSH2 0x2E2 JUMPI DUP1 PUSH1 0x3 NOT CALLDATASIZE ADD SLT PUSH2 0x2E2 JUMPI PUSH1 0x20 PUSH1 0x40 MLOAD PUSH2 0x2710 DUP2 MSTORE RETURN JUMPDEST POP CALLVALUE PUSH2 0x2E2 JUMPI PUSH1 0x80 CALLDATASIZE PUSH1 0x3 NOT ADD SLT PUSH2 0x2E2 JUMPI PUSH2 0x7C1 PUSH2 0x18C9 JUMP JUMPDEST SWAP1 PUSH2 0x7CA PUSH2 0x1B5A JUMP JUMPDEST PUSH1 0x44 CALLDATALOAD SWAP1 DUP2 ISZERO ISZERO DUP3 SUB PUSH2 0xAF4 JUMPI PUSH1 0x64 CALLDATALOAD SWAP4 PUSH1 0xFF DUP6 AND DUP1 SWAP6 SUB PUSH2 0xAF0 JUMPI PUSH2 0x7EE PUSH2 0x1C61 JUMP JUMPDEST PUSH2 0x7F7 DUP2 PUSH2 0x1F60 JUMP JUMPDEST SWAP3 PUSH1 0xA DUP5 ADD SWAP4 PUSH2 0x80B PUSH1 0xFF DUP7 SLOAD AND ISZERO PUSH2 0x1E83 JUMP JUMPDEST DUP1 SLOAD SWAP5 PUSH1 0x1 SWAP8 DUP9 DUP4 ADD PUSH2 0x81E DUP2 SLOAD PUSH2 0x1EC0 JUMP JUMPDEST SWAP1 SSTORE TIMESTAMP PUSH1 0x8 DUP5 ADD SSTORE DUP4 ISZERO PUSH2 0xA85 JUMPI POP PUSH1 0x4 DUP3 ADD PUSH2 0x83B DUP2 SLOAD PUSH2 0x1EC0 JUMP JUMPDEST SWAP1 SSTORE PUSH2 0x1F4 PUSH2 0x84C PUSH1 0x64 JUMPDEST DUP9 PUSH2 0x1FC4 JUMP JUMPDEST DUP1 DUP5 SSTORE GT ISZERO PUSH2 0x916 JUMPI JUMPDEST POP PUSH1 0x0 DUP1 MLOAD PUSH1 0x20 PUSH2 0x23C8 DUP4 CODECOPY DUP2 MLOAD SWAP2 MSTORE SWAP5 SWAP6 SWAP7 POP SLOAD SWAP3 PUSH1 0x0 EQ PUSH2 0x8B5 JUMPI POP PUSH2 0x4E2 PUSH1 0x40 MLOAD PUSH2 0x883 DUP2 PUSH2 0x1983 JUMP JUMPDEST PUSH1 0xB DUP2 MSTORE PUSH11 0x576F6E2064697370757465 PUSH1 0xA8 SHL PUSH1 0x20 DUP3 ADD MSTORE JUMPDEST PUSH1 0x40 MLOAD PUSH1 0x1 PUSH1 0x1 PUSH1 0xA0 SHL SUB SWAP1 SWAP4 AND SWAP6 SWAP3 SWAP4 DUP5 SWAP4 DUP5 PUSH2 0x1F41 JUMP JUMPDEST ISZERO PUSH2 0x8E9 JUMPI PUSH2 0x4E2 PUSH1 0x40 MLOAD PUSH2 0x8C9 DUP2 PUSH2 0x1983 JUMP JUMPDEST PUSH1 0xE DUP2 MSTORE PUSH14 0x29B83634BA103232B1B4B9B4B7B7 PUSH1 0x91 SHL PUSH1 0x20 DUP3 ADD MSTORE PUSH2 0x89C JUMP JUMPDEST PUSH2 0x4E2 PUSH1 0x40 MLOAD PUSH2 0x8F8 DUP2 PUSH2 0x1983 JUMP JUMPDEST PUSH1 0xC DUP2 MSTORE PUSH12 0x4C6F73742064697370757465 PUSH1 0xA0 SHL PUSH1 0x20 DUP3 ADD MSTORE PUSH2 0x89C JUMP JUMPDEST PUSH1 0xFF NOT SWAP1 DUP9 DUP3 DUP3 SLOAD AND OR SWAP1 SSTORE PUSH1 0xB DUP3 ADD SWAP1 PUSH2 0x931 DUP3 SLOAD PUSH2 0x18FA JUMP JUMPDEST PUSH1 0x1F DUP2 GT PUSH2 0xA66 JUMPI JUMPDEST POP PUSH1 0x24 PUSH18 0x52657075746174696F6E20746F6F206C6F77 PUSH1 0x70 SHL ADD SWAP9 DUP10 DUP4 SSTORE PUSH1 0x40 MLOAD SWAP3 PUSH1 0x40 DUP5 MSTORE DUP10 SWAP11 PUSH2 0x96B DUP2 PUSH2 0x18FA JUMP JUMPDEST SWAP4 DUP5 PUSH1 0x40 DUP8 ADD MSTORE DUP4 DUP3 AND SWAP2 DUP3 PUSH1 0x0 EQ PUSH2 0xA25 JUMPI POP POP PUSH1 0x1 EQ PUSH2 0x9CD JUMPI JUMPDEST POP POP ADDRESS PUSH1 0x20 DUP4 ADD MSTORE POP SWAP6 SWAP7 SWAP5 SWAP6 PUSH1 0x0 DUP1 MLOAD PUSH1 0x20 PUSH2 0x23C8 DUP4 CODECOPY DUP2 MLOAD SWAP2 MSTORE SWAP6 PUSH1 0x1 PUSH1 0x1 PUSH1 0xA0 SHL SUB DUP6 AND SWAP2 PUSH1 0x0 DUP1 MLOAD PUSH1 0x20 PUSH2 0x23E8 DUP4 CODECOPY DUP2 MLOAD SWAP2 MSTORE SWAP2 DUP2 SWAP1 SUB SWAP1 LOG2 DUP7 SWAP6 SWAP5 PUSH2 0x856 JUMP JUMPDEST SWAP1 SWAP10 POP DUP9 MSTORE PUSH1 0x20 DUP1 DUP10 KECCAK256 SWAP10 DUP10 SWAP11 JUMPDEST DUP4 DUP13 LT PUSH2 0xA11 JUMPI POP POP POP POP SWAP7 DUP8 ADD PUSH1 0x60 ADD SWAP7 PUSH1 0x0 DUP1 MLOAD PUSH1 0x20 PUSH2 0x23E8 DUP4 CODECOPY DUP2 MLOAD SWAP2 MSTORE PUSH1 0x0 DUP1 MLOAD PUSH1 0x20 PUSH2 0x23C8 DUP4 CODECOPY DUP2 MLOAD SWAP2 MSTORE CODESIZE PUSH2 0x988 JUMP JUMPDEST DUP1 SLOAD DUP6 DUP14 ADD PUSH1 0x60 ADD MSTORE SWAP11 DUP3 ADD SWAP11 DUP2 ADD PUSH2 0x9DB JUMP JUMPDEST AND PUSH1 0x60 DUP7 DUP2 ADD SWAP2 SWAP1 SWAP2 MSTORE SWAP4 ISZERO ISZERO PUSH1 0x5 SHL DUP6 ADD SWAP1 SWAP4 ADD SWAP11 POP PUSH1 0x0 DUP1 MLOAD PUSH1 0x20 PUSH2 0x23E8 DUP4 CODECOPY DUP2 MLOAD SWAP2 MSTORE SWAP3 POP PUSH1 0x0 DUP1 MLOAD PUSH1 0x20 PUSH2 0x23C8 DUP4 CODECOPY DUP2 MLOAD SWAP2 MSTORE SWAP2 POP CODESIZE SWAP1 POP PUSH2 0x988 JUMP JUMPDEST DUP3 DUP10 MSTORE PUSH1 0x20 DUP10 KECCAK256 PUSH2 0xA7F SWAP2 PUSH1 0x1F ADD PUSH1 0x5 SHR DUP2 ADD SWAP1 PUSH2 0x1EE5 JUMP JUMPDEST CODESIZE PUSH2 0x93A JUMP JUMPDEST DUP6 ISZERO PUSH2 0xABD JUMPI PUSH1 0x2 DUP4 ADD PUSH2 0xA99 DUP2 SLOAD PUSH2 0x1EC0 JUMP JUMPDEST SWAP1 SSTORE PUSH1 0x55 PUSH2 0x1F4 SWAP2 LT ISZERO PUSH2 0xAB4 JUMPI JUMPDEST PUSH2 0x84C PUSH2 0x1F4 SWAP2 PUSH2 0x846 JUMP JUMPDEST POP PUSH2 0x2BC PUSH2 0xAA8 JUMP JUMPDEST PUSH1 0x3 DUP4 ADD PUSH2 0xACB DUP2 SLOAD PUSH2 0x1EC0 JUMP JUMPDEST SWAP1 SSTORE PUSH1 0x5A PUSH2 0x12B NOT SWAP2 LT ISZERO PUSH2 0xAE6 JUMPI PUSH2 0x84C PUSH2 0x1F4 SWAP2 PUSH2 0x846 JUMP JUMPDEST POP PUSH2 0x1F3 NOT PUSH2 0xAA8 JUMP JUMPDEST DUP4 DUP1 REVERT JUMPDEST DUP3 DUP1 REVERT JUMPDEST POP CALLVALUE PUSH2 0x2E2 JUMPI PUSH1 0x20 CALLDATASIZE PUSH1 0x3 NOT ADD SLT PUSH2 0x2E2 JUMPI PUSH1 0x20 PUSH2 0xB1C PUSH2 0xB17 PUSH2 0x18C9 JUMP JUMPDEST PUSH2 0x21D2 JUMP JUMPDEST PUSH1 0x40 MLOAD SWAP1 DUP2 MSTORE RETURN JUMPDEST POP CALLVALUE PUSH2 0x2E2 JUMPI DUP1 PUSH1 0x3 NOT CALLDATASIZE ADD SLT PUSH2 0x2E2 JUMPI PUSH1 0x20 PUSH1 0x40 MLOAD PUSH2 0x12C DUP2 MSTORE RETURN JUMPDEST POP CALLVALUE PUSH2 0x2E2 JUMPI DUP1 PUSH1 0x3 NOT CALLDATASIZE ADD SLT PUSH2 0x2E2 JUMPI PUSH1 0x20 SWAP1 PUSH1 0x40 MLOAD SWAP1 DUP2 MSTORE RETURN JUMPDEST POP CALLVALUE PUSH2 0x2E2 JUMPI PUSH1 0x20 CALLDATASIZE PUSH1 0x3 NOT ADD SLT PUSH2 0x2E2 JUMPI PUSH1 0x20 SWAP1 PUSH1 0xFF SWAP1 PUSH1 0xA SWAP1 PUSH1 0x40 SWAP1 PUSH1 0x1 PUSH1 0x1 PUSH1 0xA0 SHL SUB PUSH2 0xB8B PUSH2 0x18C9 JUMP JUMPDEST AND DUP2 MSTORE PUSH1 0x2 DUP6 MSTORE KECCAK256 ADD SLOAD AND PUSH1 0x40 MLOAD SWAP1 ISZERO ISZERO DUP2 MSTORE RETURN JUMPDEST POP CALLVALUE PUSH2 0x2E2 JUMPI PUSH1 0x40 CALLDATASIZE PUSH1 0x3 NOT ADD SLT PUSH2 0x2E2 JUMPI PUSH2 0xBBA PUSH2 0x18C9 JUMP JUMPDEST SWAP1 PUSH2 0xBC3 PUSH2 0x1B5A JUMP JUMPDEST SWAP2 PUSH2 0xBCC PUSH2 0x1C61 JUMP JUMPDEST PUSH2 0xBD5 DUP2 PUSH2 0x1F60 JUMP JUMPDEST PUSH2 0xBE6 PUSH1 0xFF PUSH1 0xA DUP4 ADD SLOAD AND ISZERO PUSH2 0x1E83 JUMP JUMPDEST DUP1 SLOAD SWAP2 DUP5 ISZERO PUSH2 0xD25 JUMPI PUSH1 0x1 DUP3 ADD SLOAD PUSH2 0x320 SWAP6 SWAP1 DUP1 ISZERO PUSH2 0xD1D JUMPI PUSH1 0xA SWAP1 DIV JUMPDEST PUSH1 0x7 DUP5 ADD SWAP1 DUP2 SLOAD PUSH1 0x0 NOT DUP3 ADD SWAP1 DUP3 DUP3 GT PUSH2 0xD09 JUMPI DUP2 DUP2 MUL SWAP2 DUP2 DUP4 DIV EQ SWAP1 ISZERO OR ISZERO PUSH2 0xCF5 JUMPI PUSH2 0x2710 DUP2 ADD DUP1 SWAP2 GT PUSH2 0xCF5 JUMPI DUP2 ISZERO PUSH2 0xCE1 JUMPI SWAP2 PUSH1 0x0 DUP1 MLOAD PUSH1 0x20 PUSH2 0x23C8 DUP4 CODECOPY DUP2 MLOAD SWAP2 MSTORE SWAP7 SWAP8 SWAP9 SWAP2 PUSH2 0xC5C SWAP4 DIV SWAP1 SSTORE JUMPDEST DUP7 PUSH2 0x1FC4 JUMP JUMPDEST SWAP3 DUP4 DUP2 SSTORE PUSH1 0x8 TIMESTAMP SWAP2 ADD SSTORE PUSH1 0x0 EQ PUSH2 0xCB3 JUMPI PUSH2 0x4E2 PUSH1 0x40 MLOAD PUSH2 0xC7C DUP2 PUSH2 0x1983 JUMP JUMPDEST PUSH1 0x11 DUP2 MSTORE PUSH17 0x14DD58D8D95CDCD99D5B08185C1C19585B PUSH1 0x7A SHL PUSH1 0x20 DUP3 ADD MSTORE PUSH1 0x40 MLOAD PUSH1 0x1 PUSH1 0x1 PUSH1 0xA0 SHL SUB SWAP1 SWAP4 AND SWAP6 SWAP3 SWAP4 DUP5 SWAP4 DUP5 PUSH2 0x1F41 JUMP JUMPDEST PUSH2 0x4E2 PUSH1 0x40 MLOAD PUSH2 0xCC2 DUP2 PUSH2 0x1983 JUMP JUMPDEST PUSH1 0xD DUP2 MSTORE PUSH13 0x11985A5B195908185C1C19585B PUSH1 0x9A SHL PUSH1 0x20 DUP3 ADD MSTORE PUSH2 0x89C JUMP JUMPDEST PUSH4 0x4E487B71 PUSH1 0xE0 SHL DUP9 MSTORE PUSH1 0x12 PUSH1 0x4 MSTORE PUSH1 0x24 DUP9 REVERT JUMPDEST PUSH4 0x4E487B71 PUSH1 0xE0 SHL DUP9 MSTORE PUSH1 0x11 PUSH1 0x4 MSTORE PUSH1 0x24 DUP9 REVERT JUMPDEST PUSH4 0x4E487B71 PUSH1 0xE0 SHL DUP10 MSTORE PUSH1 0x11 PUSH1 0x4 MSTORE PUSH1 0x24 DUP10 REVERT JUMPDEST POP PUSH1 0x1 PUSH2 0xC04 JUMP JUMPDEST PUSH1 0x0 DUP1 MLOAD PUSH1 0x20 PUSH2 0x23C8 DUP4 CODECOPY DUP2 MLOAD SWAP2 MSTORE SWAP3 SWAP4 SWAP5 PUSH2 0xC5C PUSH2 0x18F NOT PUSH2 0xC56 JUMP JUMPDEST POP CALLVALUE PUSH2 0x2E2 JUMPI PUSH1 0x20 CALLDATASIZE PUSH1 0x3 NOT ADD SLT PUSH2 0x2E2 JUMPI PUSH1 0x40 PUSH2 0x160 SWAP2 PUSH2 0xD63 PUSH2 0x18C9 JUMP JUMPDEST PUSH1 0x60 DUP5 DUP5 MLOAD PUSH2 0xD71 DUP2 PUSH2 0x1934 JUMP JUMPDEST DUP5 DUP2 MSTORE DUP5 PUSH1 0x20 DUP3 ADD MSTORE DUP5 DUP7 DUP3 ADD MSTORE DUP5 DUP4 DUP3 ADD MSTORE DUP5 PUSH1 0x80 DUP3 ADD MSTORE DUP5 PUSH1 0xA0 DUP3 ADD MSTORE DUP5 PUSH1 0xC0 DUP3 ADD MSTORE DUP5 PUSH1 0xE0 DUP3 ADD MSTORE DUP5 PUSH2 0x100 DUP3 ADD MSTORE DUP5 PUSH2 0x120 DUP3 ADD MSTORE DUP5 PUSH2 0x140 DUP3 ADD MSTORE ADD MSTORE PUSH1 0x1 DUP1 PUSH1 0xA0 SHL SUB AND DUP2 MSTORE PUSH1 0x2 PUSH1 0x20 MSTORE KECCAK256 PUSH2 0xE4B PUSH1 0xB PUSH1 0x40 MLOAD SWAP3 PUSH2 0xDD5 DUP5 PUSH2 0x1934 JUMP JUMPDEST DUP1 SLOAD DUP5 MSTORE PUSH1 0x1 DUP2 ADD SLOAD PUSH1 0x20 DUP6 ADD MSTORE PUSH1 0x2 DUP2 ADD SLOAD PUSH1 0x40 DUP6 ADD MSTORE PUSH1 0x3 DUP2 ADD SLOAD PUSH1 0x60 DUP6 ADD MSTORE PUSH1 0x4 DUP2 ADD SLOAD PUSH1 0x80 DUP6 ADD MSTORE PUSH1 0x5 DUP2 ADD SLOAD PUSH1 0xA0 DUP6 ADD MSTORE PUSH1 0x6 DUP2 ADD SLOAD PUSH1 0xC0 DUP6 ADD MSTORE PUSH1 0x7 DUP2 ADD SLOAD PUSH1 0xE0 DUP6 ADD MSTORE PUSH1 0x8 DUP2 ADD SLOAD PUSH2 0x100 DUP6 ADD MSTORE PUSH1 0x9 DUP2 ADD SLOAD PUSH2 0x120 DUP6 ADD MSTORE PUSH1 0xFF PUSH1 0xA DUP3 ADD SLOAD AND ISZERO ISZERO PUSH2 0x140 DUP6 ADD MSTORE ADD PUSH2 0x19C1 JUMP JUMPDEST DUP3 DUP3 ADD MSTORE PUSH2 0x120 DUP2 ADD MLOAD ISZERO PUSH2 0xEEE JUMPI JUMPDEST PUSH2 0x3B0 PUSH1 0x40 MLOAD SWAP3 DUP4 SWAP3 PUSH1 0x20 DUP5 MSTORE DUP1 MLOAD PUSH1 0x20 DUP6 ADD MSTORE PUSH1 0x20 DUP2 ADD MLOAD PUSH1 0x40 DUP6 ADD MSTORE PUSH1 0x40 DUP2 ADD MLOAD PUSH1 0x60 DUP6 ADD MSTORE PUSH1 0x60 DUP2 ADD MLOAD PUSH1 0x80 DUP6 ADD MSTORE PUSH1 0x80 DUP2 ADD MLOAD PUSH1 0xA0 DUP6 ADD MSTORE PUSH1 0xA0 DUP2 ADD MLOAD PUSH1 0xC0 DUP6 ADD MSTORE PUSH1 0xC0 DUP2 ADD MLOAD PUSH1 0xE0 DUP6 ADD MSTORE PUSH1 0xE0 DUP2 ADD MLOAD PUSH2 0x100 DUP6 ADD MSTORE PUSH2 0x100 DUP2 ADD MLOAD PUSH2 0x120 DUP6 ADD MSTORE PUSH2 0x120 DUP2 ADD MLOAD PUSH2 0x140 DUP6 ADD MSTORE PUSH2 0x140 DUP2 ADD MLOAD ISZERO ISZERO DUP3 DUP6 ADD MSTORE ADD MLOAD PUSH2 0x180 DUP1 DUP5 ADD MSTORE PUSH2 0x1A0 DUP4 ADD SWAP1 PUSH2 0x1A67 JUMP JUMPDEST PUSH2 0x1388 DUP2 MSTORE PUSH2 0xE5B JUMP JUMPDEST POP CALLVALUE PUSH2 0x2E2 JUMPI PUSH1 0x60 CALLDATASIZE PUSH1 0x3 NOT ADD SLT PUSH2 0x2E2 JUMPI PUSH2 0xF12 PUSH2 0x18C9 JUMP JUMPDEST PUSH1 0x44 CALLDATALOAD SWAP1 PUSH2 0xF1E PUSH2 0x1C05 JUMP JUMPDEST PUSH1 0x64 DUP3 GT PUSH2 0x1063 JUMPI PUSH2 0xF2F DUP2 PUSH2 0x1F60 JUMP JUMPDEST DUP3 PUSH1 0x5 DUP3 ADD DUP1 SLOAD DUP1 ISZERO PUSH1 0x0 EQ PUSH2 0x104E JUMPI POP SSTORE JUMPDEST PUSH1 0x50 DUP4 LT ISZERO PUSH2 0xF8B JUMPI JUMPDEST POP PUSH1 0x40 PUSH32 0xACA8929B748783CE5D38ABDA96FAC54778CEB8858BA437FFC45282A02C676240 SWAP2 DUP2 MLOAD SWAP4 PUSH1 0x24 CALLDATALOAD DUP6 MSTORE PUSH1 0x20 DUP6 ADD MSTORE PUSH1 0x1 DUP1 PUSH1 0xA0 SHL SUB AND SWAP3 LOG2 DUP1 RETURN JUMPDEST DUP1 SLOAD SWAP1 PUSH1 0x4F NOT DUP5 ADD DUP5 DUP2 GT PUSH2 0x103A JUMPI PUSH1 0x96 DUP2 MUL SWAP1 DUP1 DUP3 DIV PUSH1 0x96 EQ SWAP1 ISZERO OR ISZERO PUSH2 0x103A JUMPI SWAP2 PUSH32 0xACA8929B748783CE5D38ABDA96FAC54778CEB8858BA437FFC45282A02C676240 SWAP4 SWAP2 PUSH2 0xFE0 PUSH1 0x14 PUSH1 0x40 SWAP6 DIV DUP4 PUSH2 0x1FC4 JUMP JUMPDEST DUP1 SWAP2 SSTORE DUP4 MLOAD SWAP2 DUP3 MSTORE PUSH1 0x20 DUP3 ADD MSTORE PUSH1 0x60 DUP4 DUP3 ADD MSTORE PUSH1 0x15 PUSH1 0x60 DUP3 ADD MSTORE PUSH21 0x48696768207175616C6974792065766964656E6365 PUSH1 0x58 SHL PUSH1 0x80 DUP3 ADD MSTORE PUSH1 0x0 DUP1 MLOAD PUSH1 0x20 PUSH2 0x23C8 DUP4 CODECOPY DUP2 MLOAD SWAP2 MSTORE PUSH1 0xA0 PUSH1 0x1 DUP1 DUP3 SHL SUB DUP5 AND SWAP3 LOG2 SWAP2 POP PUSH2 0xF4C JUMP JUMPDEST PUSH4 0x4E487B71 PUSH1 0xE0 SHL DUP7 MSTORE PUSH1 0x11 PUSH1 0x4 MSTORE PUSH1 0x24 DUP7 REVERT JUMPDEST SWAP2 PUSH2 0x1059 SWAP2 SWAP3 PUSH2 0x1F97 JUMP JUMPDEST PUSH1 0x1 SHR SWAP1 SSTORE PUSH2 0xF42 JUMP JUMPDEST PUSH1 0x40 MLOAD PUSH3 0x461BCD PUSH1 0xE5 SHL DUP2 MSTORE PUSH1 0x20 PUSH1 0x4 DUP3 ADD MSTORE PUSH1 0x15 PUSH1 0x24 DUP3 ADD MSTORE PUSH21 0x496E76616C6964207175616C6974792073636F7265 PUSH1 0x58 SHL PUSH1 0x44 DUP3 ADD MSTORE PUSH1 0x64 SWAP1 REVERT JUMPDEST POP CALLVALUE PUSH2 0x2E2 JUMPI DUP1 PUSH1 0x3 NOT CALLDATASIZE ADD SLT PUSH2 0x2E2 JUMPI PUSH1 0x20 PUSH1 0x4 SLOAD PUSH1 0x40 MLOAD SWAP1 DUP2 MSTORE RETURN JUMPDEST POP CALLVALUE PUSH2 0x2E2 JUMPI PUSH1 0x40 CALLDATASIZE PUSH1 0x3 NOT ADD SLT PUSH2 0x2E2 JUMPI PUSH1 0xFF PUSH1 0x40 PUSH1 0x20 SWAP3 PUSH2 0x10DF PUSH2 0x18E4 JUMP JUMPDEST PUSH1 0x4 CALLDATALOAD DUP3 MSTORE DUP2 DUP6 MSTORE DUP3 DUP3 KECCAK256 PUSH1 0x1 PUSH1 0x1 PUSH1 0xA0 SHL SUB SWAP1 SWAP2 AND DUP3 MSTORE DUP5 MSTORE KECCAK256 SLOAD PUSH1 0x40 MLOAD SWAP2 AND ISZERO ISZERO DUP2 MSTORE RETURN JUMPDEST POP CALLVALUE PUSH2 0x2E2 JUMPI PUSH1 0xC0 CALLDATASIZE PUSH1 0x3 NOT ADD SLT PUSH2 0x2E2 JUMPI PUSH8 0xFFFFFFFFFFFFFFFF SWAP1 PUSH1 0x4 CALLDATALOAD DUP3 DUP2 GT PUSH2 0x1369 JUMPI PUSH2 0x113A SWAP1 CALLDATASIZE SWAP1 PUSH1 0x4 ADD PUSH2 0x1B2C JUMP JUMPDEST PUSH1 0x84 CALLDATALOAD SWAP4 DUP5 ISZERO ISZERO DUP1 SWAP6 SUB PUSH2 0xAF0 JUMPI PUSH1 0xA4 CALLDATALOAD SWAP1 DUP2 ISZERO ISZERO DUP1 SWAP3 SUB PUSH2 0x1365 JUMPI PUSH2 0x115E PUSH2 0x1BAD JUMP JUMPDEST PUSH1 0x40 MLOAD SWAP2 PUSH2 0x116B DUP4 PUSH2 0x1967 JUMP JUMPDEST DUP2 DUP5 GT PUSH2 0x1351 JUMPI PUSH1 0x40 MLOAD PUSH1 0x1F NOT SWAP8 SWAP1 PUSH2 0x118C PUSH1 0x1F DUP8 ADD DUP11 AND PUSH1 0x20 ADD DUP3 PUSH2 0x199F JUMP JUMPDEST DUP6 DUP2 MSTORE CALLDATASIZE DUP7 DUP9 ADD GT PUSH2 0x134D JUMPI DUP6 DUP8 PUSH1 0x20 DUP4 ADD CALLDATACOPY DUP8 PUSH1 0x20 DUP8 DUP4 ADD ADD MSTORE DUP5 MSTORE PUSH1 0x24 CALLDATALOAD PUSH1 0x20 DUP6 ADD MSTORE PUSH1 0x44 CALLDATALOAD PUSH1 0x40 DUP6 ADD MSTORE PUSH1 0x64 CALLDATALOAD PUSH1 0x60 DUP6 ADD MSTORE PUSH1 0x80 DUP5 ADD MSTORE PUSH1 0xA0 DUP4 ADD MSTORE PUSH1 0x4 SLOAD DUP6 MSTORE PUSH1 0x3 PUSH1 0x20 MSTORE PUSH1 0x40 DUP6 KECCAK256 SWAP1 DUP3 MLOAD SWAP7 DUP8 MLOAD SWAP2 DUP3 GT PUSH2 0x1339 JUMPI PUSH2 0x11F4 DUP3 PUSH2 0x66B DUP6 SLOAD PUSH2 0x18FA JUMP JUMPDEST PUSH1 0x20 SWAP1 PUSH1 0x1F DUP4 GT PUSH1 0x1 EQ PUSH2 0x12CF JUMPI POP SWAP1 DUP1 PUSH1 0x4 SWAP4 SWAP3 DUP9 SWAP10 PUSH2 0x12BE SWAP10 SWAP3 PUSH2 0x12C4 JUMPI JUMPDEST POP POP DUP2 PUSH1 0x1 SHL SWAP2 PUSH1 0x0 NOT SWAP1 PUSH1 0x3 SHL SHR NOT AND OR DUP2 SSTORE JUMPDEST PUSH1 0x20 DUP4 ADD MLOAD PUSH1 0x1 DUP3 ADD SSTORE PUSH1 0x40 DUP4 ADD MLOAD PUSH1 0x2 DUP3 ADD SSTORE PUSH1 0x60 DUP4 ADD MLOAD PUSH1 0x3 DUP3 ADD SSTORE ADD SWAP1 PUSH1 0x80 DUP2 ADD MLOAD ISZERO ISZERO SWAP1 PUSH1 0xFF PUSH2 0xFF00 PUSH1 0xA0 DUP6 SLOAD SWAP4 ADD MLOAD ISZERO ISZERO PUSH1 0x8 SHL AND SWAP3 AND SWAP1 PUSH2 0xFFFF NOT AND OR OR SWAP1 SSTORE PUSH32 0xE0604E052B3C03F749DFAECA4395DE2957F31A3896EE0324A805511E072476E PUSH1 0x4 SLOAD SWAP3 DUP4 SWAP3 PUSH2 0x12AE PUSH1 0x40 MLOAD SWAP3 DUP4 SWAP3 PUSH1 0x40 DUP5 MSTORE PUSH1 0x40 DUP5 ADD SWAP2 PUSH2 0x2041 JUMP JUMPDEST PUSH1 0x24 CALLDATALOAD PUSH1 0x20 DUP4 ADD MSTORE SUB SWAP1 LOG2 PUSH2 0x1EC0 JUMP JUMPDEST PUSH1 0x4 SSTORE DUP1 RETURN JUMPDEST ADD MLOAD SWAP1 POP CODESIZE DUP1 PUSH2 0x1215 JUMP JUMPDEST SWAP8 DUP4 DUP9 MSTORE PUSH1 0x20 DUP9 KECCAK256 SWAP9 DUP9 JUMPDEST DUP2 DUP6 AND DUP2 LT PUSH2 0x1321 JUMPI POP SWAP9 PUSH1 0x1 SWAP3 DUP5 SWAP3 DUP4 PUSH2 0x12BE SWAP12 SWAP13 PUSH1 0x4 SWAP9 SWAP8 AND LT PUSH2 0x1308 JUMPI JUMPDEST POP POP POP DUP2 SHL ADD DUP2 SSTORE PUSH2 0x122A JUMP JUMPDEST ADD MLOAD PUSH1 0x0 NOT PUSH1 0xF8 DUP5 PUSH1 0x3 SHL AND SHR NOT AND SWAP1 SSTORE CODESIZE DUP1 DUP1 PUSH2 0x12FB JUMP JUMPDEST DUP4 DUP4 ADD MLOAD DUP12 SSTORE PUSH1 0x1 SWAP1 SWAP11 ADD SWAP10 PUSH1 0x20 SWAP4 DUP5 ADD SWAP4 ADD PUSH2 0x12DA JUMP JUMPDEST PUSH4 0x4E487B71 PUSH1 0xE0 SHL DUP8 MSTORE PUSH1 0x41 PUSH1 0x4 MSTORE PUSH1 0x24 DUP8 REVERT JUMPDEST DUP8 DUP1 REVERT JUMPDEST PUSH4 0x4E487B71 PUSH1 0xE0 SHL DUP7 MSTORE PUSH1 0x41 PUSH1 0x4 MSTORE PUSH1 0x24 DUP7 REVERT JUMPDEST DUP5 DUP1 REVERT JUMPDEST POP DUP1 REVERT JUMPDEST POP CALLVALUE PUSH2 0x2E2 JUMPI PUSH1 0x20 CALLDATASIZE PUSH1 0x3 NOT ADD SLT PUSH2 0x2E2 JUMPI PUSH1 0x20 PUSH2 0xB1C PUSH2 0x138C PUSH2 0x18C9 JUMP JUMPDEST PUSH2 0x2315 JUMP JUMPDEST POP CALLVALUE PUSH2 0x2E2 JUMPI DUP1 PUSH1 0x3 NOT CALLDATASIZE ADD SLT PUSH2 0x2E2 JUMPI PUSH1 0x20 PUSH1 0x40 MLOAD PUSH32 0x71F3D55856E4058ED06EE057D79ADA615F65CDF5F9EE88181B914225088F834F DUP2 MSTORE RETURN JUMPDEST POP CALLVALUE PUSH2 0x2E2 JUMPI PUSH1 0x20 CALLDATASIZE PUSH1 0x3 NOT ADD SLT PUSH2 0x2E2 JUMPI PUSH1 0x1 PUSH1 0x1 PUSH1 0xA0 SHL SUB PUSH2 0x13EE PUSH2 0x18C9 JUMP JUMPDEST AND DUP2 MSTORE PUSH1 0x2 PUSH1 0x20 MSTORE PUSH1 0x40 DUP2 KECCAK256 SWAP1 PUSH1 0x40 MLOAD SWAP2 PUSH2 0x1408 DUP4 PUSH2 0x1934 JUMP JUMPDEST DUP1 SLOAD DUP4 MSTORE PUSH1 0x1 DUP2 ADD SLOAD PUSH1 0x20 DUP5 ADD MSTORE PUSH1 0x2 DUP2 ADD SLOAD PUSH1 0x40 DUP5 ADD MSTORE PUSH1 0x3 DUP2 ADD SLOAD PUSH1 0x60 DUP5 ADD MSTORE PUSH1 0x4 DUP2 ADD SLOAD PUSH1 0x80 DUP5 ADD MSTORE PUSH1 0x5 DUP2 ADD SLOAD PUSH1 0xA0 DUP5 ADD MSTORE PUSH1 0x6 DUP2 ADD SLOAD PUSH1 0xC0 DUP5 ADD MSTORE PUSH1 0x7 DUP2 ADD SLOAD PUSH1 0xE0 DUP5 ADD MSTORE PUSH1 0x8 DUP2 ADD SLOAD PUSH2 0x100 DUP5 ADD MSTORE PUSH2 0x1486 PUSH1 0xB PUSH1 0x9 DUP4 ADD SLOAD SWAP3 PUSH2 0x120 DUP7 ADD SWAP4 DUP5 MSTORE PUSH1 0xFF PUSH1 0xA DUP3 ADD SLOAD AND ISZERO ISZERO PUSH2 0x140 DUP8 ADD MSTORE ADD PUSH2 0x19C1 JUMP JUMPDEST PUSH2 0x160 DUP5 ADD MSTORE MLOAD ISZERO ISZERO SWAP1 POP PUSH2 0x14A3 JUMPI POP PUSH1 0x20 PUSH2 0x1388 PUSH1 0x40 MLOAD SWAP1 DUP2 MSTORE RETURN JUMPDEST PUSH1 0x20 SWAP1 MLOAD PUSH2 0xB1C JUMP JUMPDEST PUSH2 0x1AA7 JUMP JUMPDEST POP CALLVALUE PUSH2 0x2E2 JUMPI DUP1 PUSH1 0x3 NOT CALLDATASIZE ADD SLT PUSH2 0x2E2 JUMPI PUSH1 0x20 PUSH1 0x40 MLOAD PUSH32 0x548AD01CB7D1DBB8D45D390ADAE50F787EFED76D7EA4725CE02F90587D28E24F DUP2 MSTORE RETURN JUMPDEST POP CALLVALUE PUSH2 0x2E2 JUMPI DUP1 PUSH1 0x3 NOT CALLDATASIZE ADD SLT PUSH2 0x2E2 JUMPI PUSH1 0x20 PUSH1 0x40 MLOAD PUSH2 0x1388 DUP2 MSTORE RETURN JUMPDEST POP CALLVALUE PUSH2 0x2E2 JUMPI PUSH1 0x20 CALLDATASIZE PUSH1 0x3 NOT ADD SLT PUSH2 0x2E2 JUMPI PUSH1 0x4 CALLDATALOAD SWAP1 PUSH2 0x1527 PUSH2 0x208B JUMP JUMPDEST POP PUSH1 0x4 SLOAD DUP3 LT ISZERO PUSH2 0x155D JUMPI PUSH1 0x40 DUP2 PUSH2 0x3B0 SWAP4 PUSH2 0x1549 SWAP4 MSTORE PUSH1 0x3 PUSH1 0x20 MSTORE KECCAK256 PUSH2 0x20CA JUMP JUMPDEST PUSH1 0x40 MLOAD SWAP2 DUP3 SWAP2 PUSH1 0x20 DUP4 MSTORE PUSH1 0x20 DUP4 ADD SWAP1 PUSH2 0x1AE0 JUMP JUMPDEST PUSH1 0x40 MLOAD PUSH3 0x461BCD PUSH1 0xE5 SHL DUP2 MSTORE PUSH1 0x20 PUSH1 0x4 DUP3 ADD MSTORE PUSH1 0xC PUSH1 0x24 DUP3 ADD MSTORE PUSH12 0x24B73B30B634B2103A34B2B9 PUSH1 0xA1 SHL PUSH1 0x44 DUP3 ADD MSTORE PUSH1 0x64 SWAP1 REVERT JUMPDEST POP CALLVALUE PUSH2 0x2E2 JUMPI PUSH1 0x20 CALLDATASIZE PUSH1 0x3 NOT ADD SLT PUSH2 0x2E2 JUMPI PUSH2 0x15AB PUSH2 0x18C9 JUMP JUMPDEST PUSH2 0x15B3 PUSH2 0x1C05 JUMP JUMPDEST PUSH1 0x1 PUSH1 0x1 PUSH1 0xA0 SHL SUB AND DUP1 DUP3 MSTORE PUSH1 0x2 PUSH1 0x20 MSTORE PUSH1 0x40 DUP3 KECCAK256 PUSH1 0xA DUP2 ADD DUP1 SLOAD PUSH1 0xFF DUP2 AND ISZERO PUSH2 0x165B JUMPI PUSH1 0xFF NOT AND SWAP1 SSTORE PUSH1 0x0 PUSH1 0xB DUP3 ADD PUSH2 0x15ED DUP2 SLOAD PUSH2 0x18FA JUMP JUMPDEST PUSH1 0x1F DUP2 GT PUSH2 0x163C JUMPI JUMPDEST POP SSTORE PUSH2 0x9C4 SWAP1 DUP2 DUP2 SLOAD LT PUSH2 0x1634 JUMPI JUMPDEST POP POP PUSH32 0xF11FD0BE5EDA892011EED5CCF21F149A3E3533001E220F8AEF844D83842AC619 PUSH1 0x20 PUSH1 0x40 MLOAD CALLER DUP2 MSTORE LOG2 DUP1 RETURN JUMPDEST SSTORE CODESIZE DUP1 PUSH2 0x1605 JUMP JUMPDEST DUP2 DUP7 MSTORE PUSH1 0x20 DUP7 KECCAK256 PUSH2 0x1655 SWAP2 PUSH1 0x1F ADD PUSH1 0x5 SHR DUP2 ADD SWAP1 PUSH2 0x1EE5 JUMP JUMPDEST CODESIZE PUSH2 0x15F6 JUMP JUMPDEST PUSH1 0x40 MLOAD PUSH3 0x461BCD PUSH1 0xE5 SHL DUP2 MSTORE PUSH1 0x20 PUSH1 0x4 DUP3 ADD MSTORE PUSH1 0xF PUSH1 0x24 DUP3 ADD MSTORE PUSH15 0x155CD95C881B9BDD0818985B9B9959 PUSH1 0x8A SHL PUSH1 0x44 DUP3 ADD MSTORE PUSH1 0x64 SWAP1 REVERT JUMPDEST POP CALLVALUE PUSH2 0x2E2 JUMPI PUSH1 0x20 CALLDATASIZE PUSH1 0x3 NOT ADD SLT PUSH2 0x2E2 JUMPI PUSH2 0x5B7 PUSH2 0x16AF PUSH2 0x18C9 JUMP JUMPDEST PUSH2 0x16B7 PUSH2 0x1BAD JUMP JUMPDEST PUSH2 0x1CE3 JUMP JUMPDEST POP CALLVALUE PUSH2 0x2E2 JUMPI DUP1 PUSH1 0x3 NOT CALLDATASIZE ADD SLT PUSH2 0x2E2 JUMPI PUSH1 0x20 PUSH1 0x40 MLOAD PUSH1 0x96 DUP2 MSTORE RETURN JUMPDEST POP CALLVALUE PUSH2 0x2E2 JUMPI PUSH1 0x40 CALLDATASIZE PUSH1 0x3 NOT ADD SLT PUSH2 0x2E2 JUMPI PUSH2 0x16F2 PUSH2 0x18E4 JUMP JUMPDEST CALLER PUSH1 0x1 PUSH1 0x1 PUSH1 0xA0 SHL SUB DUP3 AND SUB PUSH2 0x170E JUMPI PUSH2 0x5B7 SWAP1 PUSH1 0x4 CALLDATALOAD PUSH2 0x1E0E JUMP JUMPDEST PUSH1 0x40 MLOAD PUSH4 0x334BD919 PUSH1 0xE1 SHL DUP2 MSTORE PUSH1 0x4 SWAP1 REVERT JUMPDEST POP CALLVALUE PUSH2 0x2E2 JUMPI PUSH1 0x40 CALLDATASIZE PUSH1 0x3 NOT ADD SLT PUSH2 0x2E2 JUMPI PUSH2 0x5B7 PUSH1 0x4 CALLDATALOAD PUSH2 0x1740 PUSH2 0x18E4 JUMP JUMPDEST SWAP1 DUP1 DUP5 MSTORE DUP4 PUSH1 0x20 MSTORE PUSH2 0x1758 PUSH1 0x1 PUSH1 0x40 DUP7 KECCAK256 ADD SLOAD PUSH2 0x1CBD JUMP JUMPDEST PUSH2 0x1D95 JUMP JUMPDEST POP CALLVALUE PUSH2 0x2E2 JUMPI DUP1 PUSH1 0x3 NOT CALLDATASIZE ADD SLT PUSH2 0x2E2 JUMPI PUSH1 0x20 PUSH1 0x40 MLOAD PUSH2 0x190 DUP2 MSTORE RETURN JUMPDEST POP CALLVALUE PUSH2 0x2E2 JUMPI PUSH1 0x20 CALLDATASIZE PUSH1 0x3 NOT ADD SLT PUSH2 0x2E2 JUMPI PUSH1 0x1 PUSH1 0x40 PUSH1 0x20 SWAP3 PUSH1 0x4 CALLDATALOAD DUP2 MSTORE DUP1 DUP5 MSTORE KECCAK256 ADD SLOAD PUSH1 0x40 MLOAD SWAP1 DUP2 MSTORE RETURN JUMPDEST POP CALLVALUE PUSH2 0x2E2 JUMPI DUP1 PUSH1 0x3 NOT CALLDATASIZE ADD SLT PUSH2 0x2E2 JUMPI PUSH1 0x20 PUSH1 0x40 MLOAD PUSH2 0x7D0 DUP2 MSTORE RETURN JUMPDEST POP CALLVALUE PUSH2 0x2E2 JUMPI PUSH1 0x20 CALLDATASIZE PUSH1 0x3 NOT ADD SLT PUSH2 0x2E2 JUMPI PUSH1 0x40 PUSH2 0x181D SWAP2 PUSH1 0x4 CALLDATALOAD DUP2 MSTORE PUSH1 0x3 PUSH1 0x20 MSTORE KECCAK256 PUSH2 0x17EF DUP2 PUSH2 0x19C1 JUMP JUMPDEST SWAP1 PUSH1 0xFF PUSH1 0x1 DUP3 ADD SLOAD SWAP2 PUSH1 0x2 DUP2 ADD SLOAD SWAP1 PUSH1 0x4 PUSH1 0x3 DUP3 ADD SLOAD SWAP2 ADD SLOAD SWAP2 PUSH1 0x40 MLOAD SWAP7 DUP8 SWAP7 PUSH1 0xC0 DUP9 MSTORE PUSH1 0xC0 DUP9 ADD SWAP1 PUSH2 0x1A67 JUMP JUMPDEST SWAP5 PUSH1 0x20 DUP8 ADD MSTORE PUSH1 0x40 DUP7 ADD MSTORE PUSH1 0x60 DUP6 ADD MSTORE DUP2 DUP2 AND ISZERO ISZERO PUSH1 0x80 DUP6 ADD MSTORE PUSH1 0x8 SHR AND ISZERO ISZERO PUSH1 0xA0 DUP4 ADD MSTORE SUB SWAP1 RETURN JUMPDEST POP CALLVALUE PUSH2 0x2E2 JUMPI PUSH1 0x20 CALLDATASIZE PUSH1 0x3 NOT ADD SLT PUSH2 0x2E2 JUMPI PUSH1 0x20 PUSH2 0x186A PUSH2 0x1865 PUSH2 0x18C9 JUMP JUMPDEST PUSH2 0x226A JUMP JUMPDEST PUSH1 0x40 MLOAD SWAP1 ISZERO ISZERO DUP2 MSTORE RETURN JUMPDEST SWAP1 POP CALLVALUE PUSH2 0x1369 JUMPI PUSH1 0x20 CALLDATASIZE PUSH1 0x3 NOT ADD SLT PUSH2 0x1369 JUMPI PUSH1 0x4 CALLDATALOAD PUSH4 0xFFFFFFFF PUSH1 0xE0 SHL DUP2 AND DUP1 SWAP2 SUB PUSH2 0xAF4 JUMPI PUSH1 0x20 SWAP3 POP PUSH4 0x7965DB0B PUSH1 0xE0 SHL DUP2 EQ SWAP1 DUP2 ISZERO PUSH2 0x18B8 JUMPI JUMPDEST POP ISZERO ISZERO DUP2 MSTORE RETURN JUMPDEST PUSH4 0x1FFC9A7 PUSH1 0xE0 SHL EQ SWAP1 POP CODESIZE PUSH2 0x18B1 JUMP JUMPDEST PUSH1 0x4 CALLDATALOAD SWAP1 PUSH1 0x1 PUSH1 0x1 PUSH1 0xA0 SHL SUB DUP3 AND DUP3 SUB PUSH2 0x18DF JUMPI JUMP JUMPDEST PUSH1 0x0 DUP1 REVERT JUMPDEST PUSH1 0x24 CALLDATALOAD SWAP1 PUSH1 0x1 PUSH1 0x1 PUSH1 0xA0 SHL SUB DUP3 AND DUP3 SUB PUSH2 0x18DF JUMPI JUMP JUMPDEST SWAP1 PUSH1 0x1 DUP3 DUP2 SHR SWAP3 AND DUP1 ISZERO PUSH2 0x192A JUMPI JUMPDEST PUSH1 0x20 DUP4 LT EQ PUSH2 0x1914 JUMPI JUMP JUMPDEST PUSH4 0x4E487B71 PUSH1 0xE0 SHL PUSH1 0x0 MSTORE PUSH1 0x22 PUSH1 0x4 MSTORE PUSH1 0x24 PUSH1 0x0 REVERT JUMPDEST SWAP2 PUSH1 0x7F AND SWAP2 PUSH2 0x1909 JUMP JUMPDEST PUSH2 0x180 DUP2 ADD SWAP1 DUP2 LT PUSH8 0xFFFFFFFFFFFFFFFF DUP3 GT OR PUSH2 0x1951 JUMPI PUSH1 0x40 MSTORE JUMP JUMPDEST PUSH4 0x4E487B71 PUSH1 0xE0 SHL PUSH1 0x0 MSTORE PUSH1 0x41 PUSH1 0x4 MSTORE PUSH1 0x24 PUSH1 0x0 REVERT JUMPDEST PUSH1 0xC0 DUP2 ADD SWAP1 DUP2 LT PUSH8 0xFFFFFFFFFFFFFFFF DUP3 GT OR PUSH2 0x1951 JUMPI PUSH1 0x40 MSTORE JUMP JUMPDEST PUSH1 0x40 DUP2 ADD SWAP1 DUP2 LT PUSH8 0xFFFFFFFFFFFFFFFF DUP3 GT OR PUSH2 0x1951 JUMPI PUSH1 0x40 MSTORE JUMP JUMPDEST SWAP1 PUSH1 0x1F DUP1 NOT SWAP2 ADD AND DUP2 ADD SWAP1 DUP2 LT PUSH8 0xFFFFFFFFFFFFFFFF DUP3 GT OR PUSH2 0x1951 JUMPI PUSH1 0x40 MSTORE JUMP JUMPDEST SWAP1 PUSH1 0x40 MLOAD SWAP2 DUP3 PUSH1 0x0 DUP3 SLOAD SWAP3 PUSH2 0x19D5 DUP5 PUSH2 0x18FA JUMP JUMPDEST SWAP1 DUP2 DUP5 MSTORE PUSH1 0x1 SWAP5 DUP6 DUP2 AND SWAP1 DUP2 PUSH1 0x0 EQ PUSH2 0x1A44 JUMPI POP PUSH1 0x1 EQ PUSH2 0x1A01 JUMPI JUMPDEST POP POP PUSH2 0x19FF SWAP3 POP SUB DUP4 PUSH2 0x199F JUMP JUMPDEST JUMP JUMPDEST SWAP1 SWAP4 SWAP2 POP PUSH1 0x0 MSTORE PUSH1 0x20 SWAP1 DUP2 PUSH1 0x0 KECCAK256 SWAP4 PUSH1 0x0 SWAP2 JUMPDEST DUP2 DUP4 LT PUSH2 0x1A2C JUMPI POP POP PUSH2 0x19FF SWAP4 POP DUP3 ADD ADD CODESIZE DUP1 PUSH2 0x19F1 JUMP JUMPDEST DUP6 SLOAD DUP9 DUP5 ADD DUP6 ADD MSTORE SWAP5 DUP6 ADD SWAP5 DUP8 SWAP5 POP SWAP2 DUP4 ADD SWAP2 PUSH2 0x1A14 JUMP JUMPDEST SWAP2 POP POP PUSH2 0x19FF SWAP5 POP PUSH1 0x20 SWAP3 POP PUSH1 0xFF NOT AND DUP3 DUP5 ADD MSTORE ISZERO ISZERO PUSH1 0x5 SHL DUP3 ADD ADD CODESIZE DUP1 PUSH2 0x19F1 JUMP JUMPDEST SWAP2 SWAP1 DUP3 MLOAD SWAP3 DUP4 DUP3 MSTORE PUSH1 0x0 JUMPDEST DUP5 DUP2 LT PUSH2 0x1A93 JUMPI POP POP DUP3 PUSH1 0x0 PUSH1 0x20 DUP1 SWAP5 SWAP6 DUP5 ADD ADD MSTORE PUSH1 0x1F DUP1 NOT SWAP2 ADD AND ADD ADD SWAP1 JUMP JUMPDEST PUSH1 0x20 DUP2 DUP4 ADD DUP2 ADD MLOAD DUP5 DUP4 ADD DUP3 ADD MSTORE ADD PUSH2 0x1A72 JUMP JUMPDEST CALLVALUE PUSH2 0x18DF JUMPI PUSH1 0x0 CALLDATASIZE PUSH1 0x3 NOT ADD SLT PUSH2 0x18DF JUMPI PUSH1 0x20 PUSH1 0x40 MLOAD PUSH1 0x64 DUP2 MSTORE RETURN JUMPDEST CALLVALUE PUSH2 0x18DF JUMPI PUSH1 0x0 CALLDATASIZE PUSH1 0x3 NOT ADD SLT PUSH2 0x18DF JUMPI PUSH1 0x20 PUSH1 0x40 MLOAD PUSH2 0x1F4 DUP2 MSTORE RETURN JUMPDEST SWAP1 PUSH1 0xA0 DUP1 PUSH2 0x1AF7 DUP5 MLOAD PUSH1 0xC0 DUP6 MSTORE PUSH1 0xC0 DUP6 ADD SWAP1 PUSH2 0x1A67 JUMP JUMPDEST SWAP4 PUSH1 0x20 DUP2 ADD MLOAD PUSH1 0x20 DUP6 ADD MSTORE PUSH1 0x40 DUP2 ADD MLOAD PUSH1 0x40 DUP6 ADD MSTORE PUSH1 0x60 DUP2 ADD MLOAD PUSH1 0x60 DUP6 ADD MSTORE PUSH1 0x80 DUP2 ADD MLOAD ISZERO ISZERO PUSH1 0x80 DUP6 ADD MSTORE ADD MLOAD ISZERO ISZERO SWAP2 ADD MSTORE SWAP1 JUMP JUMPDEST SWAP2 DUP2 PUSH1 0x1F DUP5 ADD SLT ISZERO PUSH2 0x18DF JUMPI DUP3 CALLDATALOAD SWAP2 PUSH8 0xFFFFFFFFFFFFFFFF DUP4 GT PUSH2 0x18DF JUMPI PUSH1 0x20 DUP4 DUP2 DUP7 ADD SWAP6 ADD ADD GT PUSH2 0x18DF JUMPI JUMP JUMPDEST PUSH1 0x24 CALLDATALOAD SWAP1 DUP2 ISZERO ISZERO DUP3 SUB PUSH2 0x18DF JUMPI JUMP JUMPDEST SWAP1 PUSH1 0x40 PUSH1 0x3 NOT DUP4 ADD SLT PUSH2 0x18DF JUMPI PUSH1 0x4 CALLDATALOAD PUSH1 0x1 PUSH1 0x1 PUSH1 0xA0 SHL SUB DUP2 AND DUP2 SUB PUSH2 0x18DF JUMPI SWAP2 PUSH1 0x24 CALLDATALOAD SWAP1 PUSH8 0xFFFFFFFFFFFFFFFF DUP3 GT PUSH2 0x18DF JUMPI PUSH2 0x1BA9 SWAP2 PUSH1 0x4 ADD PUSH2 0x1B2C JUMP JUMPDEST SWAP1 SWAP2 JUMP JUMPDEST CALLER PUSH1 0x0 SWAP1 DUP2 MSTORE PUSH32 0xAD3228B676F7D3CD4284A5443F17F1962B36E491B30A40B2405849E597BA5FB5 PUSH1 0x20 MSTORE PUSH1 0x40 DUP2 KECCAK256 SLOAD PUSH1 0xFF AND ISZERO PUSH2 0x1BE7 JUMPI POP JUMP JUMPDEST PUSH1 0x44 SWAP1 PUSH1 0x40 MLOAD SWAP1 PUSH4 0xE2517D3F PUSH1 0xE0 SHL DUP3 MSTORE CALLER PUSH1 0x4 DUP4 ADD MSTORE PUSH1 0x24 DUP3 ADD MSTORE REVERT JUMPDEST CALLER PUSH1 0x0 SWAP1 DUP2 MSTORE PUSH32 0xF179AAFCC4FF8137FCA1EF3B9EC4D165F87016BA123E7973FBA770BC55E240E3 PUSH1 0x20 MSTORE PUSH1 0x40 SWAP1 KECCAK256 SLOAD PUSH32 0x71F3D55856E4058ED06EE057D79ADA615F65CDF5F9EE88181B914225088F834F SWAP1 PUSH1 0xFF AND ISZERO PUSH2 0x1BE7 JUMPI POP JUMP JUMPDEST CALLER PUSH1 0x0 SWAP1 DUP2 MSTORE PUSH32 0x36E503EEA63500A8C9080CE945EC2C201D60F7F269E8F5C17D26416B796499CD PUSH1 0x20 MSTORE PUSH1 0x40 SWAP1 KECCAK256 SLOAD PUSH32 0x548AD01CB7D1DBB8D45D390ADAE50F787EFED76D7EA4725CE02F90587D28E24F SWAP1 PUSH1 0xFF AND ISZERO PUSH2 0x1BE7 JUMPI POP JUMP JUMPDEST DUP1 PUSH1 0x0 MSTORE PUSH1 0x0 PUSH1 0x20 MSTORE PUSH1 0x40 PUSH1 0x0 KECCAK256 CALLER PUSH1 0x0 MSTORE PUSH1 0x20 MSTORE PUSH1 0xFF PUSH1 0x40 PUSH1 0x0 KECCAK256 SLOAD AND ISZERO PUSH2 0x1BE7 JUMPI POP JUMP JUMPDEST PUSH1 0x1 PUSH1 0x1 PUSH1 0xA0 SHL SUB AND PUSH1 0x0 DUP2 DUP2 MSTORE PUSH32 0x36E503EEA63500A8C9080CE945EC2C201D60F7F269E8F5C17D26416B796499CD PUSH1 0x20 MSTORE PUSH1 0x40 DUP2 KECCAK256 SLOAD SWAP1 SWAP2 SWAP1 PUSH32 0x548AD01CB7D1DBB8D45D390ADAE50F787EFED76D7EA4725CE02F90587D28E24F SWAP1 PUSH1 0xFF AND PUSH2 0x1D90 JUMPI DUP1 DUP4 MSTORE DUP3 PUSH1 0x20 MSTORE PUSH1 0x40 DUP4 KECCAK256 DUP3 DUP5 MSTORE PUSH1 0x20 MSTORE PUSH1 0x40 DUP4 KECCAK256 PUSH1 0x1 PUSH1 0xFF NOT DUP3 SLOAD AND OR SWAP1 SSTORE PUSH32 0x2F8788117E7EFF1D82E926EC794901D17C78024A50270940304540A733656F0D CALLER SWAP4 DUP1 LOG4 PUSH1 0x1 SWAP1 JUMP JUMPDEST POP POP SWAP1 JUMP JUMPDEST SWAP1 PUSH1 0x0 SWAP2 DUP1 DUP4 MSTORE DUP3 PUSH1 0x20 MSTORE PUSH1 0x40 DUP4 KECCAK256 SWAP2 PUSH1 0x1 DUP1 PUSH1 0xA0 SHL SUB AND SWAP2 DUP3 DUP5 MSTORE PUSH1 0x20 MSTORE PUSH1 0xFF PUSH1 0x40 DUP5 KECCAK256 SLOAD AND ISZERO PUSH1 0x0 EQ PUSH2 0x1D90 JUMPI DUP1 DUP4 MSTORE DUP3 PUSH1 0x20 MSTORE PUSH1 0x40 DUP4 KECCAK256 DUP3 DUP5 MSTORE PUSH1 0x20 MSTORE PUSH1 0x40 DUP4 KECCAK256 PUSH1 0x1 PUSH1 0xFF NOT DUP3 SLOAD AND OR SWAP1 SSTORE PUSH32 0x2F8788117E7EFF1D82E926EC794901D17C78024A50270940304540A733656F0D CALLER SWAP4 DUP1 LOG4 PUSH1 0x1 SWAP1 JUMP JUMPDEST SWAP1 PUSH1 0x0 SWAP2 DUP1 DUP4 MSTORE DUP3 PUSH1 0x20 MSTORE PUSH1 0x40 DUP4 KECCAK256 SWAP2 PUSH1 0x1 DUP1 PUSH1 0xA0 SHL SUB AND SWAP2 DUP3 DUP5 MSTORE PUSH1 0x20 MSTORE PUSH1 0xFF PUSH1 0x40 DUP5 KECCAK256 SLOAD AND PUSH1 0x0 EQ PUSH2 0x1D90 JUMPI DUP1 DUP4 MSTORE DUP3 PUSH1 0x20 MSTORE PUSH1 0x40 DUP4 KECCAK256 DUP3 DUP5 MSTORE PUSH1 0x20 MSTORE PUSH1 0x40 DUP4 KECCAK256 PUSH1 0xFF NOT DUP2 SLOAD AND SWAP1 SSTORE PUSH32 0xF6391F5C32D9C69D2A47EA670B442974B53935D1EDC7FD64EB21E047A839171B CALLER SWAP4 DUP1 LOG4 PUSH1 0x1 SWAP1 JUMP JUMPDEST ISZERO PUSH2 0x1E8A JUMPI JUMP JUMPDEST PUSH1 0x40 MLOAD PUSH3 0x461BCD PUSH1 0xE5 SHL DUP2 MSTORE PUSH1 0x20 PUSH1 0x4 DUP3 ADD MSTORE PUSH1 0xE PUSH1 0x24 DUP3 ADD MSTORE PUSH14 0x155CD95C881A5CC818985B9B9959 PUSH1 0x92 SHL PUSH1 0x44 DUP3 ADD MSTORE PUSH1 0x64 SWAP1 REVERT JUMPDEST PUSH1 0x0 NOT DUP2 EQ PUSH2 0x1ECF JUMPI PUSH1 0x1 ADD SWAP1 JUMP JUMPDEST PUSH4 0x4E487B71 PUSH1 0xE0 SHL PUSH1 0x0 MSTORE PUSH1 0x11 PUSH1 0x4 MSTORE PUSH1 0x24 PUSH1 0x0 REVERT JUMPDEST DUP2 DUP2 LT PUSH2 0x1EF0 JUMPI POP POP JUMP JUMPDEST PUSH1 0x0 DUP2 SSTORE PUSH1 0x1 ADD PUSH2 0x1EE5 JUMP JUMPDEST SWAP2 SWAP1 PUSH1 0x1F DUP2 GT PUSH2 0x1F0B JUMPI POP POP POP JUMP JUMPDEST PUSH2 0x19FF SWAP3 PUSH1 0x0 MSTORE PUSH1 0x20 PUSH1 0x0 KECCAK256 SWAP1 PUSH1 0x20 PUSH1 0x1F DUP5 ADD PUSH1 0x5 SHR DUP4 ADD SWAP4 LT PUSH2 0x1F37 JUMPI JUMPDEST PUSH1 0x1F ADD PUSH1 0x5 SHR ADD SWAP1 PUSH2 0x1EE5 JUMP JUMPDEST SWAP1 SWAP2 POP DUP2 SWAP1 PUSH2 0x1F2A JUMP JUMPDEST PUSH2 0x1F5D SWAP4 SWAP3 PUSH1 0x60 SWAP3 DUP3 MSTORE PUSH1 0x20 DUP3 ADD MSTORE DUP2 PUSH1 0x40 DUP3 ADD MSTORE ADD SWAP1 PUSH2 0x1A67 JUMP JUMPDEST SWAP1 JUMP JUMPDEST PUSH1 0x1 PUSH1 0x1 PUSH1 0xA0 SHL SUB AND PUSH1 0x0 SWAP1 DUP2 MSTORE PUSH1 0x2 PUSH1 0x20 MSTORE PUSH1 0x40 SWAP1 KECCAK256 PUSH1 0x9 DUP2 ADD DUP1 SLOAD ISZERO PUSH2 0x1F86 JUMPI POP SWAP1 JUMP JUMPDEST PUSH2 0x1388 DUP3 SSTORE TIMESTAMP SWAP1 SSTORE TIMESTAMP PUSH1 0x8 DUP3 ADD SSTORE SWAP1 JUMP JUMPDEST SWAP2 SWAP1 DUP3 ADD DUP1 SWAP3 GT PUSH2 0x1ECF JUMPI JUMP JUMPDEST DUP1 PUSH2 0x7D0 LT ISZERO PUSH2 0x1FBE JUMPI PUSH2 0x7CF NOT DUP2 ADD SWAP1 DUP2 GT PUSH2 0x1ECF JUMPI SWAP1 JUMP JUMPDEST POP PUSH1 0x64 SWAP1 JUMP JUMPDEST SWAP1 PUSH1 0x0 SWAP1 DUP2 DUP2 SLT PUSH2 0x1FEF JUMPI PUSH2 0x1FD9 SWAP2 SWAP3 PUSH2 0x1F97 JUMP JUMPDEST PUSH2 0x2710 SWAP2 POP DUP2 DUP2 GT ISZERO PUSH2 0x1FEA JUMPI POP SWAP1 JUMP JUMPDEST SWAP1 POP SWAP1 JUMP JUMPDEST PUSH1 0x1 PUSH1 0xFF SHL DUP2 EQ PUSH2 0x202D JUMPI DUP3 DUP2 DUP4 SUB LT ISZERO PUSH2 0x2025 JUMPI DUP3 ADD SWAP2 DUP3 GT PUSH2 0x2011 JUMPI POP SWAP1 JUMP JUMPDEST PUSH4 0x4E487B71 PUSH1 0xE0 SHL DUP2 MSTORE PUSH1 0x11 PUSH1 0x4 MSTORE PUSH1 0x24 SWAP1 REVERT JUMPDEST POP POP POP PUSH1 0x64 SWAP1 JUMP JUMPDEST PUSH4 0x4E487B71 PUSH1 0xE0 SHL DUP3 MSTORE PUSH1 0x11 PUSH1 0x4 MSTORE PUSH1 0x24 DUP3 REVERT JUMPDEST SWAP1 DUP1 PUSH1 0x20 SWAP4 SWAP3 DUP2 DUP5 MSTORE DUP5 DUP5 ADD CALLDATACOPY PUSH1 0x0 DUP3 DUP3 ADD DUP5 ADD MSTORE PUSH1 0x1F ADD PUSH1 0x1F NOT AND ADD ADD SWAP1 JUMP JUMPDEST SWAP2 PUSH1 0x20 SWAP2 PUSH2 0x207B SWAP2 SWAP6 SWAP5 SWAP6 PUSH1 0x40 DUP6 MSTORE PUSH1 0x40 DUP6 ADD SWAP2 PUSH2 0x2041 JUMP JUMPDEST PUSH1 0x1 PUSH1 0x1 PUSH1 0xA0 SHL SUB SWAP1 SWAP5 AND SWAP2 ADD MSTORE JUMP JUMPDEST PUSH1 0x40 MLOAD SWAP1 PUSH2 0x2098 DUP3 PUSH2 0x1967 JUMP JUMPDEST PUSH1 0x0 PUSH1 0xA0 DUP4 PUSH1 0x60 DUP2 MSTORE DUP3 PUSH1 0x20 DUP3 ADD MSTORE DUP3 PUSH1 0x40 DUP3 ADD MSTORE DUP3 PUSH1 0x60 DUP3 ADD MSTORE DUP3 PUSH1 0x80 DUP3 ADD MSTORE ADD MSTORE JUMP JUMPDEST DUP1 ISZERO PUSH2 0x1ECF JUMPI PUSH1 0x0 NOT ADD SWAP1 JUMP JUMPDEST SWAP1 PUSH1 0x40 MLOAD PUSH2 0x20D7 DUP2 PUSH2 0x1967 JUMP JUMPDEST PUSH1 0xA0 PUSH1 0xFF PUSH1 0x4 DUP4 SWAP6 PUSH2 0x20E8 DUP2 PUSH2 0x19C1 JUMP JUMPDEST DUP6 MSTORE PUSH1 0x1 DUP2 ADD SLOAD PUSH1 0x20 DUP7 ADD MSTORE PUSH1 0x2 DUP2 ADD SLOAD PUSH1 0x40 DUP7 ADD MSTORE PUSH1 0x3 DUP2 ADD SLOAD PUSH1 0x60 DUP7 ADD MSTORE ADD SLOAD DUP2 DUP2 AND ISZERO ISZERO PUSH1 0x80 DUP6 ADD MSTORE PUSH1 0x8 SHR AND ISZERO ISZERO SWAP2 ADD MSTORE JUMP JUMPDEST SWAP1 PUSH2 0x2128 PUSH2 0x208B JUMP JUMPDEST POP PUSH1 0x0 SWAP2 PUSH1 0x1 DUP1 PUSH1 0xA0 SHL SUB AND DUP3 MSTORE PUSH1 0x20 PUSH1 0x2 DUP2 MSTORE PUSH1 0x40 SWAP1 DUP2 DUP5 KECCAK256 PUSH1 0x9 DUP2 ADD SLOAD ISZERO PUSH1 0x0 EQ PUSH2 0x21CC JUMPI POP PUSH2 0x1388 JUMPDEST PUSH1 0x4 DUP1 SLOAD DUP1 JUMPDEST PUSH2 0x2173 JUMPI POP POP POP SWAP1 PUSH1 0x3 PUSH2 0x1F5D SWAP3 DUP6 DUP1 MSTORE MSTORE DUP4 KECCAK256 PUSH2 0x20CA JUMP JUMPDEST PUSH1 0x0 NOT DUP2 ADD DUP2 DUP2 GT PUSH2 0x21B9 JUMPI DUP1 DUP9 MSTORE PUSH1 0x3 DUP6 MSTORE DUP6 DUP9 KECCAK256 SWAP1 PUSH1 0x1 DUP3 ADD SLOAD DUP6 LT ISZERO PUSH2 0x21A7 JUMPI POP POP PUSH2 0x21A1 SWAP1 PUSH2 0x20BD JUMP JUMPDEST DUP1 PUSH2 0x215A JUMP JUMPDEST SWAP5 POP SWAP7 POP POP POP POP PUSH2 0x1F5D SWAP2 POP SWAP3 PUSH2 0x20CA JUMP JUMPDEST PUSH4 0x4E487B71 PUSH1 0xE0 SHL DUP9 MSTORE PUSH1 0x11 DUP4 MSTORE PUSH1 0x24 DUP9 REVERT JUMPDEST SLOAD PUSH2 0x2154 JUMP JUMPDEST PUSH1 0x1 PUSH1 0x1 PUSH1 0xA0 SHL SUB AND PUSH1 0x0 SWAP1 DUP2 MSTORE PUSH1 0x2 PUSH1 0x20 DUP2 DUP2 MSTORE PUSH1 0x40 DUP1 DUP5 KECCAK256 PUSH1 0x9 DUP2 ADD SLOAD SWAP3 SWAP4 SWAP3 PUSH2 0x2263 JUMPI POP PUSH2 0x1388 SWAP1 JUMPDEST PUSH1 0x4 SWAP4 DUP5 SLOAD DUP1 JUMPDEST PUSH2 0x2212 JUMPI POP POP POP POP POP POP SWAP1 JUMP JUMPDEST PUSH1 0x0 NOT DUP2 ADD DUP2 DUP2 GT PUSH2 0x2250 JUMPI DUP8 MSTORE PUSH1 0x3 DUP3 MSTORE DUP3 DUP8 KECCAK256 PUSH1 0x1 DUP2 ADD SLOAD DUP6 LT ISZERO PUSH2 0x2243 JUMPI POP PUSH2 0x223D SWAP1 PUSH2 0x20BD JUMP JUMPDEST DUP1 PUSH2 0x2205 JUMP JUMPDEST SWAP6 POP POP POP POP POP SWAP2 POP ADD SLOAD SWAP1 JUMP JUMPDEST PUSH4 0x4E487B71 PUSH1 0xE0 SHL DUP9 MSTORE PUSH1 0x11 DUP8 MSTORE PUSH1 0x24 DUP9 REVERT JUMPDEST SLOAD SWAP1 PUSH2 0x21FE JUMP JUMPDEST PUSH1 0x1 PUSH1 0x1 PUSH1 0xA0 SHL SUB AND PUSH1 0x0 SWAP1 DUP2 MSTORE PUSH1 0x2 PUSH1 0x20 SWAP1 DUP2 MSTORE PUSH1 0x40 DUP1 DUP4 KECCAK256 PUSH1 0xA DUP2 ADD SLOAD PUSH1 0xFF SWAP3 SWAP2 SWAP1 DUP4 AND PUSH2 0x230E JUMPI PUSH1 0x9 DUP2 ADD SLOAD PUSH2 0x2308 JUMPI POP PUSH2 0x1388 JUMPDEST PUSH1 0x4 SWAP2 DUP3 SLOAD DUP1 JUMPDEST PUSH2 0x22B6 JUMPI POP POP POP POP POP POP SWAP1 JUMP JUMPDEST PUSH1 0x0 NOT DUP2 ADD DUP2 DUP2 GT PUSH2 0x22F5 JUMPI DUP8 MSTORE PUSH1 0x3 DUP7 MSTORE DUP2 DUP8 KECCAK256 PUSH1 0x1 DUP2 ADD SLOAD DUP5 LT ISZERO PUSH2 0x22E7 JUMPI POP PUSH2 0x22E1 SWAP1 PUSH2 0x20BD JUMP JUMPDEST DUP1 PUSH2 0x22A9 JUMP JUMPDEST SWAP5 SWAP7 POP POP POP POP SWAP2 POP ADD SLOAD AND SWAP1 JUMP JUMPDEST PUSH4 0x4E487B71 PUSH1 0xE0 SHL DUP9 MSTORE PUSH1 0x11 DUP6 MSTORE PUSH1 0x24 DUP9 REVERT JUMPDEST SLOAD PUSH2 0x22A2 JUMP JUMPDEST POP POP POP POP SWAP1 JUMP JUMPDEST PUSH1 0x1 PUSH1 0x1 PUSH1 0xA0 SHL SUB AND PUSH1 0x0 SWAP1 DUP2 MSTORE PUSH1 0x2 PUSH1 0x20 SWAP1 DUP2 MSTORE PUSH1 0x40 DUP1 DUP4 KECCAK256 PUSH1 0xA DUP2 ADD SLOAD SWAP2 SWAP3 SWAP2 PUSH1 0xFF AND PUSH2 0x23C1 JUMPI PUSH1 0x9 DUP2 ADD SLOAD PUSH2 0x23BB JUMPI POP PUSH2 0x1388 JUMPDEST PUSH1 0x4 SWAP1 DUP2 SLOAD DUP1 JUMPDEST PUSH2 0x2369 JUMPI POP POP POP SWAP2 PUSH1 0x3 DUP1 SWAP4 DUP3 DUP1 MSTORE MSTORE KECCAK256 ADD SLOAD SWAP1 JUMP JUMPDEST PUSH1 0x0 NOT DUP2 ADD DUP2 DUP2 GT PUSH2 0x23A8 JUMPI DUP7 MSTORE PUSH1 0x3 DUP1 DUP6 MSTORE DUP6 DUP8 KECCAK256 PUSH1 0x1 DUP2 ADD SLOAD DUP5 LT ISZERO PUSH2 0x239C JUMPI POP POP PUSH2 0x2396 SWAP1 PUSH2 0x20BD JUMP JUMPDEST DUP1 PUSH2 0x2353 JUMP JUMPDEST ADD SLOAD SWAP7 SWAP6 POP POP POP POP POP POP JUMP JUMPDEST PUSH4 0x4E487B71 PUSH1 0xE0 SHL DUP8 MSTORE PUSH1 0x11 DUP5 MSTORE PUSH1 0x24 DUP8 REVERT JUMPDEST SLOAD PUSH2 0x234C JUMP JUMPDEST POP POP POP SWAP1 JUMP INVALID COINBASE CHAINID 0xA6 KECCAK256 CALLCODE CALLVALUE 0xBE 0x49 PUSH9 0x6701963664655B5FB4 MLOAD SWAP10 PUSH32 0x8462F773D272D68F17043F6E4EF51CC33F3FD1BF8122B95763610C781091C183 0xCE 0x23 0xD3 SMOD 0xE 0xC0 CALLVALUE 0xEE MULMOD PUSH0 0xB4 LOG2 PUSH5 0x6970667358 0x22 SLT KECCAK256 PUSH31 0x7825EFB817E19E892993539515621A1A5F6715830DACC945A4C67426512999 PUSH5 0x736F6C6343 STOP ADDMOD EQ STOP CALLER 0x2F DUP8 DUP9 GT PUSH31 0x7EFF1D82E926EC794901D17C78024A50270940304540A733656F0D00000000 "},"methodIdentifiers":{"APPEAL_FAIL_PENALTY()":"2617f71e","APPEAL_SUCCESS_BONUS()":"eb30f6fb","BAN_THRESHOLD()":"df230361","BASE_REPUTATION()":"4f2b0d4a","DEFAULT_ADMIN_ROLE()":"a217fddf","DISPUTE_CONTRACT_ROLE()":"623a41c2","EVIDENCE_QUALITY_BONUS()":"44a2008b","FAST_RESPONSE_BONUS()":"68766a64","FRAUD_PENALTY()":"238dcf88","HIGH_CONFIDENCE_BONUS()":"e9610b50","LOSS_PENALTY()":"a4d6f0b0","MAX_REPUTATION()":"d213c0f2","MIN_REPUTATION()":"697c6045","MODERATOR_ROLE()":"797669c9","SPLIT_BONUS()":"1f027cef","WIN_BONUS()":"3a6f6b38","applyFraudPenalty(address,string)":"d36d0dac","banUser(address,string)":"de8be6fd","canUserAppeal(address)":"06c71579","createTier(string,uint256,uint256,uint256,bool,bool)":"8ea5e4c6","getFeeDiscount(address)":"b7fa7cfc","getMaxDisputeAmount(address)":"8644032c","getReputation(address)":"9c89a0e2","getReputationScore(address)":"75a67d5c","getRoleAdmin(bytes32)":"248a9ca3","getTier(uint256)":"4f062c5a","getUserTier(address)":"e4d2620e","grantRole(bytes32,address)":"2f2ff15d","hasRole(bytes32,address)":"91d14854","isUserBanned(address)":"9ed9b4fd","rateEvidenceQuality(address,uint256,uint256)":"978374b1","recordAppealOutcome(address,bool)":"9e21592b","recordDisputeOutcome(address,bool,bool,uint8)":"bf93faf5","recordResponseTime(address,uint256)":"ff1f9c42","renounceRole(bytes32,address)":"36568abe","reputationTiers(uint256)":"0f96f2d3","revokeRole(bytes32,address)":"d547741f","setDisputeContract(address)":"44d23d6f","supportsInterface(bytes4)":"01ffc9a7","tierCount()":"96b55f7d","unbanUser(address)":"4d12b695","userReputations(address)":"f8b11691"}}}}}