{
  "_format": "hh-sol-artifact-1",
  "contractName": "GenLayerOracleAdapter",
  "sourceName": "contracts/GenLayerOracleAdapter.sol",
  "abi": [
    {
      "inputs": [
        {
          "internalType": "address",
          "name": "_genLayerRelayer",
          "type": "address"
        }
      ],
      "stateMutability": "nonpayable",
      "type": "constructor"
    },
    {
      "inputs": [
        {
          "internalType": "address",
          "name": "owner",
          "type": "address"
        }
      ],
      "name": "OwnableInvalidOwner",
      "type": "error"
    },
    {
      "inputs": [
        {
          "internalType": "address",
          "name": "account",
          "type": "address"
        }
      ],
      "name": "OwnableUnauthorizedAccount",
      "type": "error"
    },
    {
      "inputs": [],
      "name": "ReentrancyGuardReentrantCall",
      "type": "error"
    },
    {
      "anonymous": false,
      "inputs": [
        {
          "indexed": false,
          "internalType": "uint256",
          "name": "oldFee",
          "type": "uint256"
        },
        {
          "indexed": false,
          "internalType": "uint256",
          "name": "newFee",
          "type": "uint256"
        }
      ],
      "name": "FeeUpdated",
      "type": "event"
    },
    {
      "anonymous": false,
      "inputs": [
        {
          "indexed": true,
          "internalType": "bytes32",
          "name": "requestId",
          "type": "bytes32"
        },
        {
          "indexed": true,
          "internalType": "uint256",
          "name": "disputeId",
          "type": "uint256"
        },
        {
          "indexed": false,
          "internalType": "string",
          "name": "prompt",
          "type": "string"
        }
      ],
      "name": "OracleRequestCreated",
      "type": "event"
    },
    {
      "anonymous": false,
      "inputs": [
        {
          "indexed": true,
          "internalType": "bytes32",
          "name": "requestId",
          "type": "bytes32"
        },
        {
          "indexed": true,
          "internalType": "uint256",
          "name": "disputeId",
          "type": "uint256"
        },
        {
          "indexed": false,
          "internalType": "string",
          "name": "reason",
          "type": "string"
        }
      ],
      "name": "OracleRequestFailed",
      "type": "event"
    },
    {
      "anonymous": false,
      "inputs": [
        {
          "indexed": true,
          "internalType": "bytes32",
          "name": "requestId",
          "type": "bytes32"
        },
        {
          "indexed": true,
          "internalType": "uint256",
          "name": "disputeId",
          "type": "uint256"
        },
        {
          "indexed": false,
          "internalType": "uint8",
          "name": "resolution",
          "type": "uint8"
        },
        {
          "indexed": false,
          "internalType": "uint8",
          "name": "confidenceScore",
          "type": "uint8"
        }
      ],
      "name": "OracleRequestFulfilled",
      "type": "event"
    },
    {
      "anonymous": false,
      "inputs": [
        {
          "indexed": true,
          "internalType": "address",
          "name": "previousOwner",
          "type": "address"
        },
        {
          "indexed": true,
          "internalType": "address",
          "name": "newOwner",
          "type": "address"
        }
      ],
      "name": "OwnershipTransferred",
      "type": "event"
    },
    {
      "anonymous": false,
      "inputs": [
        {
          "indexed": true,
          "internalType": "address",
          "name": "oldRelayer",
          "type": "address"
        },
        {
          "indexed": true,
          "internalType": "address",
          "name": "newRelayer",
          "type": "address"
        }
      ],
      "name": "RelayerUpdated",
      "type": "event"
    },
    {
      "inputs": [],
      "name": "REQUEST_TIMEOUT",
      "outputs": [
        {
          "internalType": "uint256",
          "name": "",
          "type": "uint256"
        }
      ],
      "stateMutability": "view",
      "type": "function"
    },
    {
      "inputs": [],
      "name": "aiPromptTemplate",
      "outputs": [
        {
          "internalType": "string",
          "name": "",
          "type": "string"
        }
      ],
      "stateMutability": "view",
      "type": "function"
    },
    {
      "inputs": [],
      "name": "disputeResolutionContract",
      "outputs": [
        {
          "internalType": "address",
          "name": "",
          "type": "address"
        }
      ],
      "stateMutability": "view",
      "type": "function"
    },
    {
      "inputs": [
        {
          "internalType": "uint256",
          "name": "",
          "type": "uint256"
        }
      ],
      "name": "disputeToRequest",
      "outputs": [
        {
          "internalType": "bytes32",
          "name": "",
          "type": "bytes32"
        }
      ],
      "stateMutability": "view",
      "type": "function"
    },
    {
      "inputs": [
        {
          "internalType": "bytes32",
          "name": "_requestId",
          "type": "bytes32"
        },
        {
          "internalType": "string",
          "name": "_reason",
          "type": "string"
        }
      ],
      "name": "failRequest",
      "outputs": [],
      "stateMutability": "nonpayable",
      "type": "function"
    },
    {
      "inputs": [
        {
          "internalType": "bytes32",
          "name": "_requestId",
          "type": "bytes32"
        },
        {
          "internalType": "uint8",
          "name": "_resolution",
          "type": "uint8"
        },
        {
          "internalType": "uint8",
          "name": "_confidenceScore",
          "type": "uint8"
        },
        {
          "internalType": "string",
          "name": "_reasoningHash",
          "type": "string"
        }
      ],
      "name": "fulfillRequest",
      "outputs": [],
      "stateMutability": "nonpayable",
      "type": "function"
    },
    {
      "inputs": [],
      "name": "genLayerRelayer",
      "outputs": [
        {
          "internalType": "address",
          "name": "",
          "type": "address"
        }
      ],
      "stateMutability": "view",
      "type": "function"
    },
    {
      "inputs": [
        {
          "internalType": "bytes32",
          "name": "_requestId",
          "type": "bytes32"
        }
      ],
      "name": "getRequest",
      "outputs": [
        {
          "components": [
            {
              "internalType": "uint256",
              "name": "disputeId",
              "type": "uint256"
            },
            {
              "internalType": "address",
              "name": "disputeContract",
              "type": "address"
            },
            {
              "internalType": "bytes32",
              "name": "requestId",
              "type": "bytes32"
            },
            {
              "internalType": "uint256",
              "name": "timestamp",
              "type": "uint256"
            },
            {
              "internalType": "enum GenLayerOracleAdapter.RequestStatus",
              "name": "status",
              "type": "uint8"
            },
            {
              "internalType": "string",
              "name": "prompt",
              "type": "string"
            }
          ],
          "internalType": "struct GenLayerOracleAdapter.OracleRequest",
          "name": "",
          "type": "tuple"
        }
      ],
      "stateMutability": "view",
      "type": "function"
    },
    {
      "inputs": [
        {
          "internalType": "uint256",
          "name": "_disputeId",
          "type": "uint256"
        }
      ],
      "name": "getRequestByDispute",
      "outputs": [
        {
          "components": [
            {
              "internalType": "uint256",
              "name": "disputeId",
              "type": "uint256"
            },
            {
              "internalType": "address",
              "name": "disputeContract",
              "type": "address"
            },
            {
              "internalType": "bytes32",
              "name": "requestId",
              "type": "bytes32"
            },
            {
              "internalType": "uint256",
              "name": "timestamp",
              "type": "uint256"
            },
            {
              "internalType": "enum GenLayerOracleAdapter.RequestStatus",
              "name": "status",
              "type": "uint8"
            },
            {
              "internalType": "string",
              "name": "prompt",
              "type": "string"
            }
          ],
          "internalType": "struct GenLayerOracleAdapter.OracleRequest",
          "name": "",
          "type": "tuple"
        }
      ],
      "stateMutability": "view",
      "type": "function"
    },
    {
      "inputs": [
        {
          "internalType": "bytes32",
          "name": "_requestId",
          "type": "bytes32"
        }
      ],
      "name": "handleExpiredRequest",
      "outputs": [],
      "stateMutability": "nonpayable",
      "type": "function"
    },
    {
      "inputs": [
        {
          "internalType": "bytes32",
          "name": "_requestId",
          "type": "bytes32"
        }
      ],
      "name": "isRequestPending",
      "outputs": [
        {
          "internalType": "bool",
          "name": "",
          "type": "bool"
        }
      ],
      "stateMutability": "view",
      "type": "function"
    },
    {
      "inputs": [],
      "name": "oracleFee",
      "outputs": [
        {
          "internalType": "uint256",
          "name": "",
          "type": "uint256"
        }
      ],
      "stateMutability": "view",
      "type": "function"
    },
    {
      "inputs": [],
      "name": "owner",
      "outputs": [
        {
          "internalType": "address",
          "name": "",
          "type": "address"
        }
      ],
      "stateMutability": "view",
      "type": "function"
    },
    {
      "inputs": [],
      "name": "renounceOwnership",
      "outputs": [],
      "stateMutability": "nonpayable",
      "type": "function"
    },
    {
      "inputs": [
        {
          "internalType": "uint256",
          "name": "_disputeId",
          "type": "uint256"
        },
        {
          "internalType": "bytes",
          "name": "_disputeData",
          "type": "bytes"
        }
      ],
      "name": "requestAIAnalysis",
      "outputs": [
        {
          "internalType": "bytes32",
          "name": "",
          "type": "bytes32"
        }
      ],
      "stateMutability": "payable",
      "type": "function"
    },
    {
      "inputs": [],
      "name": "requestCounter",
      "outputs": [
        {
          "internalType": "uint256",
          "name": "",
          "type": "uint256"
        }
      ],
      "stateMutability": "view",
      "type": "function"
    },
    {
      "inputs": [
        {
          "internalType": "bytes32",
          "name": "",
          "type": "bytes32"
        }
      ],
      "name": "requests",
      "outputs": [
        {
          "internalType": "uint256",
          "name": "disputeId",
          "type": "uint256"
        },
        {
          "internalType": "address",
          "name": "disputeContract",
          "type": "address"
        },
        {
          "internalType": "bytes32",
          "name": "requestId",
          "type": "bytes32"
        },
        {
          "internalType": "uint256",
          "name": "timestamp",
          "type": "uint256"
        },
        {
          "internalType": "enum GenLayerOracleAdapter.RequestStatus",
          "name": "status",
          "type": "uint8"
        },
        {
          "internalType": "string",
          "name": "prompt",
          "type": "string"
        }
      ],
      "stateMutability": "view",
      "type": "function"
    },
    {
      "inputs": [
        {
          "internalType": "address",
          "name": "_contract",
          "type": "address"
        }
      ],
      "name": "setDisputeResolutionContract",
      "outputs": [],
      "stateMutability": "nonpayable",
      "type": "function"
    },
    {
      "inputs": [
        {
          "internalType": "uint256",
          "name": "_fee",
          "type": "uint256"
        }
      ],
      "name": "setOracleFee",
      "outputs": [],
      "stateMutability": "nonpayable",
      "type": "function"
    },
    {
      "inputs": [
        {
          "internalType": "string",
          "name": "_template",
          "type": "string"
        }
      ],
      "name": "setPromptTemplate",
      "outputs": [],
      "stateMutability": "nonpayable",
      "type": "function"
    },
    {
      "inputs": [
        {
          "internalType": "address",
          "name": "_relayer",
          "type": "address"
        }
      ],
      "name": "setRelayer",
      "outputs": [],
      "stateMutability": "nonpayable",
      "type": "function"
    },
    {
      "inputs": [
        {
          "internalType": "address",
          "name": "newOwner",
          "type": "address"
        }
      ],
      "name": "transferOwnership",
      "outputs": [],
      "stateMutability": "nonpayable",
      "type": "function"
    },
    {
      "inputs": [],
      "name": "withdrawFees",
      "outputs": [],
      "stateMutability": "nonpayable",
      "type": "function"
    },
    {
      "stateMutability": "payable",
      "type": "receive"
    }
  ],
  "bytecode": "0x608034620003ad57601f62001dda38819003918201601f19168301916001600160401b03831184841017620003b257808492602094604052833981010312620003ad57516001600160a01b039081811690819003620003ad5733156200039457600090815460018060a01b03199033828216178455604051943391167f8be0079c531659141344cd1fd0a4f28419497f9722a3daafe3b4186f6b6457e08580a360019384805566038d7ea4c68000600555821562000360575060035416176003556008548281811c9116801562000355575b60208210146200034157601f8111620002ea575b6101f9600890815582527f416e616c797a652074686520666f6c6c6f77696e67206469737075746520616e60008051602062001dba8339815191529081557f642070726f7669646520612066616972207265736f6c7574696f6e2e20436f6e908401557f736964657220616c6c207375626d69747465642065766964656e63652c2074687ff3f7a9fe364faab93b216da50a3214154f22a0a2b415b23a84c8169e8b636ee5557f6520646973707574652063617465676f72792c20616e64206170706c696361627ff3f7a9fe364faab93b216da50a3214154f22a0a2b415b23a84c8169e8b636ee6557f6c65207374616e64617264732e2052657475726e2061207265736f6c7574696f7ff3f7a9fe364faab93b216da50a3214154f22a0a2b415b23a84c8169e8b636ee7557f6e2028313d4661766f72436c61696d616e742c20323d4661766f72526573706f7ff3f7a9fe364faab93b216da50a3214154f22a0a2b415b23a84c8169e8b636ee8557f6e64656e742c20333d53706c69742c20343d4469736d69737365642920616e647ff3f7a9fe364faab93b216da50a3214154f22a0a2b415b23a84c8169e8b636ee9557f206120636f6e666964656e63652073636f72652028302d313030292e000000007ff3f7a9fe364faab93b216da50a3214154f22a0a2b415b23a84c8169e8b636eea556040516119f19081620003c98239f35b60088252601f0160051c60008051602062001dba833981519152017ff3f7a9fe364faab93b216da50a3214154f22a0a2b415b23a84c8169e8b636eeb5b818110620003365750620000e5565b828155830162000327565b634e487b7160e01b82526022600452602482fd5b90607f1690620000d1565b62461bcd60e51b815260206004820152600f60248201526e24b73b30b634b2103932b630bcb2b960891b6044820152606490fd5b604051631e4fbdf760e01b815260006004820152602490fd5b600080fd5b634e487b7160e01b600052604160045260246000fdfe6080604052600436101561001b575b361561001957600080fd5b005b6000803560e01c80631672e69414611218578063476343ee1461117f57806347beb6fd14610b525780635fe5392f14610b095780636548e9bc14610a5f578063685ea922146109dd578063694ecb5f146109b4578063715018a61461095a5780637983f136146107295780638da5cb5b14610702578063973a814e146106e45780639d8669851461065b578063a21d516c14610525578063aa95434e146104fb578063ad9514f01461042b578063b6d9ef60146103d5578063bc2c81e9146103b7578063cae4e7b5146102d1578063d1e93d1414610298578063f2fde38b14610207578063f46f96b2146101de578063f9cd3ceb146101c05763fb1e61ca14610124575061000e565b346101bd5760203660031901126101bd5760406101b991610143611966565b5060043581526006602052206101a8600560405192610161846114a9565b8054845260018101546001600160a01b031660208501526002810154604085015260038101546060850152600481015460ff1661019d816113aa565b608085015201611516565b60a082015260405191829182611412565b0390f35b80fd5b50346101bd57806003193601126101bd576020600554604051908152f35b50346101bd57806003193601126101bd576002546040516001600160a01b039091168152602090f35b50346101bd5760203660031901126101bd576004356001600160a01b0381811691829003610294576102376115bc565b811561027b57600054826001600160601b0360a01b821617600055167f8be0079c531659141344cd1fd0a4f28419497f9722a3daafe3b4186f6b6457e0600080a380f35b604051631e4fbdf760e01b815260048101849052602490fd5b8280fd5b50346101bd5760203660031901126101bd5760ff600460406020938235815260068552200154166102c8816113aa565b60405190158152f35b50346101bd5760403660031901126101bd576024356004356001600160401b038211610294576103267f60147910b1499a2846acef7ed1435e1ed66e4392c90a06e52c2c88ff206bd17a923690600401611378565b929061033d60018060a01b03600354163314611630565b82855260066020526040852093600485549561035a87151561166b565b016003815461037f60ff821661036f816113aa565b80159081156103a3575b506116ab565b60ff191617905561039d6040519283926020845260208401916116e8565b0390a380f35b600191506103b0816113aa565b1438610379565b50346101bd57806003193601126101bd576020604051620151808152f35b50346101bd5760203660031901126101bd577f528d9479e9f9889a87a3c30c7f7ba537e5e59c4c85a37733b16e57c62df6130260406004356104156115bc565b600554908060055582519182526020820152a180f35b50346101bd57806003193601126101bd57604051600060085461044d8161146f565b808452906001908181169081156104d4575060011461048b575b6101b984610477818603826114f5565b6040519182916020835260208301906113ed565b60086000908152925060008051602061199c8339815191525b8284106104bc57505050810160200161047782610467565b805460208587018101919091529093019281016104a4565b60ff191660208087019190915292151560051b850190920192506104779150839050610467565b50346101bd5760203660031901126101bd5760406020916004358152600783522054604051908152f35b50346101bd576020806003193601126106575760043580835260068252604083209182549261055584151561166b565b600481019081549060ff821661056a816113aa565b6106245760030154620151808101809111610610574211156105dd579160609160047f60147910b1499a2846acef7ed1435e1ed66e4392c90a06e52c2c88ff206bd17a9460ff1916179055600f604051918083528201526e14995c5d595cdd08195e1c1a5c9959608a1b6040820152a380f35b60405162461bcd60e51b815260048101849052600b60248201526a139bdd08195e1c1a5c995960aa1b6044820152606490fd5b634e487b7160e01b87526011600452602487fd5b60405162461bcd60e51b815260048101859052600b60248201526a4e6f742070656e64696e6760a81b6044820152606490fd5b5080fd5b50346101bd5760203660031901126101bd57604090600435815260066020522080546101b960018060a01b036001840154169260028101549060038101546106ad600560ff6004850154169301611516565b9260405196879687526020870152604086015260608501526106ce816113aa565b608084015260c060a084015260c08301906113ed565b50346101bd57806003193601126101bd576020600454604051908152f35b50346101bd57806003193601126101bd57546040516001600160a01b039091168152602090f35b50346101bd5760803660031901126101bd576004356024359060ff8216809203610294576044359160ff8316809303610956576001600160401b036064358181116109525761077c903690600401611378565b9160018060a01b0361079381600354163314611630565b61079b61160d565b858852600660205260408820936107b48554151561166b565b60048501918254926107d260ff85166107cc816113aa565b156116ab565b600188101580610947575b1561090d5760648a116108d35760028b9460ff1916179055600186015416610804876113aa565b803b156102945760405163b474fcd360e01b815260048101899052948592839185918391610852918e6108368e6113aa565b8d602486015260448501526080606485015260848401916116e8565b03925af180156108c85761089c575b50507f818a4e65ff44dfa52546298dad52e9cfc038f41a484cc9fb6355c6f2831249c591604091549482519182526020820152a36001805580f35b81969296116108b45760409081529094908290610861565b634e487b7160e01b82526041600452602482fd5b6040513d89823e3d90fd5b60405162461bcd60e51b8152602060048201526012602482015271496e76616c696420636f6e666964656e636560701b6044820152606490fd5b60405162461bcd60e51b815260206004820152601260248201527124b73b30b634b2103932b9b7b63aba34b7b760711b6044820152606490fd5b5060048811156107dd565b8580fd5b8380fd5b50346101bd57806003193601126101bd576109736115bc565b80546001600160a01b03198116825581906001600160a01b03167f8be0079c531659141344cd1fd0a4f28419497f9722a3daafe3b4186f6b6457e08280a380f35b50346101bd57806003193601126101bd576003546040516001600160a01b039091168152602090f35b50346101bd5760203660031901126101bd576004356001600160a01b0381169081900361065757610a0c6115bc565b8015610a28576001600160601b0360a01b600254161760025580f35b60405162461bcd60e51b815260206004820152600f60248201526e496e76616c6964206164647265737360881b6044820152606490fd5b50346101bd5760203660031901126101bd576004356001600160a01b038181169182900361029457610a8f6115bc565b8115610ad257600354826001600160601b0360a01b821617600355167f605ca4e43489fb38b91aa63dd9147cd3847957694b080b9285ec898b34269f0c8380a380f35b60405162461bcd60e51b815260206004820152600f60248201526e24b73b30b634b2103932b630bcb2b960891b6044820152606490fd5b50346101bd5760203660031901126101bd5760406101b991610b29611966565b50600435815260076020528181205481526006602052206101a8600560405192610161846114a9565b5060403660031901126101bd576024356001600160401b03811161065757610b7e903690600401611378565b6002546001600160a01b0316330361114257610b9861160d565b600554341061110a576004358352600760205260408320546110d457610bbf6004546115e8565b8060045560001943014381116110c057604051906020820192600435845260408301524260608301524060808201526080815260a081018181106001600160401b03821117610fed5760405251902091608081838101031261095657602081013560ff811690036109565760408101356001600160401b0381116110bc57610c4c90838301908301611724565b9060608101356001600160401b03811161095257838201601f8284010112156109525780820135936001600160401b0385116110a8578460051b9060405195610c9860208401886114f5565b865260208601908085016020848688010101116110a457602084860101915b6020848688010101831061106c575050505050610ceb610ce46020610cdc843561176b565b930135611845565b935161176b565b9160405193849287600854610cff8161146f565b90600181169081156110495750600114611001575b5091603d949391610ddb96936c5052234b9b83aba329024a21d160951b8152610d47825180936020600e850191016113ca565b0169521b0ba32b3b7b93c9d160ad1b600e820152610d6f8251809360206019850191016113ca565b017152232b9b1b934b83a34b7b71024a823299d1606d1b6019820152610d9f825180936020602c850191016113ca565b016f522bb34b232b731b29031b7bab73a1d1607d1b602c820152610dcc82518093602087850191016113ca565b0103601d8101845201826114f5565b600254604051906001600160a01b0316610df4826114a9565b600435825260208201528260408201524260608201528360808201528160a0820152828452600660205260a06005604086208351815560018101600180851b036020860151166001600160601b03851b8254161790556040840151600282015560608401516003820155600481016080850151610e70816113aa565b610e79816113aa565b60ff80198354169116179055019101519081516001600160401b038111610fed57610ea4825461146f565b601f8111610fa8575b509484916020968794601f8211600114610f41576040949582918592610f36575b50508160011b916000199060031b1c19161790555b6004358152600786522055817f5232c86b785c7eddde175ce2cb0069f4b340d44398b8f5e233600c2028ba8c0760405185815280610f2760043595888301906113ed565b0390a360018055604051908152f35b015190503880610ece565b82845288842090601f198316855b818110610f8e5750968392916001946040989910610f75575b505050811b019055610ee3565b015160001960f88460031b161c19169055388080610f68565b828901518455978b01978a97506001909301928b01610f4f565b82875260208720601f830160051c81019160208410610fe3575b601f0160051c01905b818110610fd85750610ead565b878155600101610fcb565b9091508190610fc2565b634e487b7160e01b86526041600452602486fd5b60088a5290508860008051602061199c8339815191525b82821061102d5750508401602001603d610d14565b80546020838b0181019190915289975090910190600101611018565b60ff191660208881019190915282151590920287019091019150603d9050610d14565b6001600160401b038335116110a0576020808092611093858a018388358b8d010101611724565b8152019301929050610cb7565b8980fd5b8880fd5b634e487b7160e01b87526041600452602487fd5b8480fd5b634e487b7160e01b85526011600452602485fd5b60405162461bcd60e51b815260206004820152600e60248201526d526571756573742065786973747360901b6044820152606490fd5b60405162461bcd60e51b815260206004820152601060248201526f496e73756666696369656e742066656560801b6044820152606490fd5b60405162461bcd60e51b815260206004820152601560248201527413db9b1e48191a5cdc1d5d194818dbdb9d1c9858dd605a1b6044820152606490fd5b50346101bd57806003193601126101bd576111986115bc565b8080808060018060a01b0381541647905af13d15611213573d6111ba81611709565b906111c860405192836114f5565b81528260203d92013e5b156111da5780f35b60405162461bcd60e51b815260206004820152601160248201527015da5d1a191c985dd85b0819985a5b1959607a1b6044820152606490fd5b6111d2565b50346101bd57602090816003193601126101bd576001600160401b036004358181116102945761124c903690600401611378565b916112556115bc565b82116113645761126660085461146f565b601f8111611318575b508293601f83116001146112ac57509282938293926112a1575b50508160011b916000199060031b1c19161760085580f35b013590503880611289565b601f1983169460008051602061199c833981519152929185905b8782106113005750508360019596106112e6575b505050811b0160085580f35b0135600019600384901b60f8161c191690553880806112da565b806001849682949587013581550195019201906112c6565b60008051602061199c833981519152601f840160051c81019186851061135a575b601f0160051c01905b81811061134f575061126f565b848155600101611342565b9091508190611339565b634e487b7160e01b83526041600452602483fd5b9181601f840112156113a5578235916001600160401b0383116113a557602083818601950101116113a557565b600080fd5b600511156113b457565b634e487b7160e01b600052602160045260246000fd5b60005b8381106113dd5750506000910152565b81810151838201526020016113cd565b90602091611406815180928185528580860191016113ca565b601f01601f1916010190565b60e060a061146c936020845280516020850152600180831b03602082015116604085015260408101516060850152606081015160808501526080810151611458816113aa565b8285015201519160c08082015201906113ed565b90565b90600182811c9216801561149f575b602083101461148957565b634e487b7160e01b600052602260045260246000fd5b91607f169161147e565b60c081019081106001600160401b038211176114c457604052565b634e487b7160e01b600052604160045260246000fd5b604081019081106001600160401b038211176114c457604052565b90601f801991011681019081106001600160401b038211176114c457604052565b906040519182600082549261152a8461146f565b9081845260019485811690816000146115995750600114611556575b5050611554925003836114f5565b565b9093915060005260209081600020936000915b81831061158157505061155493508201013880611546565b85548884018501529485019487945091830191611569565b91505061155494506020925060ff191682840152151560051b8201013880611546565b6000546001600160a01b031633036115d057565b60405163118cdaa760e01b8152336004820152602490fd5b60001981146115f75760010190565b634e487b7160e01b600052601160045260246000fd5b60026001541461161e576002600155565b604051633ee5aeb560e01b8152600490fd5b1561163757565b60405162461bcd60e51b815260206004820152600c60248201526b27b7363c903932b630bcb2b960a11b6044820152606490fd5b1561167257565b60405162461bcd60e51b815260206004820152601160248201527014995c5d595cdd081b9bdd08199bdd5b99607a1b6044820152606490fd5b156116b257565b60405162461bcd60e51b815260206004820152600e60248201526d496e76616c69642073746174757360901b6044820152606490fd5b908060209392818452848401376000828201840152601f01601f1916010190565b6001600160401b0381116114c457601f01601f191660200190565b81601f820112156113a55780359061173b82611709565b9261174960405194856114f5565b828452602083830101116113a557816000926020809301838601378301015290565b80156118275780816000925b611813575061178582611709565b9161179360405193846114f5565b808352601f196117a282611709565b0190602091368386013791805b6117b95750505090565b600a9060309382820685018095116115f75780156115f75760001901809486518210156117fd5760f81b6001600160f81b03191660001a90860184015304806117af565b634e487b7160e01b600052603260045260246000fd5b9161181f600a916115e8565b920480611777565b50604051611834816114da565b60018152600360fc1b602082015290565b60ff16801561193b576001811461191057600281146118e557600381146118b45760041461188e57604051611879816114da565b600581526427ba3432b960d91b602082015290565b60405161189a816114da565b600a8152694672617564436c61696d60b01b602082015290565b506040516118c1816114da565b6014815273496e74656c6c65637475616c50726f706572747960601b602082015290565b506040516118f2816114da565b600e81526d5061796d656e744469737075746560901b602082015290565b5060405161191d816114da565b600e81526d536572766963655175616c69747960901b602082015290565b50604051611948816114da565b600e81526d086dedce8e4c2c6e884e4cac2c6d60931b602082015290565b60405190611973826114a9565b606060a08360008152600060208201526000604082015260008382015260006080820152015256fef3f7a9fe364faab93b216da50a3214154f22a0a2b415b23a84c8169e8b636ee3a26469706673582212208ab444f5bdb5205c00d8fea3f0e1b7968ede3298b0295a88f997897dbdd6c44c64736f6c63430008140033f3f7a9fe364faab93b216da50a3214154f22a0a2b415b23a84c8169e8b636ee3",
  "linkReferences": {},
  "deployedLinkReferences": {}
}