{
  "_format": "hh-sol-artifact-1",
  "contractName": "ReputationSystem",
  "sourceName": "contracts/ReputationSystem.sol",
  "abi": [
    {
      "inputs": [],
      "stateMutability": "nonpayable",
      "type": "constructor"
    },
    {
      "inputs": [],
      "name": "AccessControlBadConfirmation",
      "type": "error"
    },
    {
      "inputs": [
        {
          "internalType": "address",
          "name": "account",
          "type": "address"
        },
        {
          "internalType": "bytes32",
          "name": "neededRole",
          "type": "bytes32"
        }
      ],
      "name": "AccessControlUnauthorizedAccount",
      "type": "error"
    },
    {
      "inputs": [],
      "name": "ReentrancyGuardReentrantCall",
      "type": "error"
    },
    {
      "anonymous": false,
      "inputs": [
        {
          "indexed": true,
          "internalType": "address",
          "name": "user",
          "type": "address"
        },
        {
          "indexed": false,
          "internalType": "uint256",
          "name": "disputeId",
          "type": "uint256"
        },
        {
          "indexed": false,
          "internalType": "uint256",
          "name": "qualityScore",
          "type": "uint256"
        }
      ],
      "name": "EvidenceQualityRated",
      "type": "event"
    },
    {
      "anonymous": false,
      "inputs": [
        {
          "indexed": true,
          "internalType": "address",
          "name": "user",
          "type": "address"
        },
        {
          "indexed": false,
          "internalType": "uint256",
          "name": "oldScore",
          "type": "uint256"
        },
        {
          "indexed": false,
          "internalType": "uint256",
          "name": "newScore",
          "type": "uint256"
        },
        {
          "indexed": false,
          "internalType": "string",
          "name": "reason",
          "type": "string"
        }
      ],
      "name": "ReputationUpdated",
      "type": "event"
    },
    {
      "anonymous": false,
      "inputs": [
        {
          "indexed": true,
          "internalType": "bytes32",
          "name": "role",
          "type": "bytes32"
        },
        {
          "indexed": true,
          "internalType": "bytes32",
          "name": "previousAdminRole",
          "type": "bytes32"
        },
        {
          "indexed": true,
          "internalType": "bytes32",
          "name": "newAdminRole",
          "type": "bytes32"
        }
      ],
      "name": "RoleAdminChanged",
      "type": "event"
    },
    {
      "anonymous": false,
      "inputs": [
        {
          "indexed": true,
          "internalType": "bytes32",
          "name": "role",
          "type": "bytes32"
        },
        {
          "indexed": true,
          "internalType": "address",
          "name": "account",
          "type": "address"
        },
        {
          "indexed": true,
          "internalType": "address",
          "name": "sender",
          "type": "address"
        }
      ],
      "name": "RoleGranted",
      "type": "event"
    },
    {
      "anonymous": false,
      "inputs": [
        {
          "indexed": true,
          "internalType": "bytes32",
          "name": "role",
          "type": "bytes32"
        },
        {
          "indexed": true,
          "internalType": "address",
          "name": "account",
          "type": "address"
        },
        {
          "indexed": true,
          "internalType": "address",
          "name": "sender",
          "type": "address"
        }
      ],
      "name": "RoleRevoked",
      "type": "event"
    },
    {
      "anonymous": false,
      "inputs": [
        {
          "indexed": true,
          "internalType": "uint256",
          "name": "tierId",
          "type": "uint256"
        },
        {
          "indexed": false,
          "internalType": "string",
          "name": "name",
          "type": "string"
        },
        {
          "indexed": false,
          "internalType": "uint256",
          "name": "minScore",
          "type": "uint256"
        }
      ],
      "name": "TierCreated",
      "type": "event"
    },
    {
      "anonymous": false,
      "inputs": [
        {
          "indexed": true,
          "internalType": "address",
          "name": "user",
          "type": "address"
        },
        {
          "indexed": false,
          "internalType": "string",
          "name": "reason",
          "type": "string"
        },
        {
          "indexed": false,
          "internalType": "address",
          "name": "bannedBy",
          "type": "address"
        }
      ],
      "name": "UserBanned",
      "type": "event"
    },
    {
      "anonymous": false,
      "inputs": [
        {
          "indexed": true,
          "internalType": "address",
          "name": "user",
          "type": "address"
        },
        {
          "indexed": false,
          "internalType": "address",
          "name": "unbannedBy",
          "type": "address"
        }
      ],
      "name": "UserUnbanned",
      "type": "event"
    },
    {
      "inputs": [],
      "name": "APPEAL_FAIL_PENALTY",
      "outputs": [
        {
          "internalType": "uint256",
          "name": "",
          "type": "uint256"
        }
      ],
      "stateMutability": "view",
      "type": "function"
    },
    {
      "inputs": [],
      "name": "APPEAL_SUCCESS_BONUS",
      "outputs": [
        {
          "internalType": "uint256",
          "name": "",
          "type": "uint256"
        }
      ],
      "stateMutability": "view",
      "type": "function"
    },
    {
      "inputs": [],
      "name": "BAN_THRESHOLD",
      "outputs": [
        {
          "internalType": "uint256",
          "name": "",
          "type": "uint256"
        }
      ],
      "stateMutability": "view",
      "type": "function"
    },
    {
      "inputs": [],
      "name": "BASE_REPUTATION",
      "outputs": [
        {
          "internalType": "uint256",
          "name": "",
          "type": "uint256"
        }
      ],
      "stateMutability": "view",
      "type": "function"
    },
    {
      "inputs": [],
      "name": "DEFAULT_ADMIN_ROLE",
      "outputs": [
        {
          "internalType": "bytes32",
          "name": "",
          "type": "bytes32"
        }
      ],
      "stateMutability": "view",
      "type": "function"
    },
    {
      "inputs": [],
      "name": "DISPUTE_CONTRACT_ROLE",
      "outputs": [
        {
          "internalType": "bytes32",
          "name": "",
          "type": "bytes32"
        }
      ],
      "stateMutability": "view",
      "type": "function"
    },
    {
      "inputs": [],
      "name": "EVIDENCE_QUALITY_BONUS",
      "outputs": [
        {
          "internalType": "uint256",
          "name": "",
          "type": "uint256"
        }
      ],
      "stateMutability": "view",
      "type": "function"
    },
    {
      "inputs": [],
      "name": "FAST_RESPONSE_BONUS",
      "outputs": [
        {
          "internalType": "uint256",
          "name": "",
          "type": "uint256"
        }
      ],
      "stateMutability": "view",
      "type": "function"
    },
    {
      "inputs": [],
      "name": "FRAUD_PENALTY",
      "outputs": [
        {
          "internalType": "uint256",
          "name": "",
          "type": "uint256"
        }
      ],
      "stateMutability": "view",
      "type": "function"
    },
    {
      "inputs": [],
      "name": "HIGH_CONFIDENCE_BONUS",
      "outputs": [
        {
          "internalType": "uint256",
          "name": "",
          "type": "uint256"
        }
      ],
      "stateMutability": "view",
      "type": "function"
    },
    {
      "inputs": [],
      "name": "LOSS_PENALTY",
      "outputs": [
        {
          "internalType": "uint256",
          "name": "",
          "type": "uint256"
        }
      ],
      "stateMutability": "view",
      "type": "function"
    },
    {
      "inputs": [],
      "name": "MAX_REPUTATION",
      "outputs": [
        {
          "internalType": "uint256",
          "name": "",
          "type": "uint256"
        }
      ],
      "stateMutability": "view",
      "type": "function"
    },
    {
      "inputs": [],
      "name": "MIN_REPUTATION",
      "outputs": [
        {
          "internalType": "uint256",
          "name": "",
          "type": "uint256"
        }
      ],
      "stateMutability": "view",
      "type": "function"
    },
    {
      "inputs": [],
      "name": "MODERATOR_ROLE",
      "outputs": [
        {
          "internalType": "bytes32",
          "name": "",
          "type": "bytes32"
        }
      ],
      "stateMutability": "view",
      "type": "function"
    },
    {
      "inputs": [],
      "name": "SPLIT_BONUS",
      "outputs": [
        {
          "internalType": "uint256",
          "name": "",
          "type": "uint256"
        }
      ],
      "stateMutability": "view",
      "type": "function"
    },
    {
      "inputs": [],
      "name": "WIN_BONUS",
      "outputs": [
        {
          "internalType": "uint256",
          "name": "",
          "type": "uint256"
        }
      ],
      "stateMutability": "view",
      "type": "function"
    },
    {
      "inputs": [
        {
          "internalType": "address",
          "name": "user",
          "type": "address"
        },
        {
          "internalType": "string",
          "name": "reason",
          "type": "string"
        }
      ],
      "name": "applyFraudPenalty",
      "outputs": [],
      "stateMutability": "nonpayable",
      "type": "function"
    },
    {
      "inputs": [
        {
          "internalType": "address",
          "name": "user",
          "type": "address"
        },
        {
          "internalType": "string",
          "name": "reason",
          "type": "string"
        }
      ],
      "name": "banUser",
      "outputs": [],
      "stateMutability": "nonpayable",
      "type": "function"
    },
    {
      "inputs": [
        {
          "internalType": "address",
          "name": "user",
          "type": "address"
        }
      ],
      "name": "canUserAppeal",
      "outputs": [
        {
          "internalType": "bool",
          "name": "",
          "type": "bool"
        }
      ],
      "stateMutability": "view",
      "type": "function"
    },
    {
      "inputs": [
        {
          "internalType": "string",
          "name": "name",
          "type": "string"
        },
        {
          "internalType": "uint256",
          "name": "minScore",
          "type": "uint256"
        },
        {
          "internalType": "uint256",
          "name": "maxFeeDiscount",
          "type": "uint256"
        },
        {
          "internalType": "uint256",
          "name": "maxDisputeAmount",
          "type": "uint256"
        },
        {
          "internalType": "bool",
          "name": "canAppeal",
          "type": "bool"
        },
        {
          "internalType": "bool",
          "name": "prioritySupport",
          "type": "bool"
        }
      ],
      "name": "createTier",
      "outputs": [],
      "stateMutability": "nonpayable",
      "type": "function"
    },
    {
      "inputs": [
        {
          "internalType": "address",
          "name": "user",
          "type": "address"
        }
      ],
      "name": "getFeeDiscount",
      "outputs": [
        {
          "internalType": "uint256",
          "name": "",
          "type": "uint256"
        }
      ],
      "stateMutability": "view",
      "type": "function"
    },
    {
      "inputs": [
        {
          "internalType": "address",
          "name": "user",
          "type": "address"
        }
      ],
      "name": "getMaxDisputeAmount",
      "outputs": [
        {
          "internalType": "uint256",
          "name": "",
          "type": "uint256"
        }
      ],
      "stateMutability": "view",
      "type": "function"
    },
    {
      "inputs": [
        {
          "internalType": "address",
          "name": "user",
          "type": "address"
        }
      ],
      "name": "getReputation",
      "outputs": [
        {
          "components": [
            {
              "internalType": "uint256",
              "name": "score",
              "type": "uint256"
            },
            {
              "internalType": "uint256",
              "name": "totalDisputes",
              "type": "uint256"
            },
            {
              "internalType": "uint256",
              "name": "disputesWon",
              "type": "uint256"
            },
            {
              "internalType": "uint256",
              "name": "disputesLost",
              "type": "uint256"
            },
            {
              "internalType": "uint256",
              "name": "disputesSplit",
              "type": "uint256"
            },
            {
              "internalType": "uint256",
              "name": "evidenceQuality",
              "type": "uint256"
            },
            {
              "internalType": "uint256",
              "name": "responseTime",
              "type": "uint256"
            },
            {
              "internalType": "uint256",
              "name": "appealSuccessRate",
              "type": "uint256"
            },
            {
              "internalType": "uint256",
              "name": "lastActivityAt",
              "type": "uint256"
            },
            {
              "internalType": "uint256",
              "name": "createdAt",
              "type": "uint256"
            },
            {
              "internalType": "bool",
              "name": "isBanned",
              "type": "bool"
            },
            {
              "internalType": "string",
              "name": "banReason",
              "type": "string"
            }
          ],
          "internalType": "struct ReputationSystem.UserReputation",
          "name": "",
          "type": "tuple"
        }
      ],
      "stateMutability": "view",
      "type": "function"
    },
    {
      "inputs": [
        {
          "internalType": "address",
          "name": "user",
          "type": "address"
        }
      ],
      "name": "getReputationScore",
      "outputs": [
        {
          "internalType": "uint256",
          "name": "",
          "type": "uint256"
        }
      ],
      "stateMutability": "view",
      "type": "function"
    },
    {
      "inputs": [
        {
          "internalType": "bytes32",
          "name": "role",
          "type": "bytes32"
        }
      ],
      "name": "getRoleAdmin",
      "outputs": [
        {
          "internalType": "bytes32",
          "name": "",
          "type": "bytes32"
        }
      ],
      "stateMutability": "view",
      "type": "function"
    },
    {
      "inputs": [
        {
          "internalType": "uint256",
          "name": "tierId",
          "type": "uint256"
        }
      ],
      "name": "getTier",
      "outputs": [
        {
          "components": [
            {
              "internalType": "string",
              "name": "name",
              "type": "string"
            },
            {
              "internalType": "uint256",
              "name": "minScore",
              "type": "uint256"
            },
            {
              "internalType": "uint256",
              "name": "maxFeeDiscount",
              "type": "uint256"
            },
            {
              "internalType": "uint256",
              "name": "maxDisputeAmount",
              "type": "uint256"
            },
            {
              "internalType": "bool",
              "name": "canAppeal",
              "type": "bool"
            },
            {
              "internalType": "bool",
              "name": "prioritySupport",
              "type": "bool"
            }
          ],
          "internalType": "struct ReputationSystem.ReputationTier",
          "name": "",
          "type": "tuple"
        }
      ],
      "stateMutability": "view",
      "type": "function"
    },
    {
      "inputs": [
        {
          "internalType": "address",
          "name": "user",
          "type": "address"
        }
      ],
      "name": "getUserTier",
      "outputs": [
        {
          "internalType": "uint256",
          "name": "tierId",
          "type": "uint256"
        },
        {
          "components": [
            {
              "internalType": "string",
              "name": "name",
              "type": "string"
            },
            {
              "internalType": "uint256",
              "name": "minScore",
              "type": "uint256"
            },
            {
              "internalType": "uint256",
              "name": "maxFeeDiscount",
              "type": "uint256"
            },
            {
              "internalType": "uint256",
              "name": "maxDisputeAmount",
              "type": "uint256"
            },
            {
              "internalType": "bool",
              "name": "canAppeal",
              "type": "bool"
            },
            {
              "internalType": "bool",
              "name": "prioritySupport",
              "type": "bool"
            }
          ],
          "internalType": "struct ReputationSystem.ReputationTier",
          "name": "tier",
          "type": "tuple"
        }
      ],
      "stateMutability": "view",
      "type": "function"
    },
    {
      "inputs": [
        {
          "internalType": "bytes32",
          "name": "role",
          "type": "bytes32"
        },
        {
          "internalType": "address",
          "name": "account",
          "type": "address"
        }
      ],
      "name": "grantRole",
      "outputs": [],
      "stateMutability": "nonpayable",
      "type": "function"
    },
    {
      "inputs": [
        {
          "internalType": "bytes32",
          "name": "role",
          "type": "bytes32"
        },
        {
          "internalType": "address",
          "name": "account",
          "type": "address"
        }
      ],
      "name": "hasRole",
      "outputs": [
        {
          "internalType": "bool",
          "name": "",
          "type": "bool"
        }
      ],
      "stateMutability": "view",
      "type": "function"
    },
    {
      "inputs": [
        {
          "internalType": "address",
          "name": "user",
          "type": "address"
        }
      ],
      "name": "isUserBanned",
      "outputs": [
        {
          "internalType": "bool",
          "name": "",
          "type": "bool"
        }
      ],
      "stateMutability": "view",
      "type": "function"
    },
    {
      "inputs": [
        {
          "internalType": "address",
          "name": "user",
          "type": "address"
        },
        {
          "internalType": "uint256",
          "name": "disputeId",
          "type": "uint256"
        },
        {
          "internalType": "uint256",
          "name": "qualityScore",
          "type": "uint256"
        }
      ],
      "name": "rateEvidenceQuality",
      "outputs": [],
      "stateMutability": "nonpayable",
      "type": "function"
    },
    {
      "inputs": [
        {
          "internalType": "address",
          "name": "user",
          "type": "address"
        },
        {
          "internalType": "bool",
          "name": "successful",
          "type": "bool"
        }
      ],
      "name": "recordAppealOutcome",
      "outputs": [],
      "stateMutability": "nonpayable",
      "type": "function"
    },
    {
      "inputs": [
        {
          "internalType": "address",
          "name": "user",
          "type": "address"
        },
        {
          "internalType": "bool",
          "name": "won",
          "type": "bool"
        },
        {
          "internalType": "bool",
          "name": "split",
          "type": "bool"
        },
        {
          "internalType": "uint8",
          "name": "aiConfidence",
          "type": "uint8"
        }
      ],
      "name": "recordDisputeOutcome",
      "outputs": [],
      "stateMutability": "nonpayable",
      "type": "function"
    },
    {
      "inputs": [
        {
          "internalType": "address",
          "name": "user",
          "type": "address"
        },
        {
          "internalType": "uint256",
          "name": "responseTimeSeconds",
          "type": "uint256"
        }
      ],
      "name": "recordResponseTime",
      "outputs": [],
      "stateMutability": "nonpayable",
      "type": "function"
    },
    {
      "inputs": [
        {
          "internalType": "bytes32",
          "name": "role",
          "type": "bytes32"
        },
        {
          "internalType": "address",
          "name": "callerConfirmation",
          "type": "address"
        }
      ],
      "name": "renounceRole",
      "outputs": [],
      "stateMutability": "nonpayable",
      "type": "function"
    },
    {
      "inputs": [
        {
          "internalType": "uint256",
          "name": "",
          "type": "uint256"
        }
      ],
      "name": "reputationTiers",
      "outputs": [
        {
          "internalType": "string",
          "name": "name",
          "type": "string"
        },
        {
          "internalType": "uint256",
          "name": "minScore",
          "type": "uint256"
        },
        {
          "internalType": "uint256",
          "name": "maxFeeDiscount",
          "type": "uint256"
        },
        {
          "internalType": "uint256",
          "name": "maxDisputeAmount",
          "type": "uint256"
        },
        {
          "internalType": "bool",
          "name": "canAppeal",
          "type": "bool"
        },
        {
          "internalType": "bool",
          "name": "prioritySupport",
          "type": "bool"
        }
      ],
      "stateMutability": "view",
      "type": "function"
    },
    {
      "inputs": [
        {
          "internalType": "bytes32",
          "name": "role",
          "type": "bytes32"
        },
        {
          "internalType": "address",
          "name": "account",
          "type": "address"
        }
      ],
      "name": "revokeRole",
      "outputs": [],
      "stateMutability": "nonpayable",
      "type": "function"
    },
    {
      "inputs": [
        {
          "internalType": "address",
          "name": "disputeContract",
          "type": "address"
        }
      ],
      "name": "setDisputeContract",
      "outputs": [],
      "stateMutability": "nonpayable",
      "type": "function"
    },
    {
      "inputs": [
        {
          "internalType": "bytes4",
          "name": "interfaceId",
          "type": "bytes4"
        }
      ],
      "name": "supportsInterface",
      "outputs": [
        {
          "internalType": "bool",
          "name": "",
          "type": "bool"
        }
      ],
      "stateMutability": "view",
      "type": "function"
    },
    {
      "inputs": [],
      "name": "tierCount",
      "outputs": [
        {
          "internalType": "uint256",
          "name": "",
          "type": "uint256"
        }
      ],
      "stateMutability": "view",
      "type": "function"
    },
    {
      "inputs": [
        {
          "internalType": "address",
          "name": "user",
          "type": "address"
        }
      ],
      "name": "unbanUser",
      "outputs": [],
      "stateMutability": "nonpayable",
      "type": "function"
    },
    {
      "inputs": [
        {
          "internalType": "address",
          "name": "",
          "type": "address"
        }
      ],
      "name": "userReputations",
      "outputs": [
        {
          "internalType": "uint256",
          "name": "score",
          "type": "uint256"
        },
        {
          "internalType": "uint256",
          "name": "totalDisputes",
          "type": "uint256"
        },
        {
          "internalType": "uint256",
          "name": "disputesWon",
          "type": "uint256"
        },
        {
          "internalType": "uint256",
          "name": "disputesLost",
          "type": "uint256"
        },
        {
          "internalType": "uint256",
          "name": "disputesSplit",
          "type": "uint256"
        },
        {
          "internalType": "uint256",
          "name": "evidenceQuality",
          "type": "uint256"
        },
        {
          "internalType": "uint256",
          "name": "responseTime",
          "type": "uint256"
        },
        {
          "internalType": "uint256",
          "name": "appealSuccessRate",
          "type": "uint256"
        },
        {
          "internalType": "uint256",
          "name": "lastActivityAt",
          "type": "uint256"
        },
        {
          "internalType": "uint256",
          "name": "createdAt",
          "type": "uint256"
        },
        {
          "internalType": "bool",
          "name": "isBanned",
          "type": "bool"
        },
        {
          "internalType": "string",
          "name": "banReason",
          "type": "string"
        }
      ],
      "stateMutability": "view",
      "type": "function"
    }
  ],
  "bytecode": "0x60806040523462000a4b5760018055620000193362000a50565b50620000253362000ad0565b506200003062000b72565b6200003a62000b92565b60088152672732bb902ab9b2b960c11b602082015281526000602082015260006040820152670de0b6b3a7640000606082015260006080820152600060a08201526000805260036020526040600020815180519060018060401b038211620006e5578254600181811c9116801562000a40575b6020821014620006c457601f8111620009f7575b50602090601f83116001146200098357918060a0949260049460009262000977575b50508160011b916000199060031b1c19161781555b60208401516001820155604084015160028201556060840151600382015501916200013560808201511515849060ff801983541691151516179055565b0151815461ff00191690151560081b61ff00161790556200015562000b72565b6200015f62000b92565b600681526542726f6e7a6560d01b60208201528152610bb860208201526101f46040820152678ac7230489e80000606082015260016080820152600060a0820152600160005260036020526040600020815180519060018060401b038211620006e5578254600181811c911680156200096c575b6020821014620006c457601f811162000923575b50602090601f8311600114620008af57918060a09492600494600092620008a3575b50508160011b916000199060031b1c19161781555b60208401516001820155604084015160028201556060840151600382015501916200025b60808201511515849060ff801983541691151516179055565b0151815461ff00191690151560081b61ff00161790556200027b62000b72565b6200028562000b92565b600681526529b4b63b32b960d11b6020820152815261138860208201526103e860408201526802b5e3af16b1880000606082015260016080820152600060a0820152600260005260036020526040600020815180519060018060401b038211620006e5578254600181811c9116801562000898575b6020821014620006c457601f81116200084f575b50602090601f8311600114620007db57918060a09492600494600092620007cf575b50508160011b916000199060031b1c19161781555b60208401516001820155604084015160028201556060840151600382015501916200038260808201511515849060ff801983541691151516179055565b0151815461ff00191690151560081b61ff0016179055620003a262000b72565b620003ac62000b92565b600481526311dbdb1960e21b60208201528152611b5860208201526105dc6040820152680ad78ebc5ac6200000606082015260016080820152600160a0820152600360005260036020526040600020815180519060018060401b038211620006e5578254600181811c91168015620007c4575b6020821014620006c457601f81116200077b575b50602090601f83116001146200070757918060a09492600494600092620006fb575b50508160011b916000199060031b1c19161781555b6020840151600182015560408401516002820155606084015160038201550191620004a760808201511515849060ff801983541691151516179055565b0151815461ff00191690151560081b61ff0016179055620004c762000b72565b620004d162000b92565b6008815267506c6174696e756d60c01b6020820152815261232860208201526109c46040820152683635c9adc5dea00000606082015260016080820152600160a0820152600460005260036020526040600020815180519060018060401b038211620006e5578254600181811c91168015620006da575b6020821014620006c457601f81116200067b575b50602090601f83116001146200060757918060a09492600494600092620005fb575b50508160011b916000199060031b1c19161781555b6020840151600182015560408401516002820155606084015160038201550191620005d060808201511515849060ff801983541691151516179055565b0151815461ff00191690151560081b61ff0016179055600560045560405161243d908162000bb38239f35b0151905038806200057e565b908360005260206000209160005b601f19851681106200066257509260a0949260019260049583601f1981161062000648575b505050811b01815562000593565b015160001960f88460031b161c191690553880806200063a565b9192602060018192868501518155019401920162000615565b836000526020600020601f840160051c810160208510620006bc575b601f830160051c82018110620006af5750506200055c565b6000815560010162000697565b508062000697565b634e487b7160e01b600052602260045260246000fd5b90607f169062000548565b634e487b7160e01b600052604160045260246000fd5b01519050388062000455565b908360005260206000209160005b601f19851681106200076257509260a0949260019260049583601f1981161062000748575b505050811b0181556200046a565b015160001960f88460031b161c191690553880806200073a565b9192602060018192868501518155019401920162000715565b836000526020600020601f840160051c810160208510620007bc575b601f830160051c82018110620007af57505062000433565b6000815560010162000797565b508062000797565b90607f16906200041f565b01519050388062000330565b908360005260206000209160005b601f19851681106200083657509260a0949260019260049583601f198116106200081c575b505050811b01815562000345565b015160001960f88460031b161c191690553880806200080e565b91926020600181928685015181550194019201620007e9565b836000526020600020601f840160051c81016020851062000890575b601f830160051c82018110620008835750506200030e565b600081556001016200086b565b50806200086b565b90607f1690620002fa565b01519050388062000209565b908360005260206000209160005b601f19851681106200090a57509260a0949260019260049583601f19811610620008f0575b505050811b0181556200021e565b015160001960f88460031b161c19169055388080620008e2565b91926020600181928685015181550194019201620008bd565b836000526020600020601f840160051c81016020851062000964575b601f830160051c8201811062000957575050620001e7565b600081556001016200093f565b50806200093f565b90607f1690620001d3565b015190503880620000e3565b908360005260206000209160005b601f1985168110620009de57509260a0949260019260049583601f19811610620009c4575b505050811b018155620000f8565b015160001960f88460031b161c19169055388080620009b6565b9192602060018192868501518155019401920162000991565b836000526020600020601f840160051c81016020851062000a38575b601f830160051c8201811062000a2b575050620000c1565b6000815560010162000a13565b508062000a13565b90607f1690620000ad565b600080fd5b6001600160a01b031660008181527fad3228b676f7d3cd4284a5443f17f1962b36e491b30a40b2405849e597ba5fb5602052604081205490919060ff1662000acc57818052816020526040822081835260205260408220600160ff19825416179055339160008051602062002ff08339815191528180a4600190565b5090565b6001600160a01b031660008181527ff179aafcc4ff8137fca1ef3b9ec4d165f87016ba123e7973fba770bc55e240e360205260408120549091907f71f3d55856e4058ed06ee057d79ada615f65cdf5f9ee88181b914225088f834f9060ff1662000b6d57808352826020526040832082845260205260408320600160ff1982541617905560008051602062002ff0833981519152339380a4600190565b505090565b6040519060c082016001600160401b03811183821017620006e557604052565b60408051919082016001600160401b03811183821017620006e55760405256fe608080604052600436101561001357600080fd5b600090813560e01c90816301ffc9a7146118745750806306c71579146118465780630f96f2d3146117c35780631f027cef146114ac578063238dcf88146117a6578063248a9ca31461177a5780632617f71e1461175d5780632f2ff15d1461172057806336568abe146116d85780633a6f6b381461042c57806344a2008b146116bc57806344d23d6f146116925780634d12b695146115915780634f062c5a146115095780634f2b0d4a146114ec578063623a41c2146114b157806368766a64146114ac578063697c6045146114ac57806375a67d5c146113cc578063797669c9146113915780638644032c1461136d5780638ea5e4c61461110657806391d14854146110be57806396b55f7d146110a0578063978374b114610ef85780639c89a0e214610d435780639e21592b14610ba05780639ed9b4fd14610b5d578063a217fddf14610b41578063a4d6f0b014610b24578063b7fa7cfc14610af8578063bf93faf5146107a7578063d213c0f21461078a578063d36d0dac146105bb578063d547741f1461057a578063de8be6fd14610431578063df2303611461042c578063e4d2620e146103ed578063e9610b50146103d1578063eb30f6fb146103b4578063f8b11691146102e55763ff1f9c42146101ef57600080fd5b346102e25760403660031901126102e2576102086118c9565b60243590610214611c61565b610e1061022082611f60565b928060068501805480156000146102cd5750555b1061023d578280f35b815491606483018084116102b9579160a0916000805160206123c883398151915293612710908181116000146102b0575080915b55604051948552602085015260606040850152600d60608501526c4661737420726573706f6e736560981b6080850152600180831b031692a238808280f35b90508091610271565b634e487b7160e01b85526011600452602485fd5b916102d89192611f97565b60011c9055610234565b80fd5b50346102e25760203660031901126102e2576040906001600160a01b0361030a6118c9565b16815260026020522080546103b0600183015492600281015490600381015460048201546005830154600684015460078501549160088601549360098701549561035e600b60ff600a8b01541699016119c1565b986040519c8d9c8d5260208d015260408c015260608b015260808a015260a089015260c088015260e0870152610100860152610120850152151561014084015261018080610160850152830190611a67565b0390f35b50346102e257806003193601126102e25760206040516103208152f35b50346102e257806003193601126102e257602060405160c88152f35b50346102e25760203660031901126102e25761040f61040a6118c9565b61211f565b906103b06040519283928352604060208401526040830190611ae0565b611ac3565b50346102e25761044036611b69565b9061044c939293611c05565b61045584611f60565b93600b600a8601956001968760ff198254161790550167ffffffffffffffff84116105665761048e8461048883546118fa565b83611efc565b8495601f85116001146104f35793806000805160206123e88339815191529587988298936104e8575b501b906000198760031b1c19161790555b6104e260405192839260018060a01b031695339184612062565b0390a280f35b8601359250386104b7565b8186526020808720601f19871698909188905b8a821061054f575050866000805160206123e883398151915297989910610535575b505085811b0190556104c8565b850135600019600389901b60f8161c191690553880610528565b808584958294958b01358155019401920190610506565b634e487b7160e01b85526041600452602485fd5b50346102e25760403660031901126102e2576105b760043561059a6118e4565b90808452836020526105b26001604086200154611cbd565b611e0e565b5080f35b50346102e2576105ca36611b69565b91906105d4611c05565b6105dd82611f60565b908154916101f46105ed84611fa4565b8083551115610636575b6000805160206123c88339815191529392916104e2915493604051948594855260208501526060604085015260018060a01b0316956060840191612041565b600a81016001908160ff19825416179055600b82019067ffffffffffffffff87116107765786906106718261066b85546118fa565b85611efc565b88601f83116001146106f45791806000805160206123c883398151915298979694926104e296948c936106e9575b501b906000198a60031b1c19161790555b6040516001600160a01b038616906000805160206123e883398151915290806106db338c8884612062565b0390a29150919293506105f7565b86013592503861069f565b838a526020808b209293508990601f198216908c905b82821061075c575050916000805160206123c88339815191529998979593916104e297959310610742575b505088811b0190556106b0565b85013560001960038c901b60f8161c191690553880610735565b89850135865594860194938401938c93509081019061070a565b634e487b7160e01b88526041600452602488fd5b50346102e257806003193601126102e25760206040516127108152f35b50346102e25760803660031901126102e2576107c16118c9565b906107ca611b5a565b604435908115158203610af4576064359360ff8516809503610af0576107ee611c61565b6107f781611f60565b92600a84019361080b60ff86541615611e83565b80549460019788830161081e8154611ec0565b90554260088401558315610a8557506004820161083b8154611ec0565b90556101f461084c60645b88611fc4565b8084551115610916575b506000805160206123c88339815191529495965054926000146108b557506104e260405161088381611983565b600b81526a576f6e206469737075746560a81b60208201525b6040516001600160a01b03909316959293849384611f41565b156108e9576104e26040516108c981611983565b600e81526d29b83634ba103232b1b4b9b4b7b760911b602082015261089c565b6104e26040516108f881611983565b600c81526b4c6f7374206469737075746560a01b602082015261089c565b60ff19908882825416179055600b82019061093182546118fa565b601f8111610a66575b5060247152657075746174696f6e20746f6f206c6f7760701b01988983556040519260408452899a61096b816118fa565b938460408701528382169182600014610a255750506001146109cd575b505030602083015250959694956000805160206123c8833981519152956001600160a01b038516916000805160206123e88339815191529181900390a2869594610856565b9099508852602080892099899a5b838c10610a115750505050968701606001966000805160206123e88339815191526000805160206123c883398151915238610988565b8054858d01606001529a82019a81016109db565b1660608681019190915293151560051b85019093019a506000805160206123e883398151915292506000805160206123c88339815191529150389050610988565b82895260208920610a7f91601f0160051c810190611ee5565b3861093a565b8515610abd5760028301610a998154611ec0565b905560556101f4911015610ab4575b61084c6101f491610846565b506102bc610aa8565b60038301610acb8154611ec0565b9055605a61012b19911015610ae65761084c6101f491610846565b506101f319610aa8565b8380fd5b8280fd5b50346102e25760203660031901126102e2576020610b1c610b176118c9565b6121d2565b604051908152f35b50346102e257806003193601126102e257602060405161012c8152f35b50346102e257806003193601126102e257602090604051908152f35b50346102e25760203660031901126102e25760209060ff90600a906040906001600160a01b03610b8b6118c9565b16815260028552200154166040519015158152f35b50346102e25760403660031901126102e257610bba6118c9565b90610bc3611b5a565b91610bcc611c61565b610bd581611f60565b610be660ff600a8301541615611e83565b8054918415610d2557600182015461032095908015610d1d57600a90045b60078401908154600019820190828211610d0957818102918183041490151715610cf5576127108101809111610cf5578115610ce157916000805160206123c883398151915296979891610c5c930490555b86611fc4565b92838155600842910155600014610cb3576104e2604051610c7c81611983565b601181527014dd58d8d95cdcd99d5b08185c1c19585b607a1b60208201526040516001600160a01b03909316959293849384611f41565b6104e2604051610cc281611983565b600d81526c11985a5b195908185c1c19585b609a1b602082015261089c565b634e487b7160e01b88526012600452602488fd5b634e487b7160e01b88526011600452602488fd5b634e487b7160e01b89526011600452602489fd5b506001610c04565b6000805160206123c8833981519152929394610c5c61018f19610c56565b50346102e25760203660031901126102e257604061016091610d636118c9565b6060848451610d7181611934565b848152846020820152848682015284838201528460808201528460a08201528460c08201528460e0820152846101008201528461012082015284610140820152015260018060a01b03168152600260205220610e4b600b60405192610dd584611934565b8054845260018101546020850152600281015460408501526003810154606085015260048101546080850152600581015460a0850152600681015460c0850152600781015460e08501526008810154610100850152600981015461012085015260ff600a820154161515610140850152016119c1565b8282015261012081015115610eee575b6103b06040519283926020845280516020850152602081015160408501526040810151606085015260608101516080850152608081015160a085015260a081015160c085015260c081015160e085015260e08101516101008501526101008101516101208501526101208101516101408501526101408101511515828501520151610180808401526101a0830190611a67565b6113888152610e5b565b50346102e25760603660031901126102e257610f126118c9565b60443590610f1e611c05565b6064821161106357610f2f81611f60565b82600582018054801560001461104e5750555b6050831015610f8b575b5060407faca8929b748783ce5d38abda96fac54778ceb8858ba437ffc45282a02c676240918151936024358552602085015260018060a01b031692a280f35b805490604f19840184811161103a5760968102908082046096149015171561103a57917faca8929b748783ce5d38abda96fac54778ceb8858ba437ffc45282a02c6762409391610fe060146040950483611fc4565b80915583519182526020820152606083820152601560608201527448696768207175616c6974792065766964656e636560581b60808201526000805160206123c883398151915260a0600180821b03841692a29150610f4c565b634e487b7160e01b86526011600452602486fd5b916110599192611f97565b60011c9055610f42565b60405162461bcd60e51b8152602060048201526015602482015274496e76616c6964207175616c6974792073636f726560581b6044820152606490fd5b50346102e257806003193601126102e2576020600454604051908152f35b50346102e25760403660031901126102e25760ff60406020926110df6118e4565b60043582528185528282206001600160a01b03909116825284522054604051911615158152f35b50346102e25760c03660031901126102e25767ffffffffffffffff906004358281116113695761113a903690600401611b2c565b60843593841515809503610af05760a435908115158092036113655761115e611bad565b6040519161116b83611967565b81841161135157604051601f19979061118c601f87018a166020018261199f565b858152368688011161134d578587602083013787602087830101528452602435602085015260443560408501526064356060850152608084015260a08301526004548552600360205260408520908251968751918211611339576111f48261066b85546118fa565b602090601f83116001146112cf575090806004939288996112be99926112c4575b50508160011b916000199060031b1c19161781555b6020830151600182015560408301516002820155606083015160038201550190608081015115159060ff61ff0060a08554930151151560081b1692169061ffff1916171790557f0e0604e052b3c03f749dfaeca4395de2957f31a3896ee0324a805511e072476e6004549283926112ae604051928392604084526040840191612041565b60243560208301520390a2611ec0565b60045580f35b015190503880611215565b978388526020882098885b81851681106113215750986001928492836112be9b9c600498971610611308575b505050811b01815561122a565b015160001960f88460031b161c191690553880806112fb565b838301518b556001909a0199602093840193016112da565b634e487b7160e01b87526041600452602487fd5b8780fd5b634e487b7160e01b86526041600452602486fd5b8480fd5b5080fd5b50346102e25760203660031901126102e2576020610b1c61138c6118c9565b612315565b50346102e257806003193601126102e25760206040517f71f3d55856e4058ed06ee057d79ada615f65cdf5f9ee88181b914225088f834f8152f35b50346102e25760203660031901126102e2576001600160a01b036113ee6118c9565b168152600260205260408120906040519161140883611934565b8054835260018101546020840152600281015460408401526003810154606084015260048101546080840152600581015460a0840152600681015460c0840152600781015460e08401526008810154610100840152611486600b600983015492610120860193845260ff600a820154161515610140870152016119c1565b61016084015251151590506114a357506020611388604051908152f35b60209051610b1c565b611aa7565b50346102e257806003193601126102e25760206040517f548ad01cb7d1dbb8d45d390adae50f787efed76d7ea4725ce02f90587d28e24f8152f35b50346102e257806003193601126102e25760206040516113888152f35b50346102e25760203660031901126102e2576004359061152761208b565b5060045482101561155d576040816103b09361154993526003602052206120ca565b604051918291602083526020830190611ae0565b60405162461bcd60e51b815260206004820152600c60248201526b24b73b30b634b2103a34b2b960a11b6044820152606490fd5b50346102e25760203660031901126102e2576115ab6118c9565b6115b3611c05565b6001600160a01b0316808252600260205260408220600a8101805460ff81161561165b5760ff191690556000600b82016115ed81546118fa565b601f811161163c575b50556109c49081815410611634575b50507ff11fd0be5eda892011eed5ccf21f149a3e3533001e220f8aef844d83842ac6196020604051338152a280f35b553880611605565b8186526020862061165591601f0160051c810190611ee5565b386115f6565b60405162461bcd60e51b815260206004820152600f60248201526e155cd95c881b9bdd0818985b9b9959608a1b6044820152606490fd5b50346102e25760203660031901126102e2576105b76116af6118c9565b6116b7611bad565b611ce3565b50346102e257806003193601126102e257602060405160968152f35b50346102e25760403660031901126102e2576116f26118e4565b336001600160a01b0382160361170e576105b790600435611e0e565b60405163334bd91960e11b8152600490fd5b50346102e25760403660031901126102e2576105b76004356117406118e4565b90808452836020526117586001604086200154611cbd565b611d95565b50346102e257806003193601126102e25760206040516101908152f35b50346102e25760203660031901126102e257600160406020926004358152808452200154604051908152f35b50346102e257806003193601126102e25760206040516107d08152f35b50346102e25760203660031901126102e257604061181d9160043581526003602052206117ef816119c1565b9060ff600182015491600281015490600460038201549101549160405196879660c0885260c0880190611a67565b946020870152604086015260608501528181161515608085015260081c16151560a08301520390f35b50346102e25760203660031901126102e257602061186a6118656118c9565b61226a565b6040519015158152f35b9050346113695760203660031901126113695760043563ffffffff60e01b8116809103610af45760209250637965db0b60e01b81149081156118b8575b5015158152f35b6301ffc9a760e01b149050386118b1565b600435906001600160a01b03821682036118df57565b600080fd5b602435906001600160a01b03821682036118df57565b90600182811c9216801561192a575b602083101461191457565b634e487b7160e01b600052602260045260246000fd5b91607f1691611909565b610180810190811067ffffffffffffffff82111761195157604052565b634e487b7160e01b600052604160045260246000fd5b60c0810190811067ffffffffffffffff82111761195157604052565b6040810190811067ffffffffffffffff82111761195157604052565b90601f8019910116810190811067ffffffffffffffff82111761195157604052565b90604051918260008254926119d5846118fa565b908184526001948581169081600014611a445750600114611a01575b50506119ff9250038361199f565b565b9093915060005260209081600020936000915b818310611a2c5750506119ff935082010138806119f1565b85548884018501529485019487945091830191611a14565b9150506119ff94506020925060ff191682840152151560051b82010138806119f1565b919082519283825260005b848110611a93575050826000602080949584010152601f8019910116010190565b602081830181015184830182015201611a72565b346118df5760003660031901126118df57602060405160648152f35b346118df5760003660031901126118df5760206040516101f48152f35b9060a080611af7845160c0855260c0850190611a67565b936020810151602085015260408101516040850152606081015160608501526080810151151560808501520151151591015290565b9181601f840112156118df5782359167ffffffffffffffff83116118df57602083818601950101116118df57565b6024359081151582036118df57565b9060406003198301126118df576004356001600160a01b03811681036118df57916024359067ffffffffffffffff82116118df57611ba991600401611b2c565b9091565b3360009081527fad3228b676f7d3cd4284a5443f17f1962b36e491b30a40b2405849e597ba5fb5602052604081205460ff1615611be75750565b6044906040519063e2517d3f60e01b82523360048301526024820152fd5b3360009081527ff179aafcc4ff8137fca1ef3b9ec4d165f87016ba123e7973fba770bc55e240e360205260409020547f71f3d55856e4058ed06ee057d79ada615f65cdf5f9ee88181b914225088f834f9060ff1615611be75750565b3360009081527f36e503eea63500a8c9080ce945ec2c201d60f7f269e8f5c17d26416b796499cd60205260409020547f548ad01cb7d1dbb8d45d390adae50f787efed76d7ea4725ce02f90587d28e24f9060ff1615611be75750565b80600052600060205260406000203360005260205260ff6040600020541615611be75750565b6001600160a01b031660008181527f36e503eea63500a8c9080ce945ec2c201d60f7f269e8f5c17d26416b796499cd60205260408120549091907f548ad01cb7d1dbb8d45d390adae50f787efed76d7ea4725ce02f90587d28e24f9060ff16611d9057808352826020526040832082845260205260408320600160ff198254161790557f2f8788117e7eff1d82e926ec794901d17c78024a50270940304540a733656f0d339380a4600190565b505090565b9060009180835282602052604083209160018060a01b03169182845260205260ff60408420541615600014611d9057808352826020526040832082845260205260408320600160ff198254161790557f2f8788117e7eff1d82e926ec794901d17c78024a50270940304540a733656f0d339380a4600190565b9060009180835282602052604083209160018060a01b03169182845260205260ff604084205416600014611d905780835282602052604083208284526020526040832060ff1981541690557ff6391f5c32d9c69d2a47ea670b442974b53935d1edc7fd64eb21e047a839171b339380a4600190565b15611e8a57565b60405162461bcd60e51b815260206004820152600e60248201526d155cd95c881a5cc818985b9b995960921b6044820152606490fd5b6000198114611ecf5760010190565b634e487b7160e01b600052601160045260246000fd5b818110611ef0575050565b60008155600101611ee5565b9190601f8111611f0b57505050565b6119ff926000526020600020906020601f840160051c83019310611f37575b601f0160051c0190611ee5565b9091508190611f2a565b611f5d9392606092825260208201528160408201520190611a67565b90565b6001600160a01b0316600090815260026020526040902060098101805415611f86575090565b611388825542905542600882015590565b91908201809211611ecf57565b806107d01015611fbe576107cf198101908111611ecf5790565b50606490565b90600090818112611fef57611fd99192611f97565b612710915081811115611fea575090565b905090565b600160ff1b811461202d57828183031015612025578201918211612011575090565b634e487b7160e01b81526011600452602490fd5b505050606490565b634e487b7160e01b82526011600452602482fd5b908060209392818452848401376000828201840152601f01601f1916010190565b9160209161207b91959495604085526040850191612041565b6001600160a01b03909416910152565b6040519061209882611967565b600060a083606081528260208201528260408201528260608201528260808201520152565b8015611ecf576000190190565b906040516120d781611967565b60a060ff600483956120e8816119c1565b855260018101546020860152600281015460408601526003810154606086015201548181161515608085015260081c161515910152565b9061212861208b565b5060009160018060a01b031682526020600281526040908184206009810154156000146121cc57506113885b60048054805b61217357505050906003611f5d928580525283206120ca565b60001981018181116121b957808852600385528588209060018201548510156121a75750506121a1906120bd565b8061215a565b94509650505050611f5d9150926120ca565b634e487b7160e01b885260118352602488fd5b54612154565b6001600160a01b0316600090815260026020818152604080842060098101549293926122635750611388905b6004938454805b6122125750505050505090565b6000198101818111612250578752600382528287206001810154851015612243575061223d906120bd565b80612205565b9550505050509150015490565b634e487b7160e01b885260118752602488fd5b54906121fe565b6001600160a01b03166000908152600260209081526040808320600a81015460ff929190831661230e57600981015461230857506113885b6004918254805b6122b65750505050505090565b60001981018181116122f55787526003865281872060018101548410156122e757506122e1906120bd565b806122a9565b949650505050915001541690565b634e487b7160e01b885260118552602488fd5b546122a2565b5050505090565b6001600160a01b03166000908152600260209081526040808320600a81015491929160ff166123c15760098101546123bb57506113885b6004908154805b6123695750505091600380938280525220015490565b60001981018181116123a85786526003808552858720600181015484101561239c575050612396906120bd565b80612353565b01549695505050505050565b634e487b7160e01b875260118452602487fd5b5461234c565b5050509056fe4146a620f234be49686701963664655b5fb451997f8462f773d272d68f17043f6e4ef51cc33f3fd1bf8122b95763610c781091c183ce23d3070ec034ee095fb4a26469706673582212207e7825efb817e19e892993539515621a1a5f6715830dacc945a4c6742651299964736f6c634300081400332f8788117e7eff1d82e926ec794901d17c78024a50270940304540a733656f0d",
  "linkReferences": {},
  "deployedLinkReferences": {}
}